:0300000002029F5A
:0C029F00787FE4F6D8FD75815D0202E670
:1003AF00E4FAEF6405703343F620C2F8C2F9D2FACB
:1003BF0043E180C2FCD2FBADF8EDC413135403FD2F
:1003CF00AFE2AB07EB7E007802C333CE33CED8F962
:1003DF007C002DFBEC3EAF03FE22EF64067034432E
:1003EF00F640D2F8C2F9D2FA43E180C2FCD2FBAD9B
:1003FF00F8EDC413135403FDAFE27A00AB07EB7EA5
:10040F00007802C333CE33CED8F97C002DFBEC3EFF
:03041F00FEAF032A
:0104220022B7
:10062F0075DCC075140075151DE514F5D1E515F5CC
:02063F00D922BE
:1004E200EF1460191460251460312403703B7514F5
:1004F2000075150DE514F5D2E515F5DA227514012E
:10050200751500E514F5D3E515F5DB2275140075B4
:100512001580E514F5D5E515F5DD22751400751580
:0A05220040E514F5D6E515F5DE22DC
:08000300E4FF1204E202062FE3
:0C000E00758911758C24758A45D28C22EE
:0C064100758911758DFF758B8ED28E228D
:02056E008F0FED
:10057000C2A07F287E001205A3D2A07F287E001291
:1005800005A3E4F510E510C3950F5016D2A17F5EC8
:100590007E011205C3C2A17F5E7E011205C3051054
:0205A00080E3F6
:0105A2002236
:1005FE00C294C2A1C2A07FE87E031205C3D2A07F1F
:09060E00E87E031205C3D2942218
:10032B00C100C10AC103C104C105C106C107025303
:10033B000000025500000257000002590000012581
:10034B0000012900012A00022200000232000002F3
:10035B00270000025C0000C10B01510001260001C7
:10036B002400C182015B00C108C101C10901500019
:10037B000152011C340000000000000000000000CE
:10038B000000000000000000000000000000000062
:0A039B0000072B0000000000000026
:100172001205FE12000E120641D2A4D2A9D2ABD2AF
:10018200BBD2AF120003D290C2947F061203AF8E8D
:100192005C8F5DD203E4F555F556C205C2A7300562
:1001A20046C3E5569402E5559400503BD2947F0530
:1001B20012056E7F967E001205E37F0612056E7FA2
:1001C200507E001205E37F0712056E7F787E0012D3
:1001D20005E3C294C2A47F0A7E001205E3D2A405FD
:1001E20056E5567002055530061BD2947F0412055F
:1001F2006E7FB47E001205E3C2A47F0A7E00120560
:10020200E3D2A4C20630071BD2947F0812056E7F88
:10021200B47E001205E3C2A47F0A7E001205E3D277
:10022200A4C2073008467F061203AF8E5C8F5DC200
:1002320008E552B40114D3E55D945AE55C94035089
:1002420009E4F552D2947F098016E552701EC3E587
:100252005D9477E55C94034013755201D2947F025A
:1002620012056E7F787E001205E3C294300109C246
:1002720093120489D293C20120090221A0D2947F51
:100282000212056E7F507E001205E37F0312056E97
:0D0292007F507E001205E3C294C20921A036
:03001B0002001EC2
:10001E00C0E0C0F0C083C082C0D075D000C000C0A8
:10002E0001C002C003C004C005C006C007758DFF25
:10003E00758B8E20910E0551C202E5516496705457
:10004E00F551805020023CD202E551D3943C40152C
:10005E00E551D39464500EE52625E0F5265326FE91
:10006E000524755B00E551D394644010E52625E028
:10007E00F5264326010524755B008002055B75514C
:10008E00008011055BE55BC394784008752400D2AF
:10009E0002752A00E52464087032F524742B252A93
:1000AE00F8A626E52A700AE52BB4C805752A018044
:1000BE001BE52AB4010AE52CB4E005752A02800C72
:1000CE00E52AB40204D20A8000752A00300A7AC2E8
:1000DE000AC293E52D243D601D14602C1460431458
:1000EE0060652405706375270075280075550075C9
:1000FE005600C2058008752700752800D205755771
:10010E0000755800C2068010752700752800D206AB
:10011E00755500755600C205755900755A00C2070F
:10012E008018752700752800D20775550075560082
:10013E00C205755700755800C206C2A47F0A7E001C
:10014E001205E3D2A48002D209D007D006D005D082
:10015E0004D003D002D001D000D0D0D082D083D032
:04016E00F0D0E032BB
:03000B00020423C9
:10042300C0E0C0D0758C24758A450523E52370028E
:100433000522C3943CE52294004023D208300318DC
:100443000528E52870020527D2019404E5279400C6
:100453004006752700752805752200752300C3E53E
:10046300569402E555940040180556E5567002056A
:1004730055B4080DE555B40708755500755600C207
:0604830005D0D0D0E032EC
:1005E300EF1FAA0670011E4A60107C137D88ED1D63
:0A05F300AA0470011C4A60E880F4BD
:0105FD0022DB
:10061700E4FDFCC3ED9FEC9E500DE4FB0BBB17FC08
:070627000DBD00010C80EC89
:01062E0022A9
:1005A300E4FDFCC3ED9FEC9E5015E4FBFA0BBB008E
:0F05B300010ABA02F8BB58F50DBD00010C80E437
:0105C2002216
:1005C300E4FDFCC3ED9FEC9E5015E4FBFA0BBB006E
:0F05D300010AEB64024A70F50DBD00010C80E4D3
:0105E20022F6
:0903A50007080000000000000040
:10048900C2A6D2A77508C87509E0750AC112052C5C
:10049900E4F50FE4F5107408250FF8E630E706C215
:1004A900907F788004C2907F507E00120617D29008
:1004B9007408250FF8C000E625E0D000F67F327EEB
:1004C900001206170510E510C3940840C9050FE589
:0804D9000FC3940340BDC2A74C
:0104E10022F8
:10052C007513AAE4F512E4F511E513C2907F507E21
:10053C0000120617D290E51325E0F5137F967E0086
:10054C001206170511E511C3940840DD7513AA7F37
:10055C00507E001206170512E512C3940140C7D253
:01056C0090FE
:01056D00226B
:1002AB00020172E493A3F8E493A34003F68001F2F6
:1002BB0008DFF48029E493A3F85407240CC8C33354
:1002CB00C4540F4420C8834004F456800146F6DF23
:1002DB00E4800B010204081020408090032BE47E85
:1002EB00019360BCA3FF543F30E509541FFEE49318
:1002FB00A360010ECF54C025E060A840B8E493A3DF
:10030B00FAE493A3F8E493A3C8C582C8CAC583CA09
:10031B00F0A3C8C582C8CAC583CADFE9DEE780BEC1
:0103AE00004E
:00000001FF
