:030000000208CC27
:0C08CC00787FE4F6D8FD75812202091344
:10083A0041000C0042000D0000410000004100018F
:10084A0000410002004100030041000500C10F41C0
:10085A0000060041000B0041000401C100C106412D
:10086A00000A00C102C108C109C10AC10BC101C104
:10087A0010C105C10CC107C10E5C000F00000000C9
:10088A00000000000000000000000000000000005E
:10089A00000000000000000047002F0000000000D8
:1008AA00000042002D0000C10DC10441002B00418F
:1008BA0000080041000700C18341002C00410009E3
:0108CA00002D
:100C2D00D290742F29F582E43400F583E025E0F0AD
:040C3D007F327E0084
:100C4100E4FDFCC3ED9FEC9E5015E4FBFA0BBB00E9
:0F0C5100010AEB64134A70F50DBD00010C80E43D
:010C60002271
:100CEC00E4FDFCC3ED9FEC9E5015E4FBFA0BBB003E
:0F0CFC00010AEB641A4A70F50DBD00010C80E48B
:010D0B0022C5
:0B0A9C00A3F0E4A3F0A3F0A3F0A3F08C
:100AA70090003C74AAF0E490003BF0E4F990003C1D
:100AB700E0C2907F507E00120C41D29090003CE043
:100AC70025E0F07F967E00120C4109E9B408DE901C
:100AD700003C74AAF07F507E00120C4190003BE06E
:0A0AE70004F0E0C3940340C3D29072
:010AF10022E2
:10073200D2A5120D8212000E120DA9C294D284D239
:1007420083D2A9D2ABD2BBD2AFD290C2A4C29212F0
:100752000003C2A6C2A2D2A37F1B7E00120D4CC20E
:10076200A2C2A3E4900009F0D204C2A7D21030A41E
:10077200FD7F1E7E00120D4C30A4F3C390002EE0CC
:1007820094A390002DE094034006D2947F0B807ACC
:1007920090002DE0FEA3E0FFC394A0EE9403500F5F
:1007A200C3EF947CEE94034006D2947F0A805B9060
:1007B200002DE0FEA3E0FFC39478EE9403500FC334
:1007C200EF9459EE94034006D2947F09803C900046
:1007D2002DE0FEA3E0FFC39455EE9403500FC3EF48
:1007E2009427EE94034006D2947F08801D90002D3A
:1007F200E0FEA3E0FFC39423EE9403501CC3EF94E6
:1008020004EE94034013D2947F07120C617F827E20
:1008120000120D4CC294020770C390002DE09403A5
:100822004003020770D2947F06120C617F827E0021
:08083200120D4CC29402077084
:03001B000205C01B
:1005C000C0E0C0F0C083C082C0D075D000C000C001
:1005D00001C002C003C004C005C006C007758DFF7E
:1005E000758B8E20911090002BE004F0C203E06424
:1005F000967069F0806620034CD20390002BE0FFD8
:10060000D3943C4012EFD39464500C900008E0FF68
:1006100025E0F054FE801390002BE0D39464401842
:10062000900008E0FF25E0F04401F0900007E004AE
:10063000F090002CE4F0800690002CE004F0900094
:100640002BE4F0801790002CE004F0E0C394784095
:100650000B900007E4F0D20390000CF0900007E04C
:100660006408705AF0A3E0FF90000CE0FE242FF520
:1006700082E43400F583EFF0EE700F90002FE0B4C9
:10068000C80890000C7401F08034EEB4010F9000A3
:1006900030E0B4E00890000C7402F08021EEC394C6
:1006A00002400EEED39405500890000CE004F08058
:1006B0000DEEB40604D20D800090000CE4F0300D75
:1006C00056C20D900031E0243F704C120A3AC2002D
:1006D00090000AE4F0C2A5C210C205C20C90000648
:1006E000F0900001F0900009E07014D2A2C2A37F44
:1006F0001BFE120D4CC2A2C2A39000097401F0901F
:10070000000BE4F0900004E0FF64036004EFB40227
:10071000069000047401F0D007D006D005D004D0B4
:1007200003D002D001D000D0D0D082D083D0F0D07E
:02073000E032B5
:03000B00020406E6
:10040600C0E0C0F0C083C082C0D075D000C000C0BC
:1004160001C002C003C004C005C006C007758C2415
:10042600758A45900002E004F0E0C3943C406C30CD
:10043600044B90000BE004F0E0940340409000046D
:10044600E0FF6401703790000B7405F0EF640170F3
:100456002CC2A2D2A37F1BFE120D4CC2A2C2A39035
:100466000009E4F0D2A5D2109000047402F09000C6
:1004760006E4F0900001F07F3CFE120D4C90000265
:10048600E4F07F0612095890002DEEF0A3EFF0304D
:100496000503120B90300C03120B4130A53920874F
:1004A60018900001E004F0E0C3940A402AE4F090BA
:1004B6000006E004F0D206801E30871B900006E09E
:1004C6006015900000E004F0E0C394C84009900075
:1004D60006E4F0900001F0900004E0640270489099
:1004E6000006E0FFC39401403EEFB401153006124A
:1004F600D2947F05120C617F967E00120D4CC29439
:10050600C206900006E0C39402401C9000047403E7
:10051600F0D200C206C205C20C900006E4F07F01CC
:10052600FE120D4C120AF2900004E06403703F3094
:100536000010D2947F03120C617F647E00120D4C72
:10054600C294120AF2300010D2947F04120C617F1A
:10055600967E00120D4CC29490000AE0C39464404B
:1005660004E4F0C200120AF290000AE004F030102F
:100576002E208414900003E004F0E0C3940A40089F
:10058600E4F0D20CC205C200208314900005E004FA
:10059600F0E0C3940A4008E4F0D205C20CC200D0D1
:1005A60007D006D005D004D003D002D001D000D0A9
:0A05B600D0D082D083D0F0D0E03224
:100A3A00C2A6D2A790002F74C8F0A374E0F074C1C4
:100A4A00120A9CE4F9E4900037F0742F29F582E445
:100A5A003400F583E030E706C2907F788004C290C4
:100A6A007F507E00120CECD290742F29F582E43468
:100A7A0000F583E025E0F07F327E00120CEC900056
:100A8A0037E004F0E0C3940840C009E9B407B6C2ED
:010A9A00A7B4
:010A9B002238
:100BDF00C2A6D2A790002F74C8F0A374E0F074C21D
:100BEF00120A9CE4F9E4900042F0742F29F582E494
:100BFF003400F583E030E706C2907F788004C2901E
:100C0F007F507E00120C41120C2D900042E004F038
:0D0C1F00E0C3940840D409E9B407CAC2A795
:010C2C0022A5
:100AF200D2A6D2A790002F74C8F0A374E0F0A3741A
:100B0200C3120A9DE4F9E490003AF0742F29F582A9
:100B1200E43400F583E030E706C2907F788004C2B7
:100B2200907F507E00120C41120C2D90003AE0048E
:0E0B3200F0E0C3940840D409E9B407CAC2A792
:010B40002292
:100B4100C2A6D2A790002F74C8F0A374E0F0A374DA
:100B5100C4120A9DE4F9E490003AF0742F29F58259
:100B6100E43400F583E030E706C2907F788004C268
:100B7100907F507E00120C41120C2D90003AE0043F
:0E0B8100F0E0C3940840D409E9B407CAC2A743
:010B8F002243
:100B9000C2A6D2A790002F74C8F0A374E0F0A3748B
:100BA000C5120A9DE4F9E490003AF0742F29F58209
:100BB000E43400F583E030E706C2907F788004C219
:100BC000907F507E00120C41120C2D90003AE004F0
:0E0BD000F0E0C3940840D409E9B407CAC2A7F4
:010BDE0022F4
:100D4C00EF1FAA0670011E4A60107C137D88ED1DF2
:0A0D5C00AA0470011C4A60E880F44C
:010D6600226A
:10095800E4FAEF6405703343F620C2F8C2F9D2FA1C
:1009680043E180C2FCD2FBADF8EDC413135403FD80
:10097800AFE2AB07EB7E007802C333CE33CED8F9B3
:100988007C002DFBEC3EAF03FE22EF64067034437F
:10099800F640D2F8C2F9D2FA43E180C2FCD2FBADEC
:1009A800F8EDC413135403FDAFE27A00AB07EB7EF6
:1009B800007802C333CE33CED8F97C002DFBEC3E51
:0309C800FEAF037C
:0109CB002209
:100D670075DCC0900040E4F0A3741DF0900040E0F3
:0B0D7700FCA3E0FDECF5D1EDF5D92266
:1009CC00EF14602214603714604C2403705F9000A5
:1009DC0040E4F0A3740DF0900040E0FCA3E0FDECCB
:1009EC00F5D2EDF5DA229000407401F0A3E4F0901A
:1009FC000040E0FCA3E0FDECF5D3EDF5DB2290002C
:100A0C0040E4F0A37480F0900040E0FCA3E0FDEC27
:100A1C00F5D5EDF5DD22900040E4F0A37440F090A4
:0E0A2C000040E0FCA3E0FDECF5D6EDF5DE2287
:08000300E4FF1209CC020D67B5
:0C000E00758921758C24758A45D28C22DE
:100D0C00E4FDFCC3ED9FEC9E5015E4FBFA0BBB001D
:0F0D1C00010ABA01F8BBF4F50DBD00010C80E42B
:010D2B0022A5
:100D2C00E4FDFCC3ED9FEC9E5015E4FBFA0BBB00FD
:0F0D3C00010AEB64024A70F50DBD00010C80E462
:010D4B002285
:050C610090003AEFF0E5
:100C6600C2A07F287E00120D0CD2A0120D0CE4F952
:100C760090003AE0FFE9C39F5011D2A17F5E7E014A
:0B0C8600120D2CC2A1120D2C0980E5FC
:010C91002240
:100D8200C294C2A1C2A07FE87E03120D2CD2A0128F
:050D92000D2CD294229B
:10001E00000102030405060708090A0B0C0D0E0F5A
:10002E00101112131415161718191A1B1C1D1E1F4A
:10003E00202122232425262728292A2B2C2D2E2F3A
:10004E003031000102030405060708090A0B0C0DE6
:10005E000E0F101112131415161718191A1B1C1D3A
:10006E001E1F202122232425262728292A2B2C2D2A
:10007E002E2F3031000102030405060708090A0B72
:10008E000C0D0E0F101112131415161718191A1B2A
:10009E001C1D1E1F202122232425262728292A2B1A
:1000AE002C2D2E2F303100010203040506070809FE
:1000BE000A0B0C0D0E0F101112131415161718191A
:1000CE001A1B1C1D1E1F202122232425262728290A
:1000DE002A2B2C2D2E2F303100010203040506078A
:1000EE0008090A0B0C0D0E0F10111213141516170A
:1000FE0018191A1B1C1D1E1F2021222324252627FA
:10010E0028292A2B2C2D2E2F303100010203040515
:10011E00060708090A0B0C0D0E0F101112131415F9
:10012E00161718191A1B1C1D1E1F202122232425E9
:10013E00262728292A2B2C2D2E2F303100010203A1
:10014E000405060708090A0B0C0D0E0F10111213E9
:10015E001415161718191A1B1C1D1E1F20212223D9
:10016E002425262728292A2B2C2D2E2F303100012D
:10017E0002030405060708090A0B0C0D0E0F1011D9
:10018E0012131415161718191A1B1C1D1E1F2021C9
:10019E0022232425262728292A2B2C2D2E2F3031B9
:1001AE00000102030405060708090A0B0C0D0E0FC9
:1001BE00101112131415161718191A1B1C1D1E1FB9
:1001CE00202122232425262728292A2B2C2D2E2FA9
:1001DE003031000102030405060708090A0B0C0D55
:1001EE000E0F101112131415161718191A1B1C1DA9
:1001FE001E1F202122232425262728292A2B2C2D99
:10020E002E2F3031000102030405060708090A0BE0
:10021E000C0D0E0F101112131415161718191A1B98
:10022E001C1D1E1F202122232425262728292A2B88
:10023E002C2D2E2F3031000102030405060708096C
:10024E000A0B0C0D0E0F1011121314151617181988
:10025E001A1B1C1D1E1F2021222324252627282978
:10026E002A2B2C2D2E2F30310001020304050607F8
:10027E0008090A0B0C0D0E0F101112131415161778
:10028E0018191A1B1C1D1E1F202122232425262768
:10029E0028292A2B2C2D2E2F303100010203040584
:1002AE00060708090A0B0C0D0E0F10111213141568
:1002BE00161718191A1B1C1D1E1F20212223242558
:1002CE00262728292A2B2C2D2E2F30310001020310
:1002DE000405060708090A0B0C0D0E0F1011121358
:1002EE001415161718191A1B1C1D1E1F2021222348
:1002FE002425262728292A2B2C2D2E2F303100019C
:10030E0002030405060708090A0B0C0D0E0F101147
:10031E0012131415161718191A1B1C1D1E1F202137
:10032E0022232425262728292A2B2C2D2E2F303127
:10033E00000102030405060708090A0B0C0D0E0F37
:10034E00101112131415161718191A1B1C1D1E1F27
:10035E00202122232425262728292A2B2C2D2E2F17
:10036E003031000102030405060708090A0B0C0DC3
:10037E000E0F101112131415161718191A1B1C1D17
:10038E001E1F202122232425262728292A2B2C2D07
:10039E002E2F3031000102030405060708090A0B4F
:1003AE000C0D0E0F101112131415161718191A1B07
:1003BE001C1D1E1F202122232425262728292A2BF7
:1003CE002C2D2E2F303100010203040506070809DB
:1003DE000A0B0C0D0E0F10111213141516171819F7
:1003EE001A1B1C1D1E1F20212223242526272829E7
:0803FE002A2B2C2D2E2F30318B
:100D970053A2BF75985A758920758BC6758DC6D2B3
:020DA7008E229A
:080DB5008F993099FDC29922CB
:100CC10090003DEBF0A3EAF0A3E9F0AF051DEF6062
:100CD1001990003DE0FBA3E475F001120CABA9F003
:0B0CE100FA120C92FF120DB580E12208
:0C0DA900758911758DFF758B8ED28E221E
:1008D800020732E493A3F8E493A34003F68001F2FD
:1008E80008DFF48029E493A3F85407240CC8C33321
:1008F800C4540F4420C8834004F456800146F6DFF0
:10090800E4800B010204081020408090083AE47E3D
:10091800019360BCA3FF543F30E509541FFEE493E4
:10092800A360010ECF54C025E060A840B8E493A3AB
:10093800FAE493A3F8E493A3C8C582C8CAC583CAD6
:10094800F0A3C8C582C8CAC583CADFE9DEE780BE8E
:0108CB00002C
:100C9200BB010689828A83E0225002E722BBFE0260
:090CA200E32289828A83E4932293
:100CAB00A3F8E0C5F025F0F0E582158270021583FC
:060CBB00E0C838F0E82259
:00000001FF
