:03000000020ACD24
:0C0ACD00787FE4F6D8FD758124020B143C
:100970004100100042001800004100000041000149
:1009800000410002004100030041000600C1204177
:1009900000070041000D0041000501C101C10CC16B
:1009A00006C115C117C119C11BC105C121C10B4128
:1009B000002300C11C41000900C10DC11E470024D5
:1009C00000000000000000470011000000000000CF
:1009D000004200210000C11DC10841001F0041006C
:1009E0000B0041000800C1874100200041000C00BD
:1009F000C10FC100C102C103C104C11FC109C1109F
:100A000041001A00C111C11242001B0000C113C1F4
:100A100014C116C11841001D00C11A41001E00C1B9
:100A20000A42000E000041000A00C10E410004000D
:100E7A00D290742429F582E43400F583E025E0F069
:040E8A007F327E0035
:100E8E00E4FDFCC3ED9FEC9E5015E4FBFA0BBB009A
:0F0E9E00010AEB64134A70F50DBD00010C80E4EE
:010EAD002222
:100F3900E4FDFCC3ED9FEC9E5015E4FBFA0BBB00EE
:0F0F4900010AEB641A4A70F50DBD00010C80E43B
:010F58002276
:100E2F0090003374AAF0E4900032F0E4F9900033AC
:100E3F00E0C2907F507E00120E8ED290900033E071
:100E4F0025E0F07F967E00120E8E09E9B408DE9041
:100E5F00003374AAF07F507E00120E8E900032E0A5
:0A0E6F0004F0E0C3940340C3D290E6
:010E79002256
:10040600D2A5120FCF12000E120FF6C294D284D2CA
:1004160083D2A9D2ABD2BBD2AFD290D282C2921231
:100426000003C2A6C2A2D2A37F327E00120F99C2D7
:10043600A2C2A3E490000CF0D208C2A7D22130A435
:1004460047200E447F1E7E00120F9930A478120AB0
:1004560031900004E07018D2947F08120EAE7F50DF
:100466007E00120F99C2949000047401F08015D298
:10047600947F07120EAE7FF07E00120F99C294E4AD
:10048600900004F0D20E803E20A43B300E387F1E32
:100496007E00120F9920A42E120A31C3900021E08B
:1004A60094035010D2947F0A120EAE7F827E001201
:1004B6000F99C294D2947F09120EAE7F827E0012EB
:1004C6000F99C294C20E30822C7F647E00120F995F
:1004D600208210D2947F0E120EAE7F827E00120F03
:1004E60099C294C3900022E094A3900021E0940363
:1004F6004003120DDF300F0F7F06120B59900021BB
:10050600EEF0A3EFF0C20F301F1D90000CE0B40117
:1005160014C2A2D2A37F327E00120F99C2A2C2A336
:10052600E490000CF0C21F30091C90000CE070141F
:10053600D2A2C2A37F32FE120F99C2A2C2A390001A
:100546000C7401F0C20930111ED2947F12120EAE45
:100556007F647E00120F997F10120EAE7F647E00BC
:10056600120F99C294C2112012030205F6C390001D
:100576001CE0940490001BE094005074208417D271
:10058600947F11120EAE7F507E00120F997F1212C9
:100596000EAE7F64802F208317D2947F0F120EAE8B
:1005A6007F967E00120F997F10120EAE7F64801523
:1005B600D2947F16120EAE7FB47E00120F997F176B
:1005C600120EAE7F507E00120F99C29490001CE06E
:1005D60004F0700690001BE004F090001BE070042D
:1005E600A3E06404700A90001BF0A3F0C212C20AD2
:1005F60030181F90001DE0C394015016D2947F0B53
:10060600120EAE7F967E00120F99C29490001DE0E6
:1006160004F0201A0302044490001EE0C394014033
:1006260003020444D2947F0C120EAE7F507E001259
:100636000F997F0D120EAE7F507E00120F99C29455
:0906460090001EE004F0020444DF
:03001B0002080DCB
:10080D00C0E0C0F0C083C082C0D075D000C000C0B1
:10081D0001C002C003C004C005C006C007758DFF2E
:10082D00758B8E20911090001FE004F0C207E064DC
:10083D00967069F0806620074CD20790001FE0FF8C
:10084D00D3943C4012EFD39464500C90000BE0FF16
:10085D0025E0F054FE801390001FE0D394644018FF
:10086D0090000BE0FF25E0F04401F0900008E0045B
:10087D00F0900020E4F08006900020E004F090005D
:10088D001FE4F08017900020E004F0E0C39478405E
:10089D000B900008E4F0D207900010F0900008E0F3
:1008AD0064087048F090000BE0FF900010E0FE240B
:1008BD0011F582E43400F583EFF0EE700F90001126
:1008CD00E0B4C8089000107401F08020EEB4010F60
:1008DD00900012E0B4E0089000107402F0800DEE6C
:1008ED00B40204D21D8000900010E4F0301D59C2F6
:1008FD001D900013E0243F704FC20A120C3BD2181A
:10090D00C21A90001EE4F0C201C2A5C221C20BC2E0
:10091D001CD209900007F0900001F090000EF0A39A
:10092D00F090000AF0C210C211C21290001BF0A389
:10093D00F090000DF0900005E0FF64036004EFB44B
:10094D0002069000057401F0D007D006D005D00442
:10095D00D003D002D001D000D0D0D082D083D0F03F
:03096D00D0E032A5
:03000B0002064F9B
:10064F00C0E0C0F0C083C082C0D075D000C000C071
:10065F0001C002C003C004C005C006C007758C24CA
:10066F00758A45900002E004F0E0C394285003021D
:10067F00070530083B90000DE004F0E09404403093
:10068F00900005E0FFB4012890000D7405F0EFB461
:10069F00011ED21FD21AC21890001DE4F0D2A5D2AB
:1006AF00219000057402F0900007E4F0900001F033
:1006BF00900002E4F0D20F300B12900023E0C394AD
:1006CF00055009120D8F900023E004F0301C12909A
:1006DF000009E0C394055009120D3F900009E00492
:1006EF00F0300A12C390001CE0940490001BE094B9
:1006FF00005003120CEF30A55C30871A900001E018
:10070F0004F0E0C3940A400EE4F0900007E004F018
:10071F0090000A7401F090000AE0B4013890000FC5
:10072F00E004F0700690000EE004F0C390000FE0BC
:10073F0094F090000EE09400401B900007E4F090BE
:10074F000001F090000EF0A3F090000AF0C210909C
:10075F00001AF0C211900007E06401702A90001A8D
:10076F00E0C39401503A201237308334308431D2B1
:10077F00947F11120EAE7F507E00120F99C294908B
:10078F00001AE004F0801990000EE07004A3E064FA
:10079F0064700D30870AD21290001BF0A3F0D20ABA
:1007AF00302140208412900003E004F0E0B40A13DB
:1007BF00D21CC20BC201800BC21C900009E4F09046
:1007CF000003F0208312900006E004F0E0B40A1357
:1007DF00D20BC21CC201800BC20B900023E4F0901D
:1007EF000006F0D007D006D005D004D003D002D039
:0E07FF0001D000D0D0D082D083D0F0D0E03234
:100C3B00C2A6D2A790002474C8F0A374E0F0A374EA
:100C4B00C1F0120E2FE4F9E490002EF0742429F574
:100C5B0082E43400F583E030E706C2907F788004AD
:100C6B00C2907F507E00120F39D290742429F582E6
:100C7B00E43400F583E025E0F07F327E00120F397B
:100C8B0090002EE004F0E0C3940840C009E9B403DF
:030C9B00B6C2A737
:010C9E002233
:100C9F00C2A6D2A790002474C8F0A374E0F0A37486
:100CAF00C2F0120E2FE4F9E4900039F0742429F504
:100CBF0082E43400F583E030E706C2907F78800449
:100CCF00C2907F507E00120E8E120E7A900039E085
:0F0CDF0004F0E0C3940840D409E9B403CAC2A7E3
:010CEE0022E3
:100CEF00D2A6D2A790002474C8F0A374E0F0A37426
:100CFF00C3F0120E2FE4F9E4900031F0742429F5BB
:100D0F0082E43400F583E030E706C2907F788004F8
:100D1F00C2907F507E00120E8E120E7A900031E03C
:0F0D2F0004F0E0C3940840D409E9B403CAC2A792
:010D3E002292
:100D3F00C2A6D2A790002474C8F0A374E0F0A374E5
:100D4F00C4F0120E2FE4F9E4900031F0742429F569
:100D5F0082E43400F583E030E706C2907F788004A8
:100D6F00C2907F507E00120E8E120E7A900031E0EC
:0F0D7F0004F0E0C3940840D409E9B403CAC2A742
:010D8E002242
:100D8F00C2A6D2A790002474C8F0A374E0F0A37495
:100D9F00C5F0120E2FE4F9E4900031F0742429F518
:100DAF0082E43400F583E030E706C2907F78800458
:100DBF00C2907F507E00120E8E120E7A900031E09C
:0F0DCF0004F0E0C3940840D409E9B403CAC2A7F2
:010DDE0022F2
:100DDF00C2A6D2A790002474C8F0A374E0F0A37445
:100DEF00C6F0120E2FE4F9E490002BF0742429F5CD
:100DFF0082E43400F583E030E706C2907F78800408
:100E0F00C2907F507E00120E8E120E7A90002BE051
:0F0E1F0004F0E0C3940840D409E9B403CAC2A7A1
:010E2E0022A1
:100A3100C3900022E094A3900021E094034006D2E9
:100A4100947F06807A900021E0FEA3E0FFC394A08A
:100A5100EE9403500FC3EF947CEE94034006D294BE
:100A61007F05805B900021E0FEA3E0FFC39478EE58
:100A71009403500FC3EF9459EE94034006D2947F30
:100A810004803C900021E0FEA3E0FFC39455EE9466
:100A910003500FC3EF9427EE94034006D2947F03D3
:100AA100801D900021E0FEA3E0FFC39423EE940398
:100AB1005019C3EF9404EE94034010D2947F0212B4
:0C0AC1000EAE7F827E00120F99C29422BC
:100F9900EF1FAA0670011E4A60107C137D88ED1DA3
:0A0FA900AA0470011C4A60E880F4FD
:010FB300221B
:100B5900E4FAEF6405703343F620C2F8C2F9D2FA19
:100B690043E180C2FCD2FBADF8EDC413135403FD7D
:100B7900AFE2AB07EB7E007802C333CE33CED8F9B0
:100B89007C002DFBEC3EAF03FE22EF64067034437C
:100B9900F640D2F8C2F9D2FA43E180C2FCD2FBADE9
:100BA900F8EDC413135403FDAFE27A00AB07EB7EF3
:100BB900007802C333CE33CED8F97C002DFBEC3E4E
:030BC900FEAF0379
:010BCC002206
:100FB40075DCC0900037E4F0A3741DF0900037E0B6
:0B0FC400FCA3E0FDECF5D1EDF5D92217
:100BCD00EF14602214603714604C2403705F9000A2
:100BDD0037E4F0A3740DF0900037E0FCA3E0FDECDA
:100BED00F5D2EDF5DA229000377401F0A3E4F09020
:100BFD000037E0FCA3E0FDECF5D3EDF5DB22900032
:100C0D0037E4F0A37480F0900037E0FCA3E0FDEC36
:100C1D00F5D5EDF5DD22900037E4F0A37440F090AA
:0E0C2D000037E0FCA3E0FDECF5D6EDF5DE228D
:08000300E4FF120BCD020FB463
:0C000E00758921758C24758A45D28C22DE
:100F5900E4FDFCC3ED9FEC9E5015E4FBFA0BBB00CE
:0F0F6900010ABA01F8BBF4F50DBD00010C80E4DC
:010F78002256
:100F7900E4FDFCC3ED9FEC9E5015E4FBFA0BBB00AE
:0F0F8900010AEB64024A70F50DBD00010C80E413
:010F98002236
:050EAE00900031EFF09F
:100EB300C2A07F287E00120F59D2A0120F59E4F965
:100EC300900031E0FFE9C39F5011D2A17F5E7E0104
:0B0ED300120F79C2A1120F790980E50F
:010EDE0022F1
:100FCF00C294C2A1C2A07FE87E03120F79D2A012F1
:050FDF000F79D29422FD
:10001E00000102030405060708090A0B0C0D0E0F5A
:10002E00101112131415161718191A1B1C1D1E1F4A
:10003E00202122232425262728292A2B2C2D2E2F3A
:10004E003031000102030405060708090A0B0C0DE6
:10005E000E0F101112131415161718191A1B1C1D3A
:10006E001E1F202122232425262728292A2B2C2D2A
:10007E002E2F3031000102030405060708090A0B72
:10008E000C0D0E0F101112131415161718191A1B2A
:10009E001C1D1E1F202122232425262728292A2B1A
:1000AE002C2D2E2F303100010203040506070809FE
:1000BE000A0B0C0D0E0F101112131415161718191A
:1000CE001A1B1C1D1E1F202122232425262728290A
:1000DE002A2B2C2D2E2F303100010203040506078A
:1000EE0008090A0B0C0D0E0F10111213141516170A
:1000FE0018191A1B1C1D1E1F2021222324252627FA
:10010E0028292A2B2C2D2E2F303100010203040515
:10011E00060708090A0B0C0D0E0F101112131415F9
:10012E00161718191A1B1C1D1E1F202122232425E9
:10013E00262728292A2B2C2D2E2F303100010203A1
:10014E000405060708090A0B0C0D0E0F10111213E9
:10015E001415161718191A1B1C1D1E1F20212223D9
:10016E002425262728292A2B2C2D2E2F303100012D
:10017E0002030405060708090A0B0C0D0E0F1011D9
:10018E0012131415161718191A1B1C1D1E1F2021C9
:10019E0022232425262728292A2B2C2D2E2F3031B9
:1001AE00000102030405060708090A0B0C0D0E0FC9
:1001BE00101112131415161718191A1B1C1D1E1FB9
:1001CE00202122232425262728292A2B2C2D2E2FA9
:1001DE003031000102030405060708090A0B0C0D55
:1001EE000E0F101112131415161718191A1B1C1DA9
:1001FE001E1F202122232425262728292A2B2C2D99
:10020E002E2F3031000102030405060708090A0BE0
:10021E000C0D0E0F101112131415161718191A1B98
:10022E001C1D1E1F202122232425262728292A2B88
:10023E002C2D2E2F3031000102030405060708096C
:10024E000A0B0C0D0E0F1011121314151617181988
:10025E001A1B1C1D1E1F2021222324252627282978
:10026E002A2B2C2D2E2F30310001020304050607F8
:10027E0008090A0B0C0D0E0F101112131415161778
:10028E0018191A1B1C1D1E1F202122232425262768
:10029E0028292A2B2C2D2E2F303100010203040584
:1002AE00060708090A0B0C0D0E0F10111213141568
:1002BE00161718191A1B1C1D1E1F20212223242558
:1002CE00262728292A2B2C2D2E2F30310001020310
:1002DE000405060708090A0B0C0D0E0F1011121358
:1002EE001415161718191A1B1C1D1E1F2021222348
:1002FE002425262728292A2B2C2D2E2F303100019C
:10030E0002030405060708090A0B0C0D0E0F101147
:10031E0012131415161718191A1B1C1D1E1F202137
:10032E0022232425262728292A2B2C2D2E2F303127
:10033E00000102030405060708090A0B0C0D0E0F37
:10034E00101112131415161718191A1B1C1D1E1F27
:10035E00202122232425262728292A2B2C2D2E2F17
:10036E003031000102030405060708090A0B0C0DC3
:10037E000E0F101112131415161718191A1B1C1D17
:10038E001E1F202122232425262728292A2B2C2D07
:10039E002E2F3031000102030405060708090A0B4F
:1003AE000C0D0E0F101112131415161718191A1B07
:1003BE001C1D1E1F202122232425262728292A2BF7
:1003CE002C2D2E2F303100010203040506070809DB
:1003DE000A0B0C0D0E0F10111213141516171819F7
:1003EE001A1B1C1D1E1F20212223242526272829E7
:0803FE002A2B2C2D2E2F30318B
:100FE40053A2BF75985A758920758BC6758DC6D264
:020FF4008E224B
:081002008F993099FDC299227B
:100F0E00900034EBF0A3EAF0A3E9F0AF051DEF601B
:100F1E0019900034E0FBA3E475F001120EF8A9F06D
:0B0F2E00FA120EDFFF12100280E12219
:0C0FF600758911758DFF758B8ED28E22CF
:100AD900020406E493A3F8E493A34003F68001F229
:100AE90008DFF48029E493A3F85407240CC8C3331E
:100AF900C4540F4420C8834004F456800146F6DFED
:100B0900E4800B0102040810204080900970E47E03
:100B1900019360BCA3FF543F30E509541FFEE493E1
:100B2900A360010ECF54C025E060A840B8E493A3A8
:100B3900FAE493A3F8E493A3C8C582C8CAC583CAD3
:100B4900F0A3C8C582C8CAC583CADFE9DEE780BE8B
:010A300000C5
:100EDF00BB010689828A83E0225002E722BBFE0211
:090EEF00E32289828A83E4932244
:100EF800A3F8E0C5F025F0F0E582158270021583AD
:060F0800E0C838F0E82209
:00000001FF
