:03000000020A6889
:0C0A6800787FE4F6D8FD758124020AAF07
:1009150041000E0042000F000041000000410001AF
:1009250000410002004100030041000600C11F41D3
:1009350000070041000D0041000501C101C10B4246
:10094500000B0000C106C114C116C118C11AC105AA
:10095500C120C10AC11BC10CC11D5C0011000000F2
:100965000000000000000000000000000000000082
:1009750000000000000000000047003100000000FA
:1009850000000042002F0000C11CC10841002D00DD
:100995004100090041000800C18741002E004100C7
:1009A5000A00C10EC100C102C103C104C11EC109B3
:1009B500C10FC110C111C112C113C115C117C11990
:0609C500C10D4100040019
:100E1800D290743129F582E43400F583E025E0F0BE
:040E28007F327E0097
:100E2C00E4FDFCC3ED9FEC9E5015E4FBFA0BBB00FC
:0F0E3C00010AEB64134A70F50DBD00010C80E450
:010E4B002284
:100ED700E4FDFCC3ED9FEC9E5015E4FBFA0BBB0051
:0F0EE700010AEB641A4A70F50DBD00010C80E49E
:010EF60022D9
:0B0C3800A3F0E4A3F0A3F0A3F0A3F0EE
:100C430090003D74AAF0E490003CF0E4F990003D7C
:100C5300E0C2907F507E00120E2CD29090003DE0B7
:100C630025E0F07F967E00120E2C09E9B408DE9091
:100C7300003D74AAF07F507E00120E2C90003CE0E1
:0A0C830004F0E0C3940340C3D290D4
:010C8D002244
:10040600D2A5120F6D12000E120F94C294D284D28E
:1004160083D2A9D2ABD2BBD2AFD290D282D2A4C25F
:1004260092120003C2A6C2A2D2A37F1B7E00120FA5
:1004360037C2A2C2A3E490000AF0D208C2A7D22013
:1004460030A423200D207F1E7E00120F3730A454C7
:100456001209CC900004E070047F0780027F081226
:100466000E4CD20D803E20A43B300D387F1E7E0000
:10047600120F3720A42E1209CCC390002FE094034C
:100486005010D2947F0A120E4C7F827E00120F37D4
:10049600C294D2947F09120E4C7F827E00120F37CF
:1004A600C294C20D20822C7F647E00120F372082F8
:1004B60010D2947F0E120E4C7F827E00120F37C22E
:1004C60094C3900030E094A390002FE0940340037F
:1004D600120D7B300E0F7F06120AF490002FEEF0FD
:1004E600A3EFF0C20E300005120BD6C20030020593
:1004F600120C8EC202300305120CDDC20330040555
:10050600120D2CC204301E1D90000AE0B40114C264
:10051600A2D2A37F1B7E00120F37C2A2C2A3E49011
:10052600000AF0C21E30091C90000AE07014D2A224
:10053600C2A37F1BFE120F37C2A2C2A390000A7489
:1005460001F0C209300F12D2947F11120E4C7F5067
:100556007E00120F37C294C20F30107020841ED254
:10056600947F11120E4C7F647E00120F377F121299
:100576000E4C7F647E00120F377F13801320831E7C
:10058600D2947F0F120E4C7F647E00120F377F10BD
:10059600120E4C7F647E00120F37C2948029300100
:1005A60010D2947F16120E4C7F647E00120F37C253
:1005B60094120C8E300110D2947F17120E4C7F507D
:1005C6007E00120F37C294120C8EC21030111ED24A
:1005D600947F11120E4C7F507E00120F377F10123F
:1005E6000E4C7F507E00120F37C294C21130112A72
:1005F600D2947F12120E4C7F787E00120F377F1333
:10060600120E4C7F787E00120F377F14120E4C7F2D
:10061600787E00120F37C294C211301712D2947F1F
:100626000B120E4C7F967E00120F37C294C2172013
:100636001903020446D2947F0C120E4C7F967E005C
:10064600120F377F0D120E4C7F967E00120F37C2A7
:0606560094C219020446E3
:03001B000207D702
:1007D700C0E0C083C082C0D075D000C006C0077516
:1007E7008DFF758B8E20911090002DE004F0C207CD
:1007F700E064967067F0806420074AD20790002D66
:10080700E0FFD3943C4011EFD39464500B90000960
:10081700E025E0F054FE801290002DE0D394644070
:1008270017900009E025E0F04401F0900008E0048B
:10083700F090002EE4F0800690002EE004F0900087
:100847002DE4F0801790002EE004F0E0C394784088
:100857000B900008E4F0D20790000EF0900008E03B
:100867006408705AF0A3E0FF90000EE0FE2431F513
:1008770082E43400F583EFF0EE700F900031E0B4BE
:10088700C80890000E7401F08034EEB4010F900098
:1008970032E0B4E00890000E7402F08021EEC394B9
:1008A70002400EEED39405500890000EE004F0804D
:1008B7000DEEB40604D21C800090000EE4F0301C4C
:1008C70040C21C900033E0243F7036D200D217C2DA
:1008D7000190000BE4F0A3F0C2A5C220C20AC21B1C
:1008E700900007F0900001F0D20990000DF0900001
:1008F70005E0FF64036004EFB4020690000574018D
:0E090700F0D007D006D0D0D082D083D0E0321E
:03000B0002065C8E
:10065C00C0E0C083C082C0D075D000C007758C24A8
:10066C00758A45900002E004F0E0C3943C404830A9
:10067C00083490000DE004F0E0940340299000054C
:10068C00E0FFB4012190000D7405F0EFB40117D216
:10069C001ED219D2A5D2209000057402F09000074A
:1006AC00E4F0900001F0900002E4F0D20E300A0267
:1006BC00D204301B02D20330A544208723900001C2
:1006CC00E004F0E0C39419400AE4F0900007E00461
:1006DC00F0D20B900000E0C394C84022E4F0801EDE
:1006EC0030871B900007E06015900000E004F0E0FC
:1006FC00C394644009900007E4F0900001F090006E
:10070C0005E064027056900007E0FFC39401404C72
:10071C00EFB4010D300B0A308407308304D20FC2C2
:10072C000BEFB4020D300B0A308407308304D21166
:10073C00C20BEFB4030D300B0A308407308304D2A4
:10074C0012C20BEFC3940440139000057403F0D253
:10075C0001C20BC20AC21B900007E4F0900005E036
:10076C00B4032ED210900003E4F0900006F0900039
:10077C000CE004F0700690000BE004F0C390000C49
:10078C00E094E890000BE094034006E4F0A3F0C280
:10079C000130202C208412900003E004F0E0C3947C
:1007AC00C84006D21BC20AC201208314900006E086
:1007BC0004F0E0C394C84008E4F0D20AC21BC201A2
:0B07CC00D007D0D0D082D083D0E03224
:100BD600C2A6D2A790003174C8F0A374E0F074C125
:100BE600120C38E4F9E490003BF0743129F582E404
:100BF6003400F583E030E706C2907F788004C29027
:100C06007F507E00120ED7D290743129F582E434DB
:100C160000F583E025E0F07F327E00120ED79000CB
:100C26003BE004F0E0C3940840C009E9B407B6C24B
:010C3600A716
:010C3700229A
:100DCA00C2A6D2A790003174C8F0A374E0F074C22E
:100DDA00120C38E4F9E4900040F0743129F582E409
:100DEA003400F583E030E706C2907F788004C29031
:100DFA007F507E00120E2C120E18900040E004F074
:0D0E0A00E0C3940840D409E9B407CAC2A7A8
:010E170022B8
:100C8E00D2A6D2A790003174C8F0A374E0F0A3747A
:100C9E00C3120C39E4F9E490003BF0743129F5826B
:100CAE00E43400F583E030E706C2907F788004C21A
:100CBE00907F507E00120E2C120E1890003BE00416
:0E0CCE00F0E0C3940840D409E9B407CAC2A7F5
:010CDC0022F5
:100CDD00C2A6D2A790003174C8F0A374E0F0A3743B
:100CED00C4120C39E4F9E490003BF0743129F5821B
:100CFD00E43400F583E030E706C2907F788004C2CB
:100D0D00907F507E00120E2C120E1890003BE004C6
:0E0D1D00F0E0C3940840D409E9B407CAC2A7A5
:010D2B0022A5
:100D2C00C2A6D2A790003174C8F0A374E0F0A374EB
:100D3C00C5120C39E4F9E490003BF0743129F582CA
:100D4C00E43400F583E030E706C2907F788004C27B
:100D5C00907F507E00120E2C120E1890003BE00477
:0E0D6C00F0E0C3940840D409E9B407CAC2A756
:010D7A002256
:100D7B00C2A6D2A790003174C8F0A374E0F0A3749C
:100D8B00C6120C39E4F9E490003BF0743129F5827A
:100D9B00E43400F583E030E706C2907F788004C22C
:100DAB00907F507E00120E2C120E1890003BE00428
:0E0DBB00F0E0C3940840D409E9B407CAC2A707
:010DC9002207
:1009CC00C3900030E094A390002FE094034006D233
:1009DC00947F06807A90002FE0FEA3E0FFC394A0E2
:1009EC00EE9403500FC3EF947CEE94034006D29424
:1009FC007F05805B90002FE0FEA3E0FFC39478EEB0
:100A0C009403500FC3EF9459EE94034006D2947F95
:100A1C0004803C90002FE0FEA3E0FFC39455EE94BD
:100A2C0003500FC3EF9427EE94034006D2947F0338
:100A3C00801D90002FE0FEA3E0FFC39423EE9403EF
:100A4C005019C3EF9404EE94034010D2947F021219
:0C0A5C000E4C7F827E00120F37C29422E5
:100F3700EF1FAA0670011E4A60107C137D88ED1D05
:0A0F4700AA0470011C4A60E880F45F
:010F5100227D
:100AF400E4FAEF6405703343F620C2F8C2F9D2FA7F
:100B040043E180C2FCD2FBADF8EDC413135403FDE2
:100B1400AFE2AB07EB7E007802C333CE33CED8F915
:100B24007C002DFBEC3EAF03FE22EF6406703443E1
:100B3400F640D2F8C2F9D2FA43E180C2FCD2FBAD4E
:100B4400F8EDC413135403FDAFE27A00AB07EB7E58
:100B5400007802C333CE33CED8F97C002DFBEC3EB3
:030B6400FEAF03DE
:010B6700226B
:100F520075DCC090003EE4F0A3741DF090003EE00A
:0B0F6200FCA3E0FDECF5D1EDF5D92279
:100B6800EF14602214603714604C2403705F900007
:100B78003EE4F0A3740DF090003EE0FCA3E0FDEC31
:100B8800F5D2EDF5DA2290003E7401F0A3E4F0907E
:100B9800003EE0FCA3E0FDECF5D3EDF5DB22900090
:100BA8003EE4F0A37480F090003EE0FCA3E0FDEC8E
:100BB800F5D5EDF5DD2290003EE4F0A37440F09009
:0E0BC800003EE0FCA3E0FDECF5D6EDF5DE22EC
:08000300E4FF120B68020F522A
:0C000E00758921758C24758A45D28C22DE
:100EF700E4FDFCC3ED9FEC9E5015E4FBFA0BBB0031
:0F0F0700010ABA01F8BBF4F50DBD00010C80E43E
:010F160022B8
:100F1700E4FDFCC3ED9FEC9E5015E4FBFA0BBB0010
:0F0F2700010AEB64024A70F50DBD00010C80E475
:010F36002298
:050E4C0090003BEFF0F7
:100E5100C2A07F287E00120EF7D2A0120EF7E4F98D
:100E610090003BE0FFE9C39F5011D2A17F5E7E015C
:0B0E7100120F17C2A1120F170980E535
:010E7C002253
:100F6D00C294C2A1C2A07FE87E03120F17D2A012B5
:050F7D000F17D29422C1
:10001E00000102030405060708090A0B0C0D0E0F5A
:10002E00101112131415161718191A1B1C1D1E1F4A
:10003E00202122232425262728292A2B2C2D2E2F3A
:10004E003031000102030405060708090A0B0C0DE6
:10005E000E0F101112131415161718191A1B1C1D3A
:10006E001E1F202122232425262728292A2B2C2D2A
:10007E002E2F3031000102030405060708090A0B72
:10008E000C0D0E0F101112131415161718191A1B2A
:10009E001C1D1E1F202122232425262728292A2B1A
:1000AE002C2D2E2F303100010203040506070809FE
:1000BE000A0B0C0D0E0F101112131415161718191A
:1000CE001A1B1C1D1E1F202122232425262728290A
:1000DE002A2B2C2D2E2F303100010203040506078A
:1000EE0008090A0B0C0D0E0F10111213141516170A
:1000FE0018191A1B1C1D1E1F2021222324252627FA
:10010E0028292A2B2C2D2E2F303100010203040515
:10011E00060708090A0B0C0D0E0F101112131415F9
:10012E00161718191A1B1C1D1E1F202122232425E9
:10013E00262728292A2B2C2D2E2F303100010203A1
:10014E000405060708090A0B0C0D0E0F10111213E9
:10015E001415161718191A1B1C1D1E1F20212223D9
:10016E002425262728292A2B2C2D2E2F303100012D
:10017E0002030405060708090A0B0C0D0E0F1011D9
:10018E0012131415161718191A1B1C1D1E1F2021C9
:10019E0022232425262728292A2B2C2D2E2F3031B9
:1001AE00000102030405060708090A0B0C0D0E0FC9
:1001BE00101112131415161718191A1B1C1D1E1FB9
:1001CE00202122232425262728292A2B2C2D2E2FA9
:1001DE003031000102030405060708090A0B0C0D55
:1001EE000E0F101112131415161718191A1B1C1DA9
:1001FE001E1F202122232425262728292A2B2C2D99
:10020E002E2F3031000102030405060708090A0BE0
:10021E000C0D0E0F101112131415161718191A1B98
:10022E001C1D1E1F202122232425262728292A2B88
:10023E002C2D2E2F3031000102030405060708096C
:10024E000A0B0C0D0E0F1011121314151617181988
:10025E001A1B1C1D1E1F2021222324252627282978
:10026E002A2B2C2D2E2F30310001020304050607F8
:10027E0008090A0B0C0D0E0F101112131415161778
:10028E0018191A1B1C1D1E1F202122232425262768
:10029E0028292A2B2C2D2E2F303100010203040584
:1002AE00060708090A0B0C0D0E0F10111213141568
:1002BE00161718191A1B1C1D1E1F20212223242558
:1002CE00262728292A2B2C2D2E2F30310001020310
:1002DE000405060708090A0B0C0D0E0F1011121358
:1002EE001415161718191A1B1C1D1E1F2021222348
:1002FE002425262728292A2B2C2D2E2F303100019C
:10030E0002030405060708090A0B0C0D0E0F101147
:10031E0012131415161718191A1B1C1D1E1F202137
:10032E0022232425262728292A2B2C2D2E2F303127
:10033E00000102030405060708090A0B0C0D0E0F37
:10034E00101112131415161718191A1B1C1D1E1F27
:10035E00202122232425262728292A2B2C2D2E2F17
:10036E003031000102030405060708090A0B0C0DC3
:10037E000E0F101112131415161718191A1B1C1D17
:10038E001E1F202122232425262728292A2B2C2D07
:10039E002E2F3031000102030405060708090A0B4F
:1003AE000C0D0E0F101112131415161718191A1B07
:1003BE001C1D1E1F202122232425262728292A2BF7
:1003CE002C2D2E2F303100010203040506070809DB
:1003DE000A0B0C0D0E0F10111213141516171819F7
:1003EE001A1B1C1D1E1F20212223242526272829E7
:0803FE002A2B2C2D2E2F30318B
:100F820053A2BF75985A758920758BC6758DC6D2C6
:020F92008E22AD
:080FA0008F993099FDC29922DE
:100EAC00900038EBF0A3EAF0A3E9F0AF051DEF607A
:100EBC0019900038E0FBA3E475F001120E96A9F02E
:0B0ECC00FA120E7DFF120FA080E12241
:0C0F9400758911758DFF758B8ED28E2231
:100A7400020406E493A3F8E493A34003F68001F28E
:100A840008DFF48029E493A3F85407240CC8C33383
:100A9400C4540F4420C8834004F456800146F6DF52
:100AA400E4800B0102040810204080900915E47EC4
:100AB400019360BCA3FF543F30E509541FFEE49347
:100AC400A360010ECF54C025E060A840B8E493A30E
:100AD400FAE493A3F8E493A3C8C582C8CAC583CA39
:100AE400F0A3C8C582C8CAC583CADFE9DEE780BEF1
:0109CB00002B
:100E7D00BB010689828A83E0225002E722BBFE0273
:090E8D00E32289828A83E49322A6
:100E9600A3F8E0C5F025F0F0E5821582700215830F
:060EA600E0C838F0E8226C
:00000001FF
