:03000000020A876A
:0C0A8700787FE4F6D8FD758124020ACEC9
:100927004100110042001900004100000041000190
:100937000041000700410008004100020041000398
:100947000041000600C1204100090041000E00419E
:10095700000501C101C10CC106C115C117C119C1EB
:100967001BC105C121C10BC11CC10DC11E470024FC
:100977000000000000000047001200000000000017
:10098700004200220000C11DC108410020004100B3
:100997000C0041000A00C1874100210041000D0001
:1009A700C10FC100C102C103C104C11FC109C110E8
:1009B70041001B00C11141001C00C11241001D0074
:1009C700C113C114C116C11841001E00C11A41004C
:1009D7001F00C10A42000F000041000B00C10E4179
:0309E70000040009
:100E3400D290742429F582E43400F583E025E0F0AF
:040E44007F327E007B
:100E4800E4FDFCC3ED9FEC9E5015E4FBFA0BBB00E0
:0F0E5800010AEB64134A70F50DBD00010C80E434
:010E67002268
:100EF300E4FDFCC3ED9FEC9E5015E4FBFA0BBB0035
:0F0F0300010AEB641A4A70F50DBD00010C80E481
:010F120022BC
:100DE90090003374AAF0E4900032F0E4F9900033F3
:100DF900E0C2907F507E00120E48D290900033E0FE
:100E090025E0F07F967E00120E4809E9B408DE90CD
:100E1900003374AAF07F507E00120E48900032E031
:0A0E290004F0E0C3940340C3D2902C
:010E3300229C
:10040600D2A5120F8912000E120FB0C294D284D256
:1004160083D2A9D2ABD2BBD2AFD290D282C2921231
:100426000003C2A6C2A2D2A37F327E00120F53C21D
:10043600A2C2A3E490000DF0D208C2A7D22130A434
:1004460047200E447F1E7E00120F5330A4781209F7
:10045600EB900004E07018D2947F08120E687F506B
:100466007E00120F53C2949000047401F08015D2DE
:10047600947F07120E687FF07E00120F53C294E439
:10048600900004F0D20E803E20A43B300E387F1E32
:100496007E00120F5320A42E1209EBC3900022E017
:1004A60094035010D2947F0A120E687F827E001247
:1004B6000F53C294D2947F09120E687F827E001277
:1004C6000F53C294C20E30822C7F647E00120F53EB
:1004D600208210D2947F0E120E687F827E00120F49
:1004E60053C294C3900023E094A3900022E09403A7
:1004F6004003120D99300F0F7F06120B1390002246
:10050600EEF0A3EFF0C20F301F1D90000DE0B40116
:1005160014C2A2D2A37F327E00120F53C2A2C2A37C
:10052600E490000DF0C21F30091C90000DE070141D
:10053600D2A2C2A37F32FE120F53C2A2C2A3900060
:100546000D7401F0C20930111ED2947F12120E688A
:100556007F647E00120F537F10120E687F647E0048
:10056600120F53C294C21130126790001DE0C3945B
:1005760008505E208417D2947F11120E687F507E39
:1005860000120F537F12120E687F64802F2083178C
:10059600D2947F0F120E687F967E00120F537F1043
:1005A600120E687F648015D2947F16120E687FB48F
:1005B6007E00120F537F17120E687F507E00120FB7
:1005C60053C29490001DE004F0E0B40404E4F0C2C9
:1005D6001230181F90001EE0C394015016D2947F6B
:1005E6000B120E687F967E00120F53C29490001E67
:1005F600E004F0201A0302044490001FE0C39401B3
:100606004003020444D2947F0C120E687F507E0091
:10061600120F537F0D120E687F507E00120F53C2C9
:0A0626009490001FE004F002044469
:03001B000207C613
:1007C600C0E0C0F0C083C082C0D075D000C000C0F9
:1007D60001C002C003C004C005C006C007758DFF76
:1007E600758B8E209110900020E004F0C207E06423
:1007F600967069F0806620074CD207900020E0FFD3
:10080600D3943C4012EFD39464500C90000CE0FF5C
:1008160025E0F054FE8013900020E0D39464401845
:1008260090000CE0FF25E0F04401F090000AE0049F
:10083600F0900021E4F08006900021E004F09000A2
:1008460020E4F08017900021E004F0E0C3947840A3
:100856000B90000AE4F0D207900011F090000AE035
:1008660064087048F090000CE0FF900011E0FE2450
:1008760012F582E43400F583EFF0EE700F9000126B
:10088600E0B4C8089000117401F08020EEB4010FA6
:10089600900013E0B4E0089000117402F0800DEEB1
:1008A600B40204D21D8000900011E4F0301D57C23E
:1008B6001D900014E0243F704DC20A120BF5D218A9
:1008C600C21A90001FE4F0C201C2A5C221C20BC227
:1008D6001CD209900009F0900001F090000FF0A3DF
:1008E600F090000BF0C210C211C21290001DF090E1
:1008F600000EF0900005E0FF64036004EFB402060A
:100906009000057401F0D007D006D005D004D003BE
:10091600D002D001D000D0D0D082D083D0F0D0E0A9
:01092600329E
:03000B00020630BA
:10063000C0E0C0F0C083C082C0D075D000C000C090
:1006400001C002C003C004C005C006C007758C24E9
:10065000758A45900002E004F0E0C3943C406030AD
:10066000083B90000EE004F0E09404403090000558
:10067000E0FFB4012890000E7405F0EFB4011ED223
:100680001FD21AC21890001EE4F0D2A5D221900009
:10069000057402F0900009E4F0900001F09000026F
:1006A000E4F0D20F300B03120D49301C03120CF989
:1006B000300A0C90001DE0C394045003120CA930C2
:1006C000A55C30871A900001E004F0E0C3940A4072
:1006D0000EE4F0900009E004F090000B7401F0903B
:1006E000000BE0B40138900010E004F070069000B8
:1006F0000FE004F0C3900010E0946890000FE094C5
:1007000001401B900009E4F0900001F090000FF010
:10071000A3F090000BF0C21090001BF0C2119000EB
:1007200009E06401702A90001BE0C39401504D2041
:10073000124A308347308444D2947F11120E687F6E
:10074000507E00120F53C29490001BE004F0802CE6
:1007500090000FE0FEA3E0FF64644E700E30870B44
:10076000308308308405201202D211EF64DC4E7011
:100770000B308708D21290001DF0D20A30212C20B5
:100780008412900003E004F0E0C3940A4006D21CF7
:10079000C20BC201208314900006E004F0E0C39471
:1007A0000A4008E4F0D20BC21CC201D007D006D028
:1007B00005D004D003D002D001D000D0D0D082D058
:0607C00083D0F0D0E0320E
:100BF500C2A6D2A790002474C8F0A374E0F0A37431
:100C0500C1F0120DE9E4F9E490002EF0742429F501
:100C150082E43400F583E030E706C2907F788004F3
:100C2500C2907F507E00120EF3D290742429F58273
:100C3500E43400F583E025E0F07F327E00120EF308
:100C450090002EE004F0E0C3940840C009E9B40325
:030C5500B6C2A77D
:010C58002279
:100C5900C2A6D2A790002474C8F0A374E0F0A374CC
:100C6900C2F0120DE9E4F9E4900039F0742429F591
:100C790082E43400F583E030E706C2907F7880048F
:100C8900C2907F507E00120E48120E34900039E057
:0F0C990004F0E0C3940840D409E9B403CAC2A729
:010CA8002229
:100CA900D2A6D2A790002474C8F0A374E0F0A3746C
:100CB900C3F0120DE9E4F9E4900031F0742429F548
:100CC90082E43400F583E030E706C2907F7880043F
:100CD900C2907F507E00120E48120E34900031E00F
:0F0CE90004F0E0C3940840D409E9B403CAC2A7D9
:010CF80022D9
:100CF900C2A6D2A790002474C8F0A374E0F0A3742C
:100D0900C4F0120DE9E4F9E4900031F0742429F5F6
:100D190082E43400F583E030E706C2907F788004EE
:100D2900C2907F507E00120E48120E34900031E0BE
:0F0D390004F0E0C3940840D409E9B403CAC2A788
:010D48002288
:100D4900C2A6D2A790002474C8F0A374E0F0A374DB
:100D5900C5F0120DE9E4F9E4900031F0742429F5A5
:100D690082E43400F583E030E706C2907F7880049E
:100D7900C2907F507E00120E48120E34900031E06E
:0F0D890004F0E0C3940840D409E9B403CAC2A738
:010D98002238
:100D9900C2A6D2A790002474C8F0A374E0F0A3748B
:100DA900C6F0120DE9E4F9E490002BF0742429F55A
:100DB90082E43400F583E030E706C2907F7880044E
:100DC900C2907F507E00120E48120E3490002BE024
:0F0DD90004F0E0C3940840D409E9B403CAC2A7E8
:010DE80022E8
:1009EB00C3900023E094A3900022E094034006D22E
:1009FB00947F06807A900022E0FEA3E0FFC394A0D0
:100A0B00EE9403500FC3EF947CEE94034006D29404
:100A1B007F05805B900022E0FEA3E0FFC39478EE9D
:100A2B009403500FC3EF9459EE94034006D2947F76
:100A3B0004803C900022E0FEA3E0FFC39455EE94AB
:100A4B0003500FC3EF9427EE94034006D2947F0319
:100A5B00801D900022E0FEA3E0FFC39423EE9403DD
:100A6B005019C3EF9404EE94034010D2947F0212FA
:0C0A7B000E687F827E00120F53C294228E
:100F5300EF1FAA0670011E4A60107C137D88ED1DE9
:0A0F6300AA0470011C4A60E880F443
:010F6D002261
:100B1300E4FAEF6405703343F620C2F8C2F9D2FA5F
:100B230043E180C2FCD2FBADF8EDC413135403FDC3
:100B3300AFE2AB07EB7E007802C333CE33CED8F9F6
:100B43007C002DFBEC3EAF03FE22EF6406703443C2
:100B5300F640D2F8C2F9D2FA43E180C2FCD2FBAD2F
:100B6300F8EDC413135403FDAFE27A00AB07EB7E39
:100B7300007802C333CE33CED8F97C002DFBEC3E94
:030B8300FEAF03BF
:010B8600224C
:100F6E0075DCC0900037E4F0A3741DF0900037E0FC
:0B0F7E00FCA3E0FDECF5D1EDF5D9225D
:100B8700EF14602214603714604C2403705F9000E8
:100B970037E4F0A3740DF0900037E0FCA3E0FDEC20
:100BA700F5D2EDF5DA229000377401F0A3E4F09066
:100BB7000037E0FCA3E0FDECF5D3EDF5DB22900078
:100BC70037E4F0A37480F0900037E0FCA3E0FDEC7D
:100BD700F5D5EDF5DD22900037E4F0A37440F090F1
:0E0BE7000037E0FCA3E0FDECF5D6EDF5DE22D4
:08000300E4FF120B87020F6EEF
:0C000E00758921758C24758A45D28C22DE
:100F1300E4FDFCC3ED9FEC9E5015E4FBFA0BBB0014
:0F0F2300010ABA01F8BBF4F50DBD00010C80E422
:010F3200229C
:100F3300E4FDFCC3ED9FEC9E5015E4FBFA0BBB00F4
:0F0F4300010AEB64024A70F50DBD00010C80E459
:010F5200227C
:050E6800900031EFF0E5
:100E6D00C2A07F287E00120F13D2A0120F13E4F937
:100E7D00900031E0FFE9C39F5011D2A17F5E7E014A
:0B0E8D00120F33C2A1120F330980E5E1
:010E98002237
:100F8900C294C2A1C2A07FE87E03120F33D2A0127D
:050F99000F33D2942289
:10001E00000102030405060708090A0B0C0D0E0F5A
:10002E00101112131415161718191A1B1C1D1E1F4A
:10003E00202122232425262728292A2B2C2D2E2F3A
:10004E003031000102030405060708090A0B0C0DE6
:10005E000E0F101112131415161718191A1B1C1D3A
:10006E001E1F202122232425262728292A2B2C2D2A
:10007E002E2F3031000102030405060708090A0B72
:10008E000C0D0E0F101112131415161718191A1B2A
:10009E001C1D1E1F202122232425262728292A2B1A
:1000AE002C2D2E2F303100010203040506070809FE
:1000BE000A0B0C0D0E0F101112131415161718191A
:1000CE001A1B1C1D1E1F202122232425262728290A
:1000DE002A2B2C2D2E2F303100010203040506078A
:1000EE0008090A0B0C0D0E0F10111213141516170A
:1000FE0018191A1B1C1D1E1F2021222324252627FA
:10010E0028292A2B2C2D2E2F303100010203040515
:10011E00060708090A0B0C0D0E0F101112131415F9
:10012E00161718191A1B1C1D1E1F202122232425E9
:10013E00262728292A2B2C2D2E2F303100010203A1
:10014E000405060708090A0B0C0D0E0F10111213E9
:10015E001415161718191A1B1C1D1E1F20212223D9
:10016E002425262728292A2B2C2D2E2F303100012D
:10017E0002030405060708090A0B0C0D0E0F1011D9
:10018E0012131415161718191A1B1C1D1E1F2021C9
:10019E0022232425262728292A2B2C2D2E2F3031B9
:1001AE00000102030405060708090A0B0C0D0E0FC9
:1001BE00101112131415161718191A1B1C1D1E1FB9
:1001CE00202122232425262728292A2B2C2D2E2FA9
:1001DE003031000102030405060708090A0B0C0D55
:1001EE000E0F101112131415161718191A1B1C1DA9
:1001FE001E1F202122232425262728292A2B2C2D99
:10020E002E2F3031000102030405060708090A0BE0
:10021E000C0D0E0F101112131415161718191A1B98
:10022E001C1D1E1F202122232425262728292A2B88
:10023E002C2D2E2F3031000102030405060708096C
:10024E000A0B0C0D0E0F1011121314151617181988
:10025E001A1B1C1D1E1F2021222324252627282978
:10026E002A2B2C2D2E2F30310001020304050607F8
:10027E0008090A0B0C0D0E0F101112131415161778
:10028E0018191A1B1C1D1E1F202122232425262768
:10029E0028292A2B2C2D2E2F303100010203040584
:1002AE00060708090A0B0C0D0E0F10111213141568
:1002BE00161718191A1B1C1D1E1F20212223242558
:1002CE00262728292A2B2C2D2E2F30310001020310
:1002DE000405060708090A0B0C0D0E0F1011121358
:1002EE001415161718191A1B1C1D1E1F2021222348
:1002FE002425262728292A2B2C2D2E2F303100019C
:10030E0002030405060708090A0B0C0D0E0F101147
:10031E0012131415161718191A1B1C1D1E1F202137
:10032E0022232425262728292A2B2C2D2E2F303127
:10033E00000102030405060708090A0B0C0D0E0F37
:10034E00101112131415161718191A1B1C1D1E1F27
:10035E00202122232425262728292A2B2C2D2E2F17
:10036E003031000102030405060708090A0B0C0DC3
:10037E000E0F101112131415161718191A1B1C1D17
:10038E001E1F202122232425262728292A2B2C2D07
:10039E002E2F3031000102030405060708090A0B4F
:1003AE000C0D0E0F101112131415161718191A1B07
:1003BE001C1D1E1F202122232425262728292A2BF7
:1003CE002C2D2E2F303100010203040506070809DB
:1003DE000A0B0C0D0E0F10111213141516171819F7
:1003EE001A1B1C1D1E1F20212223242526272829E7
:0803FE002A2B2C2D2E2F30318B
:100F9E0053A2BF75985A758920758BC6758DC6D2AA
:020FAE008E2291
:080FBC008F993099FDC29922C2
:100EC800900034EBF0A3EAF0A3E9F0AF051DEF6062
:100ED80019900034E0FBA3E475F001120EB2A9F0FA
:0B0EE800FA120E99FF120FBC80E122ED
:0C0FB000758911758DFF758B8ED28E2215
:100A9300020406E493A3F8E493A34003F68001F26F
:100AA30008DFF48029E493A3F85407240CC8C33364
:100AB300C4540F4420C8834004F456800146F6DF33
:100AC300E4800B0102040810204080900927E47E93
:100AD300019360BCA3FF543F30E509541FFEE49328
:100AE300A360010ECF54C025E060A840B8E493A3EF
:100AF300FAE493A3F8E493A3C8C582C8CAC583CA1A
:100B0300F0A3C8C582C8CAC583CADFE9DEE780BED1
:0109EA00000C
:100E9900BB010689828A83E0225002E722BBFE0257
:090EA900E32289828A83E493228A
:100EB200A3F8E0C5F025F0F0E582158270021583F3
:060EC200E0C838F0E82250
:00000001FF
