:0300000002066C89
:0C066C00787FE4F6D8FD7581240206B307
:100508004100120042001A000041000000410001B1
:1005180000410008004200020000410004004100C0
:100528000700C11F4100090041000F0041000601FA
:10053800C101C10CC106C114C116C118C11AC10537
:10054800C120C10B41002600C11B41000B00C10D99
:10055800C11D4700270000000000000047001300ED
:100568000000000000004200240000C11CC1084136
:1005780000220041000D0041000A00C1874100230C
:100588000041000E00C10EC100C102C103C104C177
:100598001EC109C10F41001C00C110C11142001D3C
:1005A8000000C112C113C115C11741001F00C119B4
:1005B80041002000C10A420010000041000C004127
:0705C80000210041000500C5
:1009C400D290742729F582E43400F583E025E0F021
:0409D4007F327E00F0
:1009D800E4FDFCC3ED9FEC9E5015E4FBFA0BBB0055
:0F09E800010AEB64134A70F50DBD00010C80E4A9
:0109F70022DD
:100A1F00E4FDFCC3ED9FEC9E5015E4FBFA0BBB000D
:0F0A2F00010AEB641A4A70F50DBD00010C80E45A
:010A3E002295
:10092E0090003674AAF0E4900035F0E4F9900036A9
:10093E00E0C2907F507E001209D8D290900036E02F
:10094E0025E0F07F967E001209D809E9B408DE9002
:10095E00003674AAF07F507E001209D8900035E060
:0A096E0004F0E0C3940340C3D290EC
:01097800225C
:1009790090003374AAF0E4900032F0E4F990003367
:10098900E0C2907F507E001209D8D290900033E0E7
:1009990025E0F07F967E001209D809E9B408DE90B7
:1009A900003374AAF07F507E001209D8900032E01B
:0A09B90004F0E0C3940340C3D290A1
:0109C3002211
:1001F600C2A5120AA712000E120ABCC294D284D259
:1002060083D2A9D2ABD2BBD2AFD290C29212000394
:10021600C2A6E490000EF0D208C2A7D220D2A43023
:10022600A428900021E070227F1EFE120A3F30A40F
:10023600191205D0D2947F071209F87FA07E00120A
:100246000A3FC2949000217401F020A4429000213C
:10025600E06401703A7F1EFE120A3F20A4311205A7
:10026600D0C3900024E094035010D2947F0A120960
:10027600F87F647E00120A3FC294D2947F09120965
:10028600F87F827E00120A3FC294E4900021F0308B
:100296000E0F7F061206F8900024EEF0A3EFF0C2D0
:1002A6000E301E1D90000EE0B40114D2A2C2A37F30
:1002B600287E00120A3FC2A2C2A3E490000EF0C23A
:1002C6001E30091C90000EE07014C2A2D2A37F2833
:1002D600FE120A3FC2A2C2A390000E7401F0C20928
:1002E60030115BC390001EE0940490001DE0940062
:1002F600504C308425308322D2947F161209F8128E
:10030600083E7F647E00120A3F7F171209F8120822
:100316003E7F3C7E00120A3FC29490001EE004F02D
:10032600700690001DE004F090001DE07004A3E04C
:100336006404700A90001DF0A3F0C211C20A3017BF
:100346002490001FE0C39401501BC219E4A3F0D20D
:10035600947F0B1209F87F967E00120A3FC2949092
:10036600001FE004F0201903020225900020E0C3DC
:1003760094014003020225C217E490001FF0D294B4
:100386007F0C1209F87F507E00120A3F7F0D12097A
:10039600F87F507E00120A3FC294900020E004F0DD
:0503A600D2A5020225B2
:03001B000203AB32
:1003AB00C0E0C0F0C083C082C0D075D000C000C018
:1003BB0001C002C003C004C005C006C007758DFF95
:1003CB00758B8E209110900022E004F0C207E06440
:1003DB00967069F0806620074CD207900022E0FFF0
:1003EB00D3943C4012EFD39464500C90000DE0FF7B
:1003FB0025E0F054FE8013900022E0D39464401863
:10040B0090000DE0FF25E0F04401F090000AE004BD
:10041B00F0900023E4F08006900023E004F09000BD
:10042B0022E4F08017900023E004F0E0C3947840BE
:10043B000B90000AE4F0D207900012F090000AE053
:10044B0064087048F090000DE0FF900012E0FE246D
:10045B0013F582E43400F583EFF0EE700F90001388
:10046B00E0B4C8089000127401F08020EEB4010FC4
:10047B00900014E0B4E0089000127402F0800DEECE
:10048B00B40204D21C8000900012E4F0301C53C262
:10049B001C900015E0243F7049C20A1207DAD217EC
:1004AB00C201C2A5C220C20BC21BD209900009E433
:1004BB00F0900001F0900010F0A3F090000CF0C24F
:1004CB000FC210C21190001DF0A3F090000FF0901E
:1004DB000006E0FF64036004EFB4020690000674AC
:1004EB0001F0D007D006D005D004D003D002D00144
:0D04FB00D000D0D0D082D083D0F0D0E0323D
:03000B0002001ED2
:10001E00C0E0C0F0C083C082C0D075D000C000C0A8
:10002E0001C002C003C004C005C006C007758CFB2A
:10003E00758A9B900003E004F07006900002E004C5
:10004E00F0C3900003E094D0900002E09407406863
:10005E0030083290000FE004F0E094044027900046
:10006E0006E0FFB4011F90000F7405F0EFB4011508
:10007E00D21ED219D2209000067402F0900009E42C
:10008E00F0900001F0900002E4F0A3F0D20E300BDD
:10009E0012900026E0C3940550091208DE90002647
:1000AE00E004F0301B1290000BE0C39405500912CF
:1000BE00088E90000BE004F030A56A308723200AEA
:1000CE0020900001E004F0E0C394084019E4F090A1
:1000DE000009E004F090001CE4F090000C04F080A5
:1000EE0005900001E4F090000CE0B401389000118E
:1000FE00E004F07006900010E004F0C3900011E0F0
:10010E009470900010E09417401B900009E4F0905A
:10011E000001F0900010F0A3F090000CF0C20F90D0
:10012E00001CF0C210900009E06401702A90001CBF
:10013E00E0C39401505420115130834E30844BD281
:10014E00947F111209F87F507E00120A3FC29490DC
:10015E00001CE004F08033C3900011E094B89000CE
:10016E0010E0940B402430871C900008E004F0E06F
:10017E0094064016D21190001DE4F0A3F0D20A901E
:10018E000008F08005900008E4F030204020841232
:10019E00900004E004F0E0B40A13D21BC20BC201BB
:1001AE00800BC21B90000BE4F0900004F020831231
:1001BE00900007E004F0E0B40A13D20BC21BC20198
:1001CE00800BC20B900026E4F0900007F0D007D011
:1001DE0006D005D004D003D002D001D000D0D0D0AC
:0801EE0082D083D0F0D0E03292
:1007DA00C2A6D2A790002774C8F0A374E0F0A3744D
:1007EA00C1F0120979E4F9E4900031F0742729F58F
:1007FA0082E43400F583E030E706C2907F78800413
:10080A00C2907F507E00120A1FD290742729F58267
:10081A00E43400F583E025E0F07F327E00120A1FFF
:10082A00900031E004F0E0C3940840C009E9B40341
:03083A00B6C2A79C
:01083D002298
:10083E00D2A6D2A790002774C8F0A374E0F0A374D8
:10084E00C3F012092EE4F9E490002EF0742729F576
:10085E0082E43400F583E030E706C2907F788004AE
:10086E00C2907F507E001209D81209C490002EE06B
:0F087E0004F0E0C3940840D409E9B403CAC2A748
:01088D002248
:10088E00C2A6D2A790002774C8F0A374E0F0A37498
:10089E00C4F012092EE4F9E4900034F0742729F51F
:1008AE0082E43400F583E030E706C2907F7880045E
:1008BE00C2907F507E001209D81209C4900034E015
:0F08CE0004F0E0C3940840D409E9B403CAC2A7F8
:0108DD0022F8
:1008DE00C2A6D2A790002774C8F0A374E0F0A37448
:1008EE00C5F012092EE4F9E4900034F0742729F5CE
:1008FE0082E43400F583E030E706C2907F7880040E
:10090E00C2907F507E001209D81209C4900034E0C4
:0F091E0004F0E0C3940840D409E9B403CAC2A7A7
:01092D0022A7
:1005D000C3900025E094A3900024E094034006D249
:1005E000947F06807A900024E0FEA3E0FFC394A0ED
:1005F000EE9403500FC3EF947CEE94034006D29424
:100600007F05805B900024E0FEA3E0FFC39478EEBA
:100610009403500FC3EF9459EE94034006D2947F95
:1006200004803C900024E0FEA3E0FFC39455EE94C8
:1006300003500FC3EF9427EE94034006D2947F0338
:10064000801D900024E0FEA3E0FFC39423EE9403FA
:100650005019C3EF9404EE94034010D2947F021219
:0C06600009F87F827E00120A3FC294223B
:100A3F00EF1FAA0670011E4A60107C137D88ED1D02
:0A0A4F00AA0470011C4A60E880F45C
:010A5900227A
:1006F800E4FAEF6405703343F620C2F8C2F9D2FA7F
:1007080043E180C2FCD2FBADF8EDC413135403FDE2
:10071800AFE2AB07EB7E007802C333CE33CED8F915
:100728007C002DFBEC3EAF03FE22EF6406703443E1
:10073800F640D2F8C2F9D2FA43E180C2FCD2FBAD4E
:10074800F8EDC413135403FDAFE27A00AB07EB7E58
:10075800007802C333CE33CED8F97C002DFBEC3EB3
:03076800FEAF03DE
:01076B00226B
:100A5A0075DCC0900037E4F0A3741DF0900037E015
:0B0A6A00FCA3E0FDECF5D1EDF5D92276
:10076C00EF14602214603714604C2403705F900007
:10077C0037E4F0A3740DF0900037E0FCA3E0FDEC3F
:10078C00F5D2EDF5DA229000377401F0A3E4F09085
:10079C000037E0FCA3E0FDECF5D3EDF5DB22900097
:1007AC0037E4F0A37480F0900037E0FCA3E0FDEC9C
:1007BC00F5D5EDF5DD22900037E4F0A37440F09010
:0E07CC000037E0FCA3E0FDECF5D6EDF5DE22F3
:08000300E4FF12076C020A5A27
:0C000E00758921758CFB758A9BD28C22B1
:100A7500E4FEEEC39F5011E4FDFC0DBD00010CBC6E
:080A850001F8BDF4F50E80EA52
:010A8D002246
:100A8E00E4FDFCC3ED9FEC9E500EE4FB0BEBB414A7
:080A9E00FB0DBD00010C80EB13
:010AA600222D
:0209F800A9074D
:1009FA00C2A07F28120A75D2A0120A75E4FAEAC3C5
:100A0A00995011D2A17F1E7E00120A8EC2A1120A2B
:040A1A008E0A80EAD6
:010A1E0022B5
:100AA700C294C2A1C2A07F647E00120A8ED2A01295
:050AB7000A8ED294221A
:0C0ABC00758911758DFF758B8ED28E220E
:100678000201F6E493A3F8E493A34003F68001F2A1
:1006880008DFF48029E493A3F85407240CC8C33383
:10069800C4540F4420C8834004F456800146F6DF52
:1006A800E4800B0102040810204080900508E47ED5
:1006B800019360BCA3FF543F30E509541FFEE49347
:1006C800A360010ECF54C025E060A840B8E493A30E
:1006D800FAE493A3F8E493A3C8C582C8CAC583CA39
:1006E800F0A3C8C582C8CAC583CADFE9DEE780BEF1
:0105CF00002B
:00000001FF
