:03000000020A9E53
:0C0A9E00787FE4F6D8FD758124020AE59B
:100941004100100042001800004100000041000178
:1009510000410002004100030041000600C12041A6
:1009610000070041000D0041000501C101C10CC19A
:1009710006C115C117C119C11BC105C121C10B4157
:10098100002300C11C41000900C10DC11E47002404
:1009910000000000000000470011000000000000FE
:1009A100004200210000C11DC10841001F0041009B
:1009B1000B0041000800C1874100200041000C00EC
:1009C100C10FC100C102C103C104C11FC109C110CE
:1009D10041001A00C111C11242001B0000C113C124
:1009E10014C116C11841001D00C11A41001E00C1E9
:1009F1000A42000E000041000A00C10E410004003D
:100E4B00D290742429F582E43400F583E025E0F098
:040E5B007F327E0064
:100E5F00E4FDFCC3ED9FEC9E5015E4FBFA0BBB00C9
:0F0E6F00010AEB64134A70F50DBD00010C80E41D
:010E7E002251
:100F0A00E4FDFCC3ED9FEC9E5015E4FBFA0BBB001D
:0F0F1A00010AEB641A4A70F50DBD00010C80E46A
:010F290022A5
:100E000090003174AAF0E4900030F0E4F9900031E1
:100E1000E0C2907F507E00120E5FD290900031E0D1
:100E200025E0F07F967E00120E5F09E9B408DE909F
:100E3000003174AAF07F507E00120E5F900030E007
:0A0E400004F0E0C3940340C3D29015
:010E4A002285
:10040600D2A5120FA012000E120FC7C294D284D228
:1004160083D2A9D2ABD2BBD2AFD290D282C2921231
:100426000003C2A6C2A2D2A37F327E00120F6AC206
:10043600A2C2A3E490000CF0D208C2A7D22130A435
:1004460047200E447F2C7E01120F6A30A478120AD0
:1004560002900004E07018D2947F08120E7F7F503D
:100466007E00120F6AC2949000047401F08015D2C7
:10047600947F07120E7F7FF07E00120F6AC294E40B
:10048600900004F0D20E803E20A43B300E387F2C24
:100496007E01120F6A20A42E120A02C3900021E0E8
:1004A60094035010D2947F0A120E7F7F827E001230
:1004B6000F6AC294D2947F09120E7F7F827E001249
:1004C6000F6AC294C20E300F0F7F06120B2A9000DD
:1004D60021EEF0A3EFF0C20F301F1D90000CE0B428
:1004E6000114C2A2D2A37F327E00120F6AC2A2C238
:1004F600A3E490000CF0C21F30091C90000CE070C1
:1005060014D2A2C2A37F32FE120F6AC2A2C2A39065
:10051600000C7401F0C20930111ED2947F12120E23
:100526007F7F647E00120F6A7F10120E7F7F647ECB
:1005360000120F6AC294C2112012030205C7C390AB
:10054600001CE0940490001BE09400507420841773
:10055600D2947F11120E7F7F507E00120F6A7F1297
:10056600120E7F7F64802F208317D2947F0F120E86
:100576007F7F967E00120F6A7F10120E7F7F648047
:1005860015D2947F16120E7F7FB47E00120F6A7FFB
:1005960017120E7F7F507E00120F6AC29490001CC5
:1005A600E004F0700690001BE004F090001BE07081
:1005B60004A3E06404700A90001BF0A3F0C212C208
:1005C6000A30181F90001DE0C394015016D2947F84
:1005D6000B120E7F7F967E00120F6AC29490001D4A
:1005E600E004F0201A0302044490001EE0C39401C4
:1005F6004003020444D2947F0C120E7F7F507E008B
:10060600120F6A7F0D120E7F7F507E00120F6AC294
:0A0616009490001EE004F00204447A
:03001B000207DEFB
:1007DE00C0E0C0F0C083C082C0D075D000C000C0E1
:1007EE0001C002C003C004C005C006C007758DFF5E
:1007FE00758B8E20911090001FE004F0C207E0640C
:10080E00967069F0806620074CD20790001FE0FFBB
:10081E00D3943C4012EFD39464500C90000BE0FF45
:10082E0025E0F054FE801390001FE0D3946440182E
:10083E0090000BE0FF25E0F04401F0900008E0048A
:10084E00F0900020E4F08006900020E004F090008C
:10085E001FE4F08017900020E004F0E0C39478408D
:10086E000B900008E4F0D207900010F0900008E022
:10087E0064087048F090000BE0FF900010E0FE243A
:10088E0011F582E43400F583EFF0EE700F90001155
:10089E00E0B4C8089000107401F08020EEB4010F8F
:1008AE00900012E0B4E0089000107402F0800DEE9B
:1008BE00B40204D21D8000900010E4F0301D59C225
:1008CE001D900013E0243F704FC20A120C0CD21878
:1008DE00C21A90001EE4F0C201C2A5C221C20BC210
:1008EE001CD209900007F0900001F090000EF0A3CA
:1008FE00F090000AF0C210C211C21290001BF0A3B9
:10090E00F090000DF0900005E0FF64036004EFB47A
:10091E0002069000057401F0D007D006D005D00471
:10092E00D003D002D001D000D0D0D082D083D0F06E
:03093E00D0E032D4
:03000B00020620CA
:10062000C0E0C0F0C083C082C0D075D000C000C0A0
:1006300001C002C003C004C005C006C007758C24F9
:10064000758A45900002E004F0E0C394285003024C
:1006500006D630083B90000DE004F0E094044030F2
:10066000900005E0FFB4012890000D7405F0EFB490
:10067000011ED21FD21AC21890001DE4F0D2A5D2DA
:10068000219000057402F0900007E4F0900001F062
:10069000900002E4F0D20F300B12900023E0C394DC
:1006A000055009120D60900023E004F0301C1290F8
:1006B0000009E0C394055009120D10900009E004F0
:1006C000F0300A12C390001CE0940490001BE094E8
:1006D000005003120CC030A55C30871A900001E076
:1006E00004F0E0C3940A400EE4F0900007E004F048
:1006F00090000A7401F090000AE0B4013890000FF5
:10070000E004F0700690000EE004F0C390000FE0EB
:1007100094F090000EE09400401B900007E4F090ED
:100720000001F090000EF0A3F090000AF0C21090CB
:10073000001AF0C211900007E06401702A90001ABC
:10074000E0C39401503A201237308334308431D2E0
:10075000947F11120E7F7F507E00120F6AC2949018
:10076000001AE004F0801990000EE07004A3E06429
:1007700064700D30870AD21290001BF0A3F0D20AE9
:10078000302140208412900003E004F0E0B40A130A
:10079000D21CC20BC201800BC21C900009E4F09075
:1007A0000003F0208312900006E004F0E0B40A1386
:1007B000D20BC21CC201800BC20B900023E4F0904C
:1007C0000006F0D007D006D005D004D003D002D068
:0E07D00001D000D0D0D082D083D0F0D0E03263
:100C0C00C2A6D2A790002474C8F0A374E0F0A37419
:100C1C00C1F0120E00E4F9E490002CF0742429F5D4
:100C2C0082E43400F583E030E706C2907F788004DC
:100C3C00C2907F507E00120F0AD290742429F58244
:100C4C00E43400F583E025E0F07F327E00120F0AD9
:100C5C0090002CE004F0E0C3940840C009E9B40310
:030C6C00B6C2A766
:010C6F002262
:100C7000C2A6D2A790002474C8F0A374E0F0A374B5
:100C8000C2F0120E00E4F9E4900037F0742429F564
:100C900082E43400F583E030E706C2907F78800478
:100CA000C2907F507E00120E5F120E4B900037E014
:0F0CB00004F0E0C3940840D409E9B403CAC2A712
:010CBF002212
:100CC000D2A6D2A790002474C8F0A374E0F0A37455
:100CD000C3F0120E00E4F9E490002FF0742429F51B
:100CE00082E43400F583E030E706C2907F78800428
:100CF000C2907F507E00120E5F120E4B90002FE0CC
:0F0D000004F0E0C3940840D409E9B403CAC2A7C1
:010D0F0022C1
:100D1000C2A6D2A790002474C8F0A374E0F0A37414
:100D2000C4F0120E00E4F9E490002FF0742429F5C9
:100D300082E43400F583E030E706C2907F788004D7
:100D4000C2907F507E00120E5F120E4B90002FE07B
:0F0D500004F0E0C3940840D409E9B403CAC2A771
:010D5F002271
:100D6000C2A6D2A790002474C8F0A374E0F0A374C4
:100D7000C5F0120E00E4F9E490002FF0742429F578
:100D800082E43400F583E030E706C2907F78800487
:100D9000C2907F507E00120E5F120E4B90002FE02B
:0F0DA00004F0E0C3940840D409E9B403CAC2A721
:010DAF002221
:100DB000C2A6D2A790002474C8F0A374E0F0A37474
:100DC000C6F0120E00E4F9E4900038F0742429F51E
:100DD00082E43400F583E030E706C2907F78800437
:100DE000C2907F507E00120E5F120E4B900038E0D2
:0F0DF00004F0E0C3940840D409E9B403CAC2A7D1
:010DFF0022D1
:100A0200C3900022E094A3900021E094034006D218
:100A1200947F06807A900021E0FEA3E0FFC394A0B9
:100A2200EE9403500FC3EF947CEE94034006D294ED
:100A32007F05805B900021E0FEA3E0FFC39478EE87
:100A42009403500FC3EF9459EE94034006D2947F5F
:100A520004803C900021E0FEA3E0FFC39455EE9495
:100A620003500FC3EF9427EE94034006D2947F0302
:100A7200801D900021E0FEA3E0FFC39423EE9403C7
:100A82005019C3EF9404EE94034010D2947F0212E3
:0C0A92000E7F7F827E00120F6AC2942249
:100F6A00EF1FAA0670011E4A60107C137D88ED1DD2
:0A0F7A00AA0470011C4A60E880F42C
:010F8400224A
:100B2A00E4FAEF6405703343F620C2F8C2F9D2FA48
:100B3A0043E180C2FCD2FBADF8EDC413135403FDAC
:100B4A00AFE2AB07EB7E007802C333CE33CED8F9DF
:100B5A007C002DFBEC3EAF03FE22EF6406703443AB
:100B6A00F640D2F8C2F9D2FA43E180C2FCD2FBAD18
:100B7A00F8EDC413135403FDAFE27A00AB07EB7E22
:100B8A00007802C333CE33CED8F97C002DFBEC3E7D
:030B9A00FEAF03A8
:010B9D002235
:100F850075DCC0900035E4F0A3741DF0900035E0E9
:0B0F9500FCA3E0FDECF5D1EDF5D92246
:100B9E00EF14602214603714604C2403705F9000D1
:100BAE0035E4F0A3740DF0900035E0FCA3E0FDEC0D
:100BBE00F5D2EDF5DA229000357401F0A3E4F09051
:100BCE000035E0FCA3E0FDECF5D3EDF5DB22900063
:100BDE0035E4F0A37480F0900035E0FCA3E0FDEC6A
:100BEE00F5D5EDF5DD22900035E4F0A37440F090DC
:0E0BFE000035E0FCA3E0FDECF5D6EDF5DE22BF
:08000300E4FF120B9E020F85C1
:0C000E00758921758C24758A45D28C22DE
:100F2A00E4FDFCC3ED9FEC9E5015E4FBFA0BBB00FD
:0F0F3A00010ABA01F8BBF4F50DBD00010C80E40B
:010F49002285
:100F4A00E4FDFCC3ED9FEC9E5015E4FBFA0BBB00DD
:0F0F5A00010AEB64024A70F50DBD00010C80E442
:010F69002265
:050E7F0090002FEFF0D0
:100E8400C2A07F287E00120F2AD2A0120F2AE4F9F2
:100E940090002FE0FFE9C39F5011D2A17F5E7E0135
:0B0EA400120F4AC2A1120F4A0980E59C
:010EAF002220
:100FA000C294C2A1C2A07FE87E03120F4AD2A0124F
:050FB0000F4AD294225B
:10001E00000102030405060708090A0B0C0D0E0F5A
:10002E00101112131415161718191A1B1C1D1E1F4A
:10003E00202122232425262728292A2B2C2D2E2F3A
:10004E003031000102030405060708090A0B0C0DE6
:10005E000E0F101112131415161718191A1B1C1D3A
:10006E001E1F202122232425262728292A2B2C2D2A
:10007E002E2F3031000102030405060708090A0B72
:10008E000C0D0E0F101112131415161718191A1B2A
:10009E001C1D1E1F202122232425262728292A2B1A
:1000AE002C2D2E2F303100010203040506070809FE
:1000BE000A0B0C0D0E0F101112131415161718191A
:1000CE001A1B1C1D1E1F202122232425262728290A
:1000DE002A2B2C2D2E2F303100010203040506078A
:1000EE0008090A0B0C0D0E0F10111213141516170A
:1000FE0018191A1B1C1D1E1F2021222324252627FA
:10010E0028292A2B2C2D2E2F303100010203040515
:10011E00060708090A0B0C0D0E0F101112131415F9
:10012E00161718191A1B1C1D1E1F202122232425E9
:10013E00262728292A2B2C2D2E2F303100010203A1
:10014E000405060708090A0B0C0D0E0F10111213E9
:10015E001415161718191A1B1C1D1E1F20212223D9
:10016E002425262728292A2B2C2D2E2F303100012D
:10017E0002030405060708090A0B0C0D0E0F1011D9
:10018E0012131415161718191A1B1C1D1E1F2021C9
:10019E0022232425262728292A2B2C2D2E2F3031B9
:1001AE00000102030405060708090A0B0C0D0E0FC9
:1001BE00101112131415161718191A1B1C1D1E1FB9
:1001CE00202122232425262728292A2B2C2D2E2FA9
:1001DE003031000102030405060708090A0B0C0D55
:1001EE000E0F101112131415161718191A1B1C1DA9
:1001FE001E1F202122232425262728292A2B2C2D99
:10020E002E2F3031000102030405060708090A0BE0
:10021E000C0D0E0F101112131415161718191A1B98
:10022E001C1D1E1F202122232425262728292A2B88
:10023E002C2D2E2F3031000102030405060708096C
:10024E000A0B0C0D0E0F1011121314151617181988
:10025E001A1B1C1D1E1F2021222324252627282978
:10026E002A2B2C2D2E2F30310001020304050607F8
:10027E0008090A0B0C0D0E0F101112131415161778
:10028E0018191A1B1C1D1E1F202122232425262768
:10029E0028292A2B2C2D2E2F303100010203040584
:1002AE00060708090A0B0C0D0E0F10111213141568
:1002BE00161718191A1B1C1D1E1F20212223242558
:1002CE00262728292A2B2C2D2E2F30310001020310
:1002DE000405060708090A0B0C0D0E0F1011121358
:1002EE001415161718191A1B1C1D1E1F2021222348
:1002FE002425262728292A2B2C2D2E2F303100019C
:10030E0002030405060708090A0B0C0D0E0F101147
:10031E0012131415161718191A1B1C1D1E1F202137
:10032E0022232425262728292A2B2C2D2E2F303127
:10033E00000102030405060708090A0B0C0D0E0F37
:10034E00101112131415161718191A1B1C1D1E1F27
:10035E00202122232425262728292A2B2C2D2E2F17
:10036E003031000102030405060708090A0B0C0DC3
:10037E000E0F101112131415161718191A1B1C1D17
:10038E001E1F202122232425262728292A2B2C2D07
:10039E002E2F3031000102030405060708090A0B4F
:1003AE000C0D0E0F101112131415161718191A1B07
:1003BE001C1D1E1F202122232425262728292A2BF7
:1003CE002C2D2E2F303100010203040506070809DB
:1003DE000A0B0C0D0E0F10111213141516171819F7
:1003EE001A1B1C1D1E1F20212223242526272829E7
:0803FE002A2B2C2D2E2F30318B
:100FB50053A2BF75985A758920758BC6758DC6D293
:020FC5008E227A
:080FD3008F993099FDC29922AB
:100EDF00900032EBF0A3EAF0A3E9F0AF051DEF604D
:100EEF0019900032E0FBA3E475F001120EC9A9F0CE
:0B0EFF00FA120EB0FF120FD380E122A8
:0C0FC700758911758DFF758B8ED28E22FE
:100AAA00020406E493A3F8E493A34003F68001F258
:100ABA0008DFF48029E493A3F85407240CC8C3334D
:100ACA00C4540F4420C8834004F456800146F6DF1C
:100ADA00E4800B0102040810204080900941E47E62
:100AEA00019360BCA3FF543F30E509541FFEE49311
:100AFA00A360010ECF54C025E060A840B8E493A3D8
:100B0A00FAE493A3F8E493A3C8C582C8CAC583CA02
:100B1A00F0A3C8C582C8CAC583CADFE9DEE780BEBA
:010A010000F4
:100EB000BB010689828A83E0225002E722BBFE0240
:090EC000E32289828A83E4932273
:100EC900A3F8E0C5F025F0F0E582158270021583DC
:060ED900E0C838F0E82239
:00000001FF
