:030000000206B93C
:0C06B900787FE4F6D8FD7581640207002C
:10074500C100C10AC103C104C105C106C1070253E5
:100755000000025500000257000002590000012563
:1007650000012900012A00022200000232000002D5
:100775002700001C340000000000000000000000FD
:100785000000000000000000000000000000000064
:1007950000075E00000000000000072B00000000BD
:1007A500000000025C0000C10B01510001260001A0
:1007B5002400C182015B00C108C101C109015000CB
:0307C500015201DD
:1009BA00E4FDFCC3ED9FEC9E5015E4FBFA0BBB0073
:0F09CA00010AEB64174A70F50DBD00010C80E4C3
:0109D90022FB
:10095A00750BAAE4F50AE4F9E50BC2907F507E0014
:10096A001209BAD290E50B25E0F50B7F967E0012AC
:10097A0009BA09B908E2750BAA7F507E001209BAB2
:0B098A00050AE50AC3940140CDD2909D
:01099500223F
:10056C00120A4E12000E1207F3D2A4D2A9D2ABD2A9
:10057C00BBD2AF120003D290C2947F061208008E39
:10058C005C8F5DD203E4F555F556C205300546C3C4
:10059C00E5569401E5559400503BD2947F05120723
:1005AC00C97F967E00120A1A7F061207C97F507EF9
:1005BC0000120A1A7F071207C97F787E00120A1AE6
:1005CC00C294C2A47F0A7E00120A1AD2A40556E570
:1005DC00567002055530062CC3E5589401E5579426
:1005EC00005021D2947F041207C97FB47E00120AF6
:1005FC001AC2A47F0A7E00120A1AD2A40558E55822
:10060C007002055730072CC3E55A9401E559940044
:10061C005021D2947F081207C97FB47E00120A1AA7
:10062C00C2A47F0A7E00120A1AD2A4055AE55A7097
:10063C000205593008467F061208008E5C8F5DC299
:10064C0008E552B40114D3E55D945AE55C9403506B
:10065C0009E4F552D2947F098016E552701EC3E569
:10066C005D9477E55C94034013755201D2947F023C
:10067C001207C97F787E00120A1AC294300109C28F
:10068C0093120874D293C201200902A198D2947FCC
:10069C00021207C97F507E00120A1A7F031207C983
:0D06AC007F507E00120A1AC294C209A19864
:03001B00020406D6
:10040600C0E0C0F0C083C082C0D075D000C000C0BC
:1004160001C002C003C004C005C006C007758DFF39
:10042600758B8E20910E0551C202E551649670546B
:10043600F551805020023CD202E551D3943C401540
:10044600E551D39464500EE52625E0F5265326FEA5
:100456000524755B00E551D394644010E52625E03C
:10046600F5264326010524755B008002055B755160
:10047600008011055BE55BC394784008752400D2C3
:1004860002752A00E52464087032F524742B252AA7
:10049600F8A626E52A700AE52BB4C805752A018058
:1004A6001BE52AB4010AE52CB4E005752A02800C86
:1004B600E52AB40204D20A8000752A00200A02A1A5
:1004C60051C20AC293E52D243D603814604714607A
:1004D6005E146075240570737527007528007555C0
:1004E60000755600C205755700755800C206755945
:1004F60000755A00C207C2A47F0A7E00120A1AD2E9
:10050600A48048752700752800D2057557007558D0
:1005160000C2068010752700752800D206755500A2
:10052600755600C205755900755A00C207801C75BC
:100536002700752800D207755500755600C2057547
:100546005700755800C2068002D209D007D006D0DF
:1005560005D004D003D002D001D000D0D0D082D0B4
:0605660083D0F0D0E0326A
:03000B00020917D0
:10091700C0E0C0D0758C24758A450523E523700295
:100927000522C3943CE52294004023D208300318E3
:100937000528E52870020527D2019404E5279400CD
:100947004006752700752805752200752300D0D04D
:03095700D0E032BB
:10087400C2A6D2A7755EC8755FE07560C112095A39
:10088400E4F508E4F509745E2508F8E630E706C2E5
:10089400907F788004C2907F507E001209BAD29073
:1008A400745E2508F8C000E625E0D000F67F327EAD
:1008B400001209BA0509E509C3940840C90508E509
:0808C40008C3940340BDC2A764
:0108CC002209
:100A1A00EF1FAA0670011E4A60107C137D88ED1D27
:0A0A2A00AA0470011C4A60E880F481
:010A3400229F
:10080000E4FAEF6405703343F620C2F8C2F9D2FA75
:1008100043E180C2FCD2FBADF8EDC413135403FDD9
:10082000AFE2AB07EB7E007802C333CE33CED8F90C
:100830007C002DFBEC3EAF03FE22EF6406703443D8
:10084000F640D2F8C2F9D2FA43E180C2FCD2FBAD45
:10085000F8EDC413135403FDAFE27A00AB07EB7E4F
:10086000007802C333CE33CED8F97C002DFBEC3EAA
:03087000FEAF03D5
:010873002262
:100A630075DCC0750F0075101DE50FF5D1E510F5A8
:020A7300D92286
:1008CD00EF1460191460251460312403703B750F0B
:1008DD000075100DE50FF5D2E510F5DA22750F0153
:1008ED00751000E50FF5D3E510F5DB22750F0075DA
:1008FD001080E50FF5D5E510F5DD22750F007510AB
:0A090D0040E50FF5D6E510F5DE22F7
:08000300E4FF1208CD020A63BC
:0C000E00758911758C24758A45D28C22EE
:10001E00000102030405060708090A0B0C0D0E0F5A
:10002E00101112131415161718191A1B1C1D1E1F4A
:10003E00202122232425262728292A2B2C2D2E2F3A
:10004E003031000102030405060708090A0B0C0DE6
:10005E000E0F101112131415161718191A1B1C1D3A
:10006E001E1F202122232425262728292A2B2C2D2A
:10007E002E2F3031000102030405060708090A0B72
:10008E000C0D0E0F101112131415161718191A1B2A
:10009E001C1D1E1F202122232425262728292A2B1A
:1000AE002C2D2E2F303100010203040506070809FE
:1000BE000A0B0C0D0E0F101112131415161718191A
:1000CE001A1B1C1D1E1F202122232425262728290A
:1000DE002A2B2C2D2E2F303100010203040506078A
:1000EE0008090A0B0C0D0E0F10111213141516170A
:1000FE0018191A1B1C1D1E1F2021222324252627FA
:10010E0028292A2B2C2D2E2F303100010203040515
:10011E00060708090A0B0C0D0E0F101112131415F9
:10012E00161718191A1B1C1D1E1F202122232425E9
:10013E00262728292A2B2C2D2E2F303100010203A1
:10014E000405060708090A0B0C0D0E0F10111213E9
:10015E001415161718191A1B1C1D1E1F20212223D9
:10016E002425262728292A2B2C2D2E2F303100012D
:10017E0002030405060708090A0B0C0D0E0F1011D9
:10018E0012131415161718191A1B1C1D1E1F2021C9
:10019E0022232425262728292A2B2C2D2E2F3031B9
:1001AE00000102030405060708090A0B0C0D0E0FC9
:1001BE00101112131415161718191A1B1C1D1E1FB9
:1001CE00202122232425262728292A2B2C2D2E2FA9
:1001DE003031000102030405060708090A0B0C0D55
:1001EE000E0F101112131415161718191A1B1C1DA9
:1001FE001E1F202122232425262728292A2B2C2D99
:10020E002E2F3031000102030405060708090A0BE0
:10021E000C0D0E0F101112131415161718191A1B98
:10022E001C1D1E1F202122232425262728292A2B88
:10023E002C2D2E2F3031000102030405060708096C
:10024E000A0B0C0D0E0F1011121314151617181988
:10025E001A1B1C1D1E1F2021222324252627282978
:10026E002A2B2C2D2E2F30310001020304050607F8
:10027E0008090A0B0C0D0E0F101112131415161778
:10028E0018191A1B1C1D1E1F202122232425262768
:10029E0028292A2B2C2D2E2F303100010203040584
:1002AE00060708090A0B0C0D0E0F10111213141568
:1002BE00161718191A1B1C1D1E1F20212223242558
:1002CE00262728292A2B2C2D2E2F30310001020310
:1002DE000405060708090A0B0C0D0E0F1011121358
:1002EE001415161718191A1B1C1D1E1F2021222348
:1002FE002425262728292A2B2C2D2E2F303100019C
:10030E0002030405060708090A0B0C0D0E0F101147
:10031E0012131415161718191A1B1C1D1E1F202137
:10032E0022232425262728292A2B2C2D2E2F303127
:10033E00000102030405060708090A0B0C0D0E0F37
:10034E00101112131415161718191A1B1C1D1E1F27
:10035E00202122232425262728292A2B2C2D2E2F17
:10036E003031000102030405060708090A0B0C0DC3
:10037E000E0F101112131415161718191A1B1C1D17
:10038E001E1F202122232425262728292A2B2C2D07
:10039E002E2F3031000102030405060708090A0B4F
:1003AE000C0D0E0F101112131415161718191A1B07
:1003BE001C1D1E1F202122232425262728292A2BF7
:1003CE002C2D2E2F303100010203040506070809DB
:1003DE000A0B0C0D0E0F10111213141516171819F7
:1003EE001A1B1C1D1E1F20212223242526272829E7
:0803FE002A2B2C2D2E2F30318B
:100A750053A2BF75985A758920758BC6758DC6D2D8
:020A85008E22BF
:080A87008F993099FDC29922FC
:100996008B0C8A0D890EAF051DEF6017AB0C050E8B
:1009A600E50EAA0D7002050D14F9120A35FF120A9A
:0409B6008780E32231
:1009DA00E4FDFCC3ED9FEC9E5015E4FBFA0BBB0053
:0F09EA00010ABA02F8BB58F50DBD00010C80E4FC
:0109F90022DB
:1009FA00E4FDFCC3ED9FEC9E5015E4FBFA0BBB0033
:0F0A0A00010AEB64024A70F50DBD00010C80E497
:010A190022BA
:0207C9008F0897
:1007CB00C2A07F287E001209DAD2A01209DAE4F95E
:1007DB00E9C395085011D2A17F5E7E011209FAC2BE
:0707EB00A11209FA0980E9DF
:0107F20022E4
:100A4E00C294C2A1C2A07FE87E031209FAD2A012FC
:050A5E0009FAD2942208
:0C07F300758911758DFF758B8ED28E22DA
:1006C50002056CE493A3F8E493A34003F68001F2DA
:1006D50008DFF48029E493A3F85407240CC8C33336
:1006E500C4540F4420C8834004F456800146F6DF05
:1006F500E4800B0102040810204080900745E47E49
:10070500019360BCA3FF543F30E509541FFEE493F9
:10071500A360010ECF54C025E060A840B8E493A3C0
:10072500FAE493A3F8E493A3C8C582C8CAC583CAEB
:10073500F0A3C8C582C8CAC583CADFE9DEE780BEA3
:0107C8000030
:100A3500BB010689828A83E0225002E722BBFE02BF
:090A4500E32289828A83E49322F2
:00000001FF
