:030000000206BE37
:0C06BE00787FE4F6D8FD75815C0207052A
:10074A00C100C10AC103C104C105C106C107024BE8
:10075A000000024D0000024F000002510000012576
:10076A0000012900012A0002220000022B000002D7
:10077A002700001C2D0000000000000000000000FF
:10078A00000000000000000000000000000000005F
:10079A000007560000000000000002540000C10BD0
:1007AA00014900012600012400C182015300C10849
:0707BA00C101C109014A0160
:1009AF00E4FDFCC3ED9FEC9E5015E4FBFA0BBB007E
:0F09BF00010AEB64174A70F50DBD00010C80E4CE
:0109CE002206
:10092500750BAAE4F50AE4F9E50BC2907F507E0049
:100935001209AFD290E50B25E0F50B7F967E0012EC
:1009450009AF09B908E2750BAA7F507E001209AFFD
:0B095500050AE50AC3940140CDD290D2
:010960002274
:10057700120A4312000E120A7CD2A4D2A9D2ABD21D
:10058700BBD2AF120003D290C2947F061207C28E6D
:10059700548F55D2947F031209617F647E00120A3B
:1005A7000FC294D203E4F54DF54EC20530052EC3B4
:1005B700E54E9403E54D94005023054EE54E700239
:1005C700054DD2947F011209617F967E00120A0FB2
:1005D700C294C2A47F0A7E00120A0FD2A430062C4E
:1005E700C3E5509403E54F940050210550E5507042
:1005F70002054FD2947F051209617FB47E00120A6B
:100607000FC2A47F0A7E00120A0FD2A430072CC3A0
:10061700E5529403E551940050210552E5527002CA
:100627000551D2947F041209617FB47E00120A0F2C
:10063700C2A47F0A7E00120A0FD2A43008467F06A2
:100647001207C28E548F55C208E54AB40114D3E588
:1006570055945AE55494035009E4F54AD2947F0916
:100667008016E54A701EC3E5559477E55494034018
:1006770013754A01D2947F021209617F787E0012B6
:100687000A0FC294300109C293120836D293C201ED
:100697002009030205B3D2947F021209617F507EBD
:1006A70000120A0F7F031209617F507E00120A0FA2
:0706B700C294C2090205B361
:03001B00020406D6
:10040600C0E0C0F0C083C082C0D075D000C000C0BC
:1004160001C002C003C004C005C006C007758DFF39
:10042600758B8E20910E0549C202E549649670547B
:10043600F549805020023CD202E549D3943C401550
:10044600E549D39464500EE52625E0F5265326FEAD
:100456000524755300E549D394644010E52625E04C
:10046600F526432601052475530080020553754978
:100476000080110553E553C394784008752400D2D3
:1004860002752A00E52464087044F5247456252A6A
:10049600F8A626E52A700AE556B4C805752A01802D
:1004A6002DE52AB4010AE557B4E005752A02801E37
:1004B600E52AC39402400BE52AD394055004052A85
:1004C600800CE52AB40604D20A8000752A00200AA8
:1004D6000302055CC20AC293E558243D601D146000
:1004E6003F14605614606D2405706B7527007528DF
:1004F60000754D00754E00C20580087527007528E9
:1005060000D205754F00755000C206755100755230
:1005160000C207C2A47F0A7E00120A0FD2A4803648
:10052600752700752800D206754D00754E00C20568
:10053600755100755200C207801C7527007528008A
:10054600D207754D00754E00C205754F00755000F7
:10055600C2068002D209D007D006D005D004D00347
:10056600D002D001D000D0D0D082D083D0F0D0E05D
:010576003252
:03000B000208E206
:1008E200C0E0C0D0758C24758A450523E5237002CB
:1008F2000522C3943CE52294004023D20830031819
:100902000528E52870020527D2019404E527940002
:100912004006752700752805752200752300D0D082
:03092200D0E032F0
:10083600C2A6D2A77556C87557E07558C1E4F559D2
:10084600F55AF55BF55C120925E4F508E4F509743B
:10085600562508F8E630E706C2907F788004C290F5
:100866007F507E001209AFD29074562508F8C0005A
:10087600E625E0D000F67F327E001209AF0509E5D5
:1008860009C3940840C90508E508C3940740BDC2DA
:01089600A7BA
:01089700223E
:100A0F00EF1FAA0670011E4A60107C137D88ED1D32
:0A0A1F00AA0470011C4A60E880F48C
:010A290022AA
:1007C200E4FAEF6405703343F620C2F8C2F9D2FAB4
:1007D20043E180C2FCD2FBADF8EDC413135403FD18
:1007E200AFE2AB07EB7E007802C333CE33CED8F94B
:1007F2007C002DFBEC3EAF03FE22EF640670344317
:10080200F640D2F8C2F9D2FA43E180C2FCD2FBAD83
:10081200F8EDC413135403FDAFE27A00AB07EB7E8D
:10082200007802C333CE33CED8F97C002DFBEC3EE8
:03083200FEAF0313
:0108350022A0
:100A580075DCC0750F0075101DE50FF5D1E510F5B3
:020A6800D92291
:10089800EF1460191460251460312403703B750F40
:1008A8000075100DE50FF5D2E510F5DA22750F0188
:1008B800751000E50FF5D3E510F5DB22750F00750F
:1008C8001080E50FF5D5E510F5DD22750F007510E0
:0A08D80040E50FF5D6E510F5DE222D
:08000300E4FF120898020A58FC
:0C000E00758911758C24758A45D28C22EE
:10001E00000102030405060708090A0B0C0D0E0F5A
:10002E00101112131415161718191A1B1C1D1E1F4A
:10003E00202122232425262728292A2B2C2D2E2F3A
:10004E003031000102030405060708090A0B0C0DE6
:10005E000E0F101112131415161718191A1B1C1D3A
:10006E001E1F202122232425262728292A2B2C2D2A
:10007E002E2F3031000102030405060708090A0B72
:10008E000C0D0E0F101112131415161718191A1B2A
:10009E001C1D1E1F202122232425262728292A2B1A
:1000AE002C2D2E2F303100010203040506070809FE
:1000BE000A0B0C0D0E0F101112131415161718191A
:1000CE001A1B1C1D1E1F202122232425262728290A
:1000DE002A2B2C2D2E2F303100010203040506078A
:1000EE0008090A0B0C0D0E0F10111213141516170A
:1000FE0018191A1B1C1D1E1F2021222324252627FA
:10010E0028292A2B2C2D2E2F303100010203040515
:10011E00060708090A0B0C0D0E0F101112131415F9
:10012E00161718191A1B1C1D1E1F202122232425E9
:10013E00262728292A2B2C2D2E2F303100010203A1
:10014E000405060708090A0B0C0D0E0F10111213E9
:10015E001415161718191A1B1C1D1E1F20212223D9
:10016E002425262728292A2B2C2D2E2F303100012D
:10017E0002030405060708090A0B0C0D0E0F1011D9
:10018E0012131415161718191A1B1C1D1E1F2021C9
:10019E0022232425262728292A2B2C2D2E2F3031B9
:1001AE00000102030405060708090A0B0C0D0E0FC9
:1001BE00101112131415161718191A1B1C1D1E1FB9
:1001CE00202122232425262728292A2B2C2D2E2FA9
:1001DE003031000102030405060708090A0B0C0D55
:1001EE000E0F101112131415161718191A1B1C1DA9
:1001FE001E1F202122232425262728292A2B2C2D99
:10020E002E2F3031000102030405060708090A0BE0
:10021E000C0D0E0F101112131415161718191A1B98
:10022E001C1D1E1F202122232425262728292A2B88
:10023E002C2D2E2F3031000102030405060708096C
:10024E000A0B0C0D0E0F1011121314151617181988
:10025E001A1B1C1D1E1F2021222324252627282978
:10026E002A2B2C2D2E2F30310001020304050607F8
:10027E0008090A0B0C0D0E0F101112131415161778
:10028E0018191A1B1C1D1E1F202122232425262768
:10029E0028292A2B2C2D2E2F303100010203040584
:1002AE00060708090A0B0C0D0E0F10111213141568
:1002BE00161718191A1B1C1D1E1F20212223242558
:1002CE00262728292A2B2C2D2E2F30310001020310
:1002DE000405060708090A0B0C0D0E0F1011121358
:1002EE001415161718191A1B1C1D1E1F2021222348
:1002FE002425262728292A2B2C2D2E2F303100019C
:10030E0002030405060708090A0B0C0D0E0F101147
:10031E0012131415161718191A1B1C1D1E1F202137
:10032E0022232425262728292A2B2C2D2E2F303127
:10033E00000102030405060708090A0B0C0D0E0F37
:10034E00101112131415161718191A1B1C1D1E1F27
:10035E00202122232425262728292A2B2C2D2E2F17
:10036E003031000102030405060708090A0B0C0DC3
:10037E000E0F101112131415161718191A1B1C1D17
:10038E001E1F202122232425262728292A2B2C2D07
:10039E002E2F3031000102030405060708090A0B4F
:1003AE000C0D0E0F101112131415161718191A1B07
:1003BE001C1D1E1F202122232425262728292A2BF7
:1003CE002C2D2E2F303100010203040506070809DB
:1003DE000A0B0C0D0E0F10111213141516171819F7
:1003EE001A1B1C1D1E1F20212223242526272829E7
:0803FE002A2B2C2D2E2F30318B
:100A6A0053A2BF75985A758920758BC6758DC6D2E3
:020A7A008E22CA
:080A88008F993099FDC29922FB
:10098B008B0C8A0D890EAF051DEF6017AB0C050E96
:10099B00E50EAA0D7002050D14F9120A2AFF120AB0
:0409AB008880E3223B
:1009CF00E4FDFCC3ED9FEC9E5015E4FBFA0BBB005E
:0F09DF00010ABA02F8BB58F50DBD00010C80E407
:0109EE0022E6
:1009EF00E4FDFCC3ED9FEC9E5015E4FBFA0BBB003E
:0F09FF00010AEB64024A70F50DBD00010C80E4A3
:010A0E0022C5
:020961008F08FD
:10096300C2A07F287E001209CFD2A01209CFE4F9DA
:10097300E9C395085011D2A17F5E7E011209EFC22F
:07098300A11209EF0980E950
:01098A00224A
:100A4300C294C2A1C2A07FE87E031209EFD2A01212
:050A530009EFD294221E
:0C0A7C00758911758DFF758B8ED28E224E
:1006CA00020577E493A3F8E493A34003F68001F2CA
:1006DA0008DFF48029E493A3F85407240CC8C33331
:1006EA00C4540F4420C8834004F456800146F6DF00
:1006FA00E4800B010204081020408090074AE47E3F
:10070A00019360BCA3FF543F30E509541FFEE493F4
:10071A00A360010ECF54C025E060A840B8E493A3BB
:10072A00FAE493A3F8E493A3C8C582C8CAC583CAE6
:10073A00F0A3C8C582C8CAC583CADFE9DEE780BE9E
:0107C1000037
:100A2A00BB010689828A83E0225002E722BBFE02CA
:090A3A00E32289828A83E49322FD
:00000001FF
