:0300000002068570
:0C068500787FE4F6D8FD7581640206CC95
:10071100C100C10AC103C104C105C106C107025319
:100721000000025500000257000002590000012597
:1007310000012900012A0002220000023200000209
:100741002700001C34000000000000000000000031
:100751000000000000000000000000000000000098
:1007610000075E00000000000000072B00000000F1
:10077100000000025C0000C10B01510001260001D4
:100781002400C182015B00C108C101C109015000FF
:0307910001520111
:1009A100E4FDFCC3ED9FEC9E5015E4FBFA0BBB008C
:0F09B100010AEB64174A70F50DBD00010C80E4DC
:0109C0002214
:10091700750BAAE4F50AE4F9E50BC2907F507E0057
:100927001209A1D290E50B25E0F50B7F967E001208
:1009370009A109B908E2750BAA7F507E001209A127
:0B094700050AE50AC3940140CDD290E0
:010952002282
:10055A00120A3512000E120A6ED2A4D2A9D2ABD256
:10056A00BBD2AF120003D290C2947F061208008E4B
:10057A005C8F5DD203E4F555F556C205300546C3D6
:10058A00E5569402E5559400503BD2947F05120932
:10059A00537F967E00120A017F061209537F507E0E
:1005AA0000120A017F071209537F787E00120A019E
:1005BA00C294C2A47F0A7E00120A01D2A40556E59B
:1005CA00567002055530061BD2947F041209537FD8
:1005DA00B47E00120A01C2A47F0A7E00120A01D266
:1005EA00A4C20630071BD2947F081209537FB47E37
:1005FA0000120A01C2A47F0A7E00120A01D2A4C212
:10060A00073008467F061208008E5C8F5DC208E537
:10061A0052B40114D3E55D945AE55C94035009E49D
:10062A00F552D2947F098016E552701EC3E55D9497
:10063A0077E55C94034013755201D2947F02120944
:10064A00537F787E00120A01C294300109C29312C4
:10065A000874D293C201200902A186D2947F0212A1
:10066A0009537F507E00120A017F031209537F50FB
:0B067A007E00120A01C294C209A18692
:03001B00020406D6
:10040600C0E0C0F0C083C082C0D075D000C000C0BC
:1004160001C002C003C004C005C006C007758DFF39
:10042600758B8E20910E0551C202E551649670546B
:10043600F551805020023CD202E551D3943C401540
:10044600E551D39464500EE52625E0F5265326FEA5
:100456000524755B00E551D394644010E52625E03C
:10046600F5264326010524755B008002055B755160
:10047600008011055BE55BC394784008752400D2C3
:1004860002752A00E52464087032F524742B252AA7
:10049600F8A626E52A700AE52BB4C805752A018058
:1004A6001BE52AB4010AE52CB4E005752A02800C86
:1004B600E52AB40204D20A8000752A00300A7AC2FC
:1004C6000AC293E52D243D601D14602C146043146C
:1004D60060652405706375270075280075550075DD
:1004E6005600C2058008752700752800D205755785
:1004F60000755800C2068010752700752800D206C0
:10050600755500755600C205755900755A00C20723
:100516008018752700752800D20775550075560096
:10052600C205755700755800C206C2A47F0A7E0030
:10053600120A01D2A48002D209D007D006D005D073
:1005460004D003D002D001D000D0D0D082D083D046
:04055600F0D0E032CF
:03000B0002079554
:10079500C0E0C0D0758C24758A450523E523700219
:1007A5000522C3943CE52294004023D20830031867
:1007B5000528E52870020527D2019404E527940051
:1007C5004006752700752805752200752300C3E5C9
:1007D500569402E555940040180556E556700205F5
:1007E50055B4600DE555B40908755500755600C238
:0607F50005D0D0D0E03277
:10087400C2A6D2A7755EC8755FE07560C11209177C
:10088400E4F508E4F509745E2508F8E630E706C2E5
:10089400907F788004C2907F507E001209A1D2908C
:1008A400745E2508F8C000E625E0D000F67F327EAD
:1008B400001209A10509E509C3940840C90508E522
:0808C40008C3940340BDC2A764
:0108CC002209
:100A0100EF1FAA0670011E4A60107C137D88ED1D40
:0A0A1100AA0470011C4A60E880F49A
:010A1B0022B8
:10080000E4FAEF6405703343F620C2F8C2F9D2FA75
:1008100043E180C2FCD2FBADF8EDC413135403FDD9
:10082000AFE2AB07EB7E007802C333CE33CED8F90C
:100830007C002DFBEC3EAF03FE22EF6406703443D8
:10084000F640D2F8C2F9D2FA43E180C2FCD2FBAD45
:10085000F8EDC413135403FDAFE27A00AB07EB7E4F
:10086000007802C333CE33CED8F97C002DFBEC3EAA
:03087000FEAF03D5
:010873002262
:100A4A0075DCC0750F0075101DE50FF5D1E510F5C1
:020A5A00D9229F
:1008CD00EF1460191460251460312403703B750F0B
:1008DD000075100DE50FF5D2E510F5DA22750F0153
:1008ED00751000E50FF5D3E510F5DB22750F0075DA
:1008FD001080E50FF5D5E510F5DD22750F007510AB
:0A090D0040E50FF5D6E510F5DE22F7
:08000300E4FF1208CD020A4AD5
:0C000E00758911758C24758A45D28C22EE
:10001E00000102030405060708090A0B0C0D0E0F5A
:10002E00101112131415161718191A1B1C1D1E1F4A
:10003E00202122232425262728292A2B2C2D2E2F3A
:10004E003031000102030405060708090A0B0C0DE6
:10005E000E0F101112131415161718191A1B1C1D3A
:10006E001E1F202122232425262728292A2B2C2D2A
:10007E002E2F3031000102030405060708090A0B72
:10008E000C0D0E0F101112131415161718191A1B2A
:10009E001C1D1E1F202122232425262728292A2B1A
:1000AE002C2D2E2F303100010203040506070809FE
:1000BE000A0B0C0D0E0F101112131415161718191A
:1000CE001A1B1C1D1E1F202122232425262728290A
:1000DE002A2B2C2D2E2F303100010203040506078A
:1000EE0008090A0B0C0D0E0F10111213141516170A
:1000FE0018191A1B1C1D1E1F2021222324252627FA
:10010E0028292A2B2C2D2E2F303100010203040515
:10011E00060708090A0B0C0D0E0F101112131415F9
:10012E00161718191A1B1C1D1E1F202122232425E9
:10013E00262728292A2B2C2D2E2F303100010203A1
:10014E000405060708090A0B0C0D0E0F10111213E9
:10015E001415161718191A1B1C1D1E1F20212223D9
:10016E002425262728292A2B2C2D2E2F303100012D
:10017E0002030405060708090A0B0C0D0E0F1011D9
:10018E0012131415161718191A1B1C1D1E1F2021C9
:10019E0022232425262728292A2B2C2D2E2F3031B9
:1001AE00000102030405060708090A0B0C0D0E0FC9
:1001BE00101112131415161718191A1B1C1D1E1FB9
:1001CE00202122232425262728292A2B2C2D2E2FA9
:1001DE003031000102030405060708090A0B0C0D55
:1001EE000E0F101112131415161718191A1B1C1DA9
:1001FE001E1F202122232425262728292A2B2C2D99
:10020E002E2F3031000102030405060708090A0BE0
:10021E000C0D0E0F101112131415161718191A1B98
:10022E001C1D1E1F202122232425262728292A2B88
:10023E002C2D2E2F3031000102030405060708096C
:10024E000A0B0C0D0E0F1011121314151617181988
:10025E001A1B1C1D1E1F2021222324252627282978
:10026E002A2B2C2D2E2F30310001020304050607F8
:10027E0008090A0B0C0D0E0F101112131415161778
:10028E0018191A1B1C1D1E1F202122232425262768
:10029E0028292A2B2C2D2E2F303100010203040584
:1002AE00060708090A0B0C0D0E0F10111213141568
:1002BE00161718191A1B1C1D1E1F20212223242558
:1002CE00262728292A2B2C2D2E2F30310001020310
:1002DE000405060708090A0B0C0D0E0F1011121358
:1002EE001415161718191A1B1C1D1E1F2021222348
:1002FE002425262728292A2B2C2D2E2F303100019C
:10030E0002030405060708090A0B0C0D0E0F101147
:10031E0012131415161718191A1B1C1D1E1F202137
:10032E0022232425262728292A2B2C2D2E2F303127
:10033E00000102030405060708090A0B0C0D0E0F37
:10034E00101112131415161718191A1B1C1D1E1F27
:10035E00202122232425262728292A2B2C2D2E2F17
:10036E003031000102030405060708090A0B0C0DC3
:10037E000E0F101112131415161718191A1B1C1D17
:10038E001E1F202122232425262728292A2B2C2D07
:10039E002E2F3031000102030405060708090A0B4F
:1003AE000C0D0E0F101112131415161718191A1B07
:1003BE001C1D1E1F202122232425262728292A2BF7
:1003CE002C2D2E2F303100010203040506070809DB
:1003DE000A0B0C0D0E0F10111213141516171819F7
:1003EE001A1B1C1D1E1F20212223242526272829E7
:0803FE002A2B2C2D2E2F30318B
:100A5C0053A2BF75985A758920758BC6758DC6D2F1
:020A6C008E22D8
:080A7A008F993099FDC2992209
:10097D008B0C8A0D890EAF051DEF6017AB0C050EA4
:10098D00E50EAA0D7002050D14F9120A1CFF120ACC
:04099D007A80E32257
:1009C100E4FDFCC3ED9FEC9E5015E4FBFA0BBB006C
:0F09D100010ABA02F8BB58F50DBD00010C80E415
:0109E00022F4
:1009E100E4FDFCC3ED9FEC9E5015E4FBFA0BBB004C
:0F09F100010AEB64024A70F50DBD00010C80E4B1
:010A000022D3
:020953008F080B
:10095500C2A07F287E001209C1D2A01209C1E4F904
:10096500E9C395085011D2A17F5E7E011209E1C24B
:07097500A11209E10980E96C
:01097C002258
:100A3500C294C2A1C2A07FE87E031209E1D2A0122E
:050A450009E1D294223A
:0C0A6E00758911758DFF758B8ED28E225C
:1006910002055AE493A3F8E493A34003F68001F220
:1006A10008DFF48029E493A3F85407240CC8C3336A
:1006B100C4540F4420C8834004F456800146F6DF39
:1006C100E4800B0102040810204080900711E47EB1
:1006D100019360BCA3FF543F30E509541FFEE4932E
:1006E100A360010ECF54C025E060A840B8E493A3F5
:1006F100FAE493A3F8E493A3C8C582C8CAC583CA20
:10070100F0A3C8C582C8CAC583CADFE9DEE780BED7
:010794000064
:100A1C00BB010689828A83E0225002E722BBFE02D8
:090A2C00E32289828A83E493220B
:00000001FF
