:0300000002064EA7
:0C064E00787FE4F6D8FD75815D0206950A
:10075900C104C100C10DC103C105C106C107C1085A
:10076900024C0000024E000002500000025200003C
:10077900C101C109C10AC10BC10C01250001290030
:10078900012A0002220000022B0000022700001C9F
:100799002D00000000000000000000000000000023
:1007A90000000000000000000000000000075700E2
:1007B9000000000000000249000002550000C10EBF
:0E07C900014B00012600012400C182015400F2
:0509F500F67F327E00D8
:1009FA00E4FDFCC3ED9FEC9E5015E4FBFA0BBB0033
:0F0A0A00010AEB64174A70F50DBD00010C80E482
:010A190022BA
:09098600E4F55AF55BF55CF55D42
:10098F00750CAAE4F50BE4F9E50CC2907F507E00DC
:10099F001209FAD290E50C25E0F50C7F967E001235
:1009AF0009FA09B908E2750CAA7F507E001209FAFC
:0B09BF00050BE50BC3940140CDD29066
:0109CA00220A
:10057800120AB212000E120AEBD283D284C292D2AD
:10058800A4D2A9D2ABD2BBD2AF120003D290C294EC
:100598007F061207D88E558F56D2947F031209CB47
:1005A8007F647E00120A7EC294D203D204E4F54E20
:1005B800F54FC20630062EC3E54F9403E54E94006E
:1005C8005023054FE54F7002054ED2947F01120962
:1005D800CB7F967E00120A7EC294C2A47F0A7E0058
:1005E800120A7ED2A430072CC3E5519403E5509437
:1005F8000050210551E55170020550D2947F051233
:1006080009CB7FB47E00120A7EC2A47F0A7E001244
:100618000A7ED2A430089DC3E5539403E5529400A2
:1006280050920553E55370020552D2947F04120983
:10063800CB7FB47E00120A7EC2A47F0A7E00120A13
:060648007ED2A40205BCF5
:03001B00020406D6
:10040600C0E0C0F0C083C082C0D075D000C000C0BC
:1004160001C002C003C004C005C006C007758DFF39
:10042600758B8E20910E054BC202E54B6496705477
:10043600F54B805020023CD202E54BD3943C40154C
:10044600E54BD39464500EE52625E0F5265326FEAB
:100456000524755400E54BD394644010E52625E049
:10046600F526432601052475540080020554754B74
:100476000080110554E554C394784008752400D2D1
:1004860002752A00E52464087044F5247457252A69
:10049600F8A626E52A700AE557B4C805752A01802C
:1004A6002DE52AB4010AE558B4E005752A02801E36
:1004B600E52AC39402400BE52AD394055004052A85
:1004C600800CE52AB40604D20D8000752A00200DA2
:1004D6000302055DC20DC293E559243D60351460E3
:1004E6004414605B2404706F752700752800754EF0
:1004F60000754F00C206755000755100C20775524F
:1005060000755300C208C2A47F0A7E00120A7ED27A
:10051600A48044752700752800D2067550007551D1
:1005260000C2078010752700752800D207754E0097
:10053600754F00C206755200755300C208801875C3
:100546002700752800D208754E00754F00C2067543
:100556005000755100C207D007D006D005D004D090
:1005660003D002D001D000D0D0D082D083D0F0D03A
:02057600E03271
:03000B000206DA10
:1006DA00C0E0C0F0C083C082C0D075D000C000C0E6
:1006EA0001C002C003C004C005C006C007758C243F
:1006FA00758A450523E52370020522C3943CE52249
:10070A00940040307F061207D88E558F5630031E4C
:10071A00C29312084CD2930528E52870020527C314
:10072A009404E5279400400675270075280575226C
:10073A0000752300D007D006D005D004D003D0021C
:0F074A00D001D000D0D0D082D083D0F0D0E03218
:1008A0007557C87558E0E4F559120987E4F510E466
:1008B000F51174572510F8E630E706C2907F78806E
:1008C00004C2907F507E001209FAD290745725100E
:1008D000F8C000E625E0D0001209F50511E511C3C6
:0D08E000940840CE0510E510C3940740C2F7
:0108ED0022E8
:1008EE007557C87558E0755901120986E4F512E47A
:1008FE00F51374572512F8E630E706C2907F78801C
:10090E0004C2907F507E001209FAD29074572512BD
:10091E00F8C000E625E0D0001209F50513E513C373
:0D092E00940840CE0512E512C3940740C2A4
:01093B002299
:10084C00C2A6D2A77557C87558E07559C11209864A
:10085C00E4F509E4F50A74572509F8E630E706C211
:10086C00907F788004C2907F507E001209FAD2905B
:10087C0074572509F8C000E625E0D0001209F505EB
:10088C000AE50AC3940840CE0509E509C39407405C
:03089C00C2C2A72E
:01089F002236
:100A7E00EF1FAA0670011E4A60107C137D88ED1DC3
:0A0A8E00AA0470011C4A60E880F41D
:010A9800223B
:1007D800E4FAEF6405703343F620C2F8C2F9D2FA9E
:1007E80043E180C2FCD2FBADF8EDC413135403FD02
:1007F800AFE2AB07EB7E007802C333CE33CED8F935
:100808007C002DFBEC3EAF03FE22EF640670344300
:10081800F640D2F8C2F9D2FA43E180C2FCD2FBAD6D
:10082800F8EDC413135403FDAFE27A00AB07EB7E77
:10083800007802C333CE33CED8F97C002DFBEC3ED2
:03084800FEAF03FD
:01084B00228A
:100AC70075DCC075140075151DE514F5D1E515F530
:020AD700D92222
:10093C00EF1460191460251460312403703B751496
:10094C000075150DE514F5D2E515F5DA22751401CF
:10095C00751500E514F5D3E515F5DB227514007556
:10096C001580E514F5D5E515F5DD22751400751522
:0A097C0040E514F5D6E515F5DE227E
:08000300E4FF12093C020AC7E8
:0C000E00758911758C24758A45D28C22EE
:10001E00000102030405060708090A0B0C0D0E0F5A
:10002E00101112131415161718191A1B1C1D1E1F4A
:10003E00202122232425262728292A2B2C2D2E2F3A
:10004E003031000102030405060708090A0B0C0DE6
:10005E000E0F101112131415161718191A1B1C1D3A
:10006E001E1F202122232425262728292A2B2C2D2A
:10007E002E2F3031000102030405060708090A0B72
:10008E000C0D0E0F101112131415161718191A1B2A
:10009E001C1D1E1F202122232425262728292A2B1A
:1000AE002C2D2E2F303100010203040506070809FE
:1000BE000A0B0C0D0E0F101112131415161718191A
:1000CE001A1B1C1D1E1F202122232425262728290A
:1000DE002A2B2C2D2E2F303100010203040506078A
:1000EE0008090A0B0C0D0E0F10111213141516170A
:1000FE0018191A1B1C1D1E1F2021222324252627FA
:10010E0028292A2B2C2D2E2F303100010203040515
:10011E00060708090A0B0C0D0E0F101112131415F9
:10012E00161718191A1B1C1D1E1F202122232425E9
:10013E00262728292A2B2C2D2E2F303100010203A1
:10014E000405060708090A0B0C0D0E0F10111213E9
:10015E001415161718191A1B1C1D1E1F20212223D9
:10016E002425262728292A2B2C2D2E2F303100012D
:10017E0002030405060708090A0B0C0D0E0F1011D9
:10018E0012131415161718191A1B1C1D1E1F2021C9
:10019E0022232425262728292A2B2C2D2E2F3031B9
:1001AE00000102030405060708090A0B0C0D0E0FC9
:1001BE00101112131415161718191A1B1C1D1E1FB9
:1001CE00202122232425262728292A2B2C2D2E2FA9
:1001DE003031000102030405060708090A0B0C0D55
:1001EE000E0F101112131415161718191A1B1C1DA9
:1001FE001E1F202122232425262728292A2B2C2D99
:10020E002E2F3031000102030405060708090A0BE0
:10021E000C0D0E0F101112131415161718191A1B98
:10022E001C1D1E1F202122232425262728292A2B88
:10023E002C2D2E2F3031000102030405060708096C
:10024E000A0B0C0D0E0F1011121314151617181988
:10025E001A1B1C1D1E1F2021222324252627282978
:10026E002A2B2C2D2E2F30310001020304050607F8
:10027E0008090A0B0C0D0E0F101112131415161778
:10028E0018191A1B1C1D1E1F202122232425262768
:10029E0028292A2B2C2D2E2F303100010203040584
:1002AE00060708090A0B0C0D0E0F10111213141568
:1002BE00161718191A1B1C1D1E1F20212223242558
:1002CE00262728292A2B2C2D2E2F30310001020310
:1002DE000405060708090A0B0C0D0E0F1011121358
:1002EE001415161718191A1B1C1D1E1F2021222348
:1002FE002425262728292A2B2C2D2E2F303100019C
:10030E0002030405060708090A0B0C0D0E0F101147
:10031E0012131415161718191A1B1C1D1E1F202137
:10032E0022232425262728292A2B2C2D2E2F303127
:10033E00000102030405060708090A0B0C0D0E0F37
:10034E00101112131415161718191A1B1C1D1E1F27
:10035E00202122232425262728292A2B2C2D2E2F17
:10036E003031000102030405060708090A0B0C0DC3
:10037E000E0F101112131415161718191A1B1C1D17
:10038E001E1F202122232425262728292A2B2C2D07
:10039E002E2F3031000102030405060708090A0B4F
:1003AE000C0D0E0F101112131415161718191A1B07
:1003BE001C1D1E1F202122232425262728292A2BF7
:1003CE002C2D2E2F303100010203040506070809DB
:1003DE000A0B0C0D0E0F10111213141516171819F7
:1003EE001A1B1C1D1E1F20212223242526272829E7
:0803FE002A2B2C2D2E2F30318B
:100AD90053A2BF75985A758920758BC6758DC6D274
:020AE9008E225B
:080AF7008F993099FDC299228C
:100A1A008B0D8A0E890FAF051DEF6017AB0D050F01
:100A2A00E50FAA0E7002050E14F9120A99FF120AAE
:040A3A00F780E3223C
:100A3E00E4FDFCC3ED9FEC9E5015E4FBFA0BBB00EE
:0F0A4E00010ABA02F8BB58F50DBD00010C80E497
:010A5D002276
:100A5E00E4FDFCC3ED9FEC9E5015E4FBFA0BBB00CE
:0F0A6E00010AEB64024A70F50DBD00010C80E433
:010A7D002256
:0209CB008F0893
:1009CD00C2A07F287E00120A3ED2A0120A3EE4F990
:1009DD00E9C395085011D2A17F5E7E01120A5EC255
:0709ED00A1120A5E0980E976
:0109F40022E0
:100AB200C294C2A1C2A07FE87E03120A5ED2A01233
:050AC2000A5ED294223F
:0C0AEB00758911758DFF758B8ED28E22DF
:10065A00020578E493A3F8E493A34003F68001F239
:10066A0008DFF48029E493A3F85407240CC8C333A1
:10067A00C4540F4420C8834004F456800146F6DF70
:10068A00E4800B0102040810204080900759E47EA0
:10069A00019360BCA3FF543F30E509541FFEE49365
:1006AA00A360010ECF54C025E060A840B8E493A32C
:1006BA00FAE493A3F8E493A3C8C582C8CAC583CA57
:1006CA00F0A3C8C582C8CAC583CADFE9DEE780BE0F
:0107D7000021
:100A9900BB010689828A83E0225002E722BBFE025B
:090AA900E32289828A83E493228E
:00000001FF
