:030000000206FEF7
:0C06FE00787FE4F6D8FD75815B020745AB
:10080500C104C100C10DC103C105C106C107C108AD
:10081500024A0000024C0000024E00000250000097
:10082500C101C109C10AC10BC10C01250001290083
:10083500012A0002220000022B0000022700001CF2
:100845002D00000000000000000000000000000076
:100855000000000000000000000000000007550037
:1008650000000000000002530000C10E0149000114
:0A0875002600012400C18201520098
:1006270012000E120AC4120AD6C299C298D283D2F5
:1006370084C292D2A4D2ACD2A9D2BCD2AFC2947F88
:10064700061208808E538F54D2947F03120A097FB3
:10065700647E00120A97C294D203D204C2A7E4F5BB
:100667004CF54DC20630062EC3E54D9403E54C9478
:10067700005023054DE54D7002054CD2947F0112C1
:100687000A097F967E00120A97C294C2A47F0A7E47
:1006970000120A97D2A430072CC3E54F9403E54E06
:1006A70094005021054FE54F7002054ED2947F0507
:1006B700120A097FB47E00120A97C2A47F0A7E003D
:1006C700120A97D2A430089DC3E5519403E55094CC
:1006D7000050920551E55170020550D2947F0412E3
:1006E7000A097FB47E00120A97C2A47F0A7E00120D
:0706F7000A97D2A402066C71
:03002300020522B1
:10052200C0E0C0F0C083C082C0D075D000C000C09F
:1005320001C002C003C004C005C006C007C2AF208C
:10054200980302060AC298742D252AF8A699E52A6C
:10055200700AE52DB4C805752A01802DE52AB4017B
:100562000AE52EB4E005752A02801EE52AC394022C
:10057200400BE52AD3941A5004052A800CE52AB4CC
:100582001B04D20D8000752A00300D7CC20D7B0049
:100592007A00792D7D1C1208F4E557243D6025145C
:1005A200603414604B2404705F752700752800C204
:1005B200A47F0A7E00120A97D2A4754C00754D00E2
:1005C200C2068008752700752800D206754E007590
:1005D2004F00C2078010752700752800D207754C9E
:1005E20000754D00C206755000755100C208801892
:1005F200752700752800D208754C00754D00C2069B
:10060200754E00754F00C207D2AFD007D006D00595
:10061200D004D003D002D001D000D0D0D082D08379
:05062200D0F0D0E03231
:03000B0002078A5F
:10078A00C0E0C0F0C083C082C0D075D000C000C035
:10079A0001C002C003C004C005C006C007758C248E
:1007AA00758A450523E52370020522C3943CE52298
:1007BA009400402C7F061208808E538F5430031AFF
:1007CA001209B00528E52870020527C39404E52715
:1007DA0094004006752700752805752200752300C8
:1007EA00D007D006D005D004D003D002D001D00063
:0B07FA00D0D0D082D083D0F0D0E0320D
:1009B000C2A6D2A77555C87556E07557C1E4F5585B
:1009C000F559F55AF55BFB7A0079557D0712040E4F
:0E09D0007B007A00792D7D1C120A33C2A7220B
:08040E008B0C8A0D890E8D0F85
:10041600E4FFFEEEC3950F4003020521E4FDED6007
:10042600046401702F742D2FF8C000E6C454F0D078
:1004360000F6AB0CAA0DA90E1209DE30E70B742DDF
:100446002FF8E64403F60204FD742D2FF8E6440C5B
:10045600F60204FDED64026005ED6403702D742E52
:100466002FF8C000E6C454F0D000F6AB0CAA0DA9D4
:100476000E1209DE30E70A742E2FF8E64403F680E2
:1004860008742E2FF8E6440CF6806CED64046005C3
:10049600ED6405702D742F2FF8C000E6C454F0D01B
:1004A60000F6AB0CAA0DA90E1209DE30E70A742F6E
:1004B6002FF8E64403F68008742F2FF8E6440CF66E
:1004C6008035ED64066005ED6407703374302FF8EF
:1004D600C000E6C454F0D000F6AB0CAA0DA90E126B
:1004E60009DE30E70A74302FF8E64403F680087414
:1004F600302FF8E6440CF61209DE25E01209F70D56
:10050600ED6408600302042474042FFF7401250EB1
:0B051600F50EE4350DF50D0E02041982
:0105210022B7
:0608F4008B098A0A890B42
:1008FA00E4FFEFC39D5064E4FEEF1313543F245505
:10090A00F8C000E625E0D000F6AB09AA0AA90B1246
:10091A0009DEFC5430FBBB300EEF1313543F245551
:10092A00F8E64401F68013EC54C0FCBCC00CEF138B
:10093A0013543F2455F8E654FEF6AB09AA0AA90B4C
:10094A001209DEC454F01209F70EBE02AC74012576
:0B095A000BF50BE4350AF50A0F80973F
:01096500226F
:100A9700EF1FAA0670011E4A60107C137D88ED1DAA
:0A0AA700AA0470011C4A60E880F404
:010AB1002222
:10088000E4FAEF6405703343F620C2F8C2F9D2FAF5
:1008900043E180C2FCD2FBADF8EDC413135403FD59
:1008A000AFE2AB07EB7E007802C333CE33CED8F98C
:1008B0007C002DFBEC3EAF03FE22EF640670344358
:1008C000F640D2F8C2F9D2FA43E180C2FCD2FBADC5
:1008D000F8EDC413135403FDAFE27A00AB07EB7ECF
:1008E000007802C333CE33CED8F97C002DFBEC3E2A
:0308F000FEAF0355
:0108F30022E2
:100AB20075DCC075100075111DE510F5D1E511F555
:020AC200D92237
:10096600EF1460191460251460312403703B751070
:100976000075110DE510F5D2E511F5DA22751001B5
:10098600751100E510F5D3E511F5DB22751000753C
:100996001180E510F5D5E511F5DD2275100075110C
:0A09A60040E510F5D6E511F5DE225C
:08000300E4FF120966020AB2D3
:0C0AD600758921758C24758A45D28C220C
:10002600000102030405060708090A0B0C0D0E0F52
:10003600101112131415161718191A1B1C1D1E1F42
:10004600202122232425262728292A2B2C2D2E2F32
:100056003031000102030405060708090A0B0C0DDE
:100066000E0F101112131415161718191A1B1C1D32
:100076001E1F202122232425262728292A2B2C2D22
:100086002E2F3031000102030405060708090A0B6A
:100096000C0D0E0F101112131415161718191A1B22
:1000A6001C1D1E1F202122232425262728292A2B12
:1000B6002C2D2E2F303100010203040506070809F6
:1000C6000A0B0C0D0E0F1011121314151617181912
:1000D6001A1B1C1D1E1F2021222324252627282902
:1000E6002A2B2C2D2E2F3031000102030405060782
:1000F60008090A0B0C0D0E0F101112131415161702
:1001060018191A1B1C1D1E1F2021222324252627F1
:1001160028292A2B2C2D2E2F30310001020304050D
:10012600060708090A0B0C0D0E0F101112131415F1
:10013600161718191A1B1C1D1E1F202122232425E1
:10014600262728292A2B2C2D2E2F30310001020399
:100156000405060708090A0B0C0D0E0F10111213E1
:100166001415161718191A1B1C1D1E1F20212223D1
:100176002425262728292A2B2C2D2E2F3031000125
:1001860002030405060708090A0B0C0D0E0F1011D1
:1001960012131415161718191A1B1C1D1E1F2021C1
:1001A60022232425262728292A2B2C2D2E2F3031B1
:1001B600000102030405060708090A0B0C0D0E0FC1
:1001C600101112131415161718191A1B1C1D1E1FB1
:1001D600202122232425262728292A2B2C2D2E2FA1
:1001E6003031000102030405060708090A0B0C0D4D
:1001F6000E0F101112131415161718191A1B1C1DA1
:100206001E1F202122232425262728292A2B2C2D90
:100216002E2F3031000102030405060708090A0BD8
:100226000C0D0E0F101112131415161718191A1B90
:100236001C1D1E1F202122232425262728292A2B80
:100246002C2D2E2F30310001020304050607080964
:100256000A0B0C0D0E0F1011121314151617181980
:100266001A1B1C1D1E1F2021222324252627282970
:100276002A2B2C2D2E2F30310001020304050607F0
:1002860008090A0B0C0D0E0F101112131415161770
:1002960018191A1B1C1D1E1F202122232425262760
:1002A60028292A2B2C2D2E2F30310001020304057C
:1002B600060708090A0B0C0D0E0F10111213141560
:1002C600161718191A1B1C1D1E1F20212223242550
:1002D600262728292A2B2C2D2E2F30310001020308
:1002E6000405060708090A0B0C0D0E0F1011121350
:1002F6001415161718191A1B1C1D1E1F2021222340
:100306002425262728292A2B2C2D2E2F3031000193
:1003160002030405060708090A0B0C0D0E0F10113F
:1003260012131415161718191A1B1C1D1E1F20212F
:1003360022232425262728292A2B2C2D2E2F30311F
:10034600000102030405060708090A0B0C0D0E0F2F
:10035600101112131415161718191A1B1C1D1E1F1F
:10036600202122232425262728292A2B2C2D2E2F0F
:100376003031000102030405060708090A0B0C0DBB
:100386000E0F101112131415161718191A1B1C1D0F
:100396001E1F202122232425262728292A2B2C2DFF
:1003A6002E2F3031000102030405060708090A0B47
:1003B6000C0D0E0F101112131415161718191A1BFF
:1003C6001C1D1E1F202122232425262728292A2BEF
:1003D6002C2D2E2F303100010203040506070809D3
:1003E6000A0B0C0D0E0F10111213141516171819EF
:1003F6001A1B1C1D1E1F20212223242526272829DF
:080406002A2B2C2D2E2F303182
:100AC40053A2BF75985A758920758BF2758DF2D231
:020AD4008E2270
:080AE2008F993099FDC29922A1
:100A33008B0C8A0D890EAF051DEF6017AB0C050EED
:100A4300E50EAA0D7002050D14F91209DEFF120A54
:040A5300E280E32238
:100A5700E4FDFCC3ED9FEC9E5015E4FBFA0BBB00D5
:0F0A6700010ABA02F8BB58F50DBD00010C80E47E
:010A7600225D
:100A7700E4FDFCC3ED9FEC9E5015E4FBFA0BBB00B5
:0F0A8700010AEB64024A70F50DBD00010C80E41A
:010A9600223D
:020A09008F0854
:100A0B00C2A07F287E00120A57D2A0120A57E4F91F
:100A1B00E9C395085011D2A17F5E7E01120A77C2FD
:070A2B00A1120A770980E91E
:010A320022A1
:10000E00C294C2A1C2A07FE87E03120A77D2A012C8
:05001E000A77D29422D4
:10070A00020627E493A3F8E493A34003F68001F2D8
:10071A0008DFF48029E493A3F85407240CC8C333F0
:10072A00C4540F4420C8834004F456800146F6DFBF
:10073A00E4800B0102040810204080900805E47E42
:10074A00019360BCA3FF543F30E509541FFEE493B4
:10075A00A360010ECF54C025E060A840B8E493A37B
:10076A00FAE493A3F8E493A3C8C582C8CAC583CAA6
:10077A00F0A3C8C582C8CAC583CADFE9DEE780BE5E
:01087F000078
:1009DE00BB010689828A83E0225002E722BBFE0217
:0909EE00E32289828A83E493224A
:1009F700BB010689828A83F0225002F722BBFE01DF
:020A0700F322D8
:00000001FF
