:0300000002054DA9
:0C054D00787FE4F6D8FD75814B02059420
:10065000E4FAEF6405703343F620C2F8C2F9D2FA27
:1006600043E180C2FCD2FBADF8EDC413135403FD8B
:10067000AFE2AB07EB7E007802C333CE33CED8F9BE
:100680007C002DFBEC3EAF03FE22EF64067034438A
:10069000F640D2F8C2F9D2FA43E180C2FCD2FBADF7
:1006A000F8EDC413135403FDAFE27A00AB07EB7E01
:1006B000007802C333CE33CED8F97C002DFBEC3E5C
:0306C000FEAF0387
:0106C3002214
:100AF00075DCC0754A00754B1DE54AF5D1E54BF52F
:020B0000D922F8
:10089A00EF1460191460251460312403703B754A03
:1008AA0000754B0DE54AF5D2E54BF5DA22754A019A
:1008BA00754B00E54AF5D3E54BF5DB22754A007521
:1008CA004B80E54AF5D5E54BF5DD22754A00754BB7
:0A08DA0040E54AF5D6E54BF5DE22B5
:08000300E4FF12089A020AF062
:0209AA008F0AB2
:1009AC00C2A07F287E00120A37D2A07F287E0012B8
:1009BC000A37E4F50BE50BC3950A5016D2A17F1E3E
:1009CC007E00120AD8C2A17F1E7E00120AD8050B27
:0209DC0080E3B6
:0109DE0022F6
:0209DF008F1275
:1009E100C2A07F287E00120A37D2A07F287E001283
:1009F1000A37E4F513E513C395125016D2A17F1EF1
:100A01007E00120AD8C2A17F1E7E00120AD80513E9
:020A110080E380
:010A130022C0
:100A8F00C294C2A1C2A07F647E00120AD8D2A07FF6
:090A9F00647E00120AD8D29422F0
:100B0200D2947F071209AA7FA07E00120A74C294AF
:010B120022C0
:100B1300D2947F091209AA7F827E00120A74C294BA
:010B230022AF
:100B2400D2947F0A1209AA7F647E00120A74C294C6
:010B3400229E
:100A1400D2947F161209AA12078F7F647E00120AED
:100A2400747F171209AA12078F7F3C7E00120A7482
:030A3400C2942247
:100B3500D2947F0B1209AA7F967E00120A74C29482
:010B4500228D
:100A5700D2947F0C1209AA7F507E00120A747F0D70
:0D0A67001209AA7F507E00120A74C2942268
:100B4600D2947F111209DF7F507E00120A74C2947C
:010B5600227C
:0E05D900C10D011F00011C00C10E021D00001B
:1003CC007D647C007F011206C4C2A5120A8F120044
:1003DC0003C294D284D283D290C292C2A6C20DD24E
:1003EC0005C2A7D20AD2A430A419200E167F1E7EF5
:1003FC0000120A7430A40CAF1EAE1D1204BD120BF9
:10040C0002D20E20A423300E207F1E7E00120A740E
:10041C0020A416AF1EAE1D1204BDC3E51D940350DF
:10042C0003120B24120B13C20E30090B7F0612069B
:10043C00508E1D8F1EC209300B0A300D05120B5742
:10044C00C20DC20B30070A200D05120B67D20DC26C
:10045C000730032AC3E5289404E5279400501F3085
:10046C008406308303120A140528E5287002052738
:10047C00640445277008F527F528C203C20230082A
:10048C0011E51FC39401500AC201E4F51C120B358F
:10049C00051F2001030203F3E51CC3940140030272
:1004AC0003F3C208E4F51F120A57051CD2A5020378
:0104BC00F34C
:100A7400EF1FAA0670011E4A60107C137D88ED1DCD
:0A0A8400AA0470011C4A60E880F427
:010A8E002245
:100AA800E4FDFCC3ED9FEC9E500DE4FB0BBB13FC77
:070AB8000DBD00010C80ECF4
:010ABF002214
:100AC000E4FDFCC3ED9FEC9E500DE4FB0BBB1AFC58
:070AD0000DBD00010C80ECDC
:010AD70022FC
:100A3700E4FDFCC3ED9FEC9E5015E4FBFA0BBB00F5
:0F0A4700010ABA01F8BBF4F50DBD00010C80E403
:010A5600227D
:100AD800E4FDFCC3ED9FEC9E500DE4FB0BBB14FC46
:070AE8000DBD00010C80ECC4
:010AEF0022E4
:0905E700074300000000000000C1
:1008E400750CAAE4F50BE4F50AE50CC2907F507E82
:1008F40000120AA8D290E50C25E0F50C7F967E0044
:10090400120AA8050AE50AC3940840DD750CAA7FFB
:10091400507E00120AA8050BE50BC3940340C7D20E
:010924009042
:0109250022AF
:10092600751BAAE4F51AE4F519E51BC2907F507E03
:1009360000120AA8D290E51B25E0F51B7F967E00E3
:10094600120AA80519E519C3940840DD751BAA7F8C
:10095600507E00120AA8051AE51AC3940340C7D2AE
:010966009000
:01096700226D
:100968007516AAE4F515E4F514E516C2907F507ED5
:1009780000120AA8D290E51625E0F5167F967E00AB
:10098800120AA80514E514C3940840DD7516AA7F59
:10099800507E00120AA80515E515C3940340C7D276
:0109A80090BE
:0109A900222B
:10073600C2A6D2A77543C87544E07545C1120926FD
:10074600E4F517E4F51874432517F8E630E706C212
:10075600907F788004C2907F507E00120AC0D290AB
:1007660074432517F8C000E625E0D000F67F327EF8
:1007760000120AC00518E518C3940840C90517E514
:0807860017C3940340BDC2A794
:01078E002248
:10078F00D2A6D2A77543C87544E07545C31208E4D5
:10079F00E4F508E4F50974432508F8E630E706C2E6
:1007AF00907F788004C2907F507E00120AA8D2906A
:1007BF0074432508F8C000E625E0D000F67F327EAE
:1007CF0000120AA80509E509C3940840C90508E500
:0807DF0008C3940340BDC2A74A
:0107E70022EF
:1007E800C2A6D2A77543C87544E07545C412096806
:1007F800E4F512E4F51374432512F8E630E706C26F
:10080800907F788004C2907F507E00120AA8D29010
:1008180074432512F8C000E625E0D000F67F327E4A
:1008280000120AA80513E513C3940840C90512E588
:0808380012C3940340BDC2A7E6
:010840002295
:10084100C2A6D2A77543C87544E07545C5120968AB
:10085100E4F512E4F51374432512F8E630E706C215
:10086100907F788004C2907F507E00120AA8D290B7
:1008710074432512F8C000E625E0D000F67F327EF1
:1008810000120AA80513E513C3940840C90512E52F
:0808910012C3940340BDC2A78D
:01089900223C
:1004BD008E088F09C3E50994A3E50894034006D27D
:1004CD00947F06806EC3E50994A0E508940350114E
:1004DD00C3E509947CE50894034006D2947F05801A
:1004ED0052C3E5099478E50894035011C3E50994C6
:1004FD0059E50894034006D2947F048036C3E5097C
:10050D009455E50894035011C3E5099427E5089423
:10051D00034006D2947F03801AC3E5099423E508AE
:10052D009403501BC3E5099404E50894034010D2CD
:10053D00947F021209AA7F827E00120A74C294224D
:100B5700D2A2C2A37F287E00120A74C2A2C2A32215
:100B6700C2A2D2A37F287E00120A74C2A2C2A32205
:1005F000C102C103C109C10AC101C10BC107C105C3
:1006000002270000C1080135000122000123000279
:10061000310000013B00014200C10C012600C1066F
:10062000023E0000013600012400072900000000FE
:10063000000000C104013000012500013300C18029
:0F064000014000014100013D00013C0001340078
:03000B0002001ED2
:10001E00C0E0C0F0C083C082C0D075D000C000C0A8
:10002E0001C002C003C004C005C006C00785378CDE
:10003E0085398A053FE53F7002053EC394D0E53E03
:10004E009407404530051C0524E52494044014E52E
:10005E00367010752405D20BD201D20A753601F511
:10006E0022F53B753E00753F00D20930060CE526A1
:10007E00C3940550051208410526300C0CE542C309
:10008E00940550051207E8054230A5473087192020
:10009E000216053BE53BC394084010753B00052254
:1000AE007535007523018003753B00E523B40123EC
:1000BE000532E53270020531C39470E53194174074
:1000CE0012752200753B00753100753200752300E4
:1000DE00753500E522B40117E535C394015035207E
:1000EE00033230832F30842C120B4605358025C306
:1000FE00E53294B8E531940B401A3087140534E597
:10010E00349406400FD203752700752800D2028062
:10011E0000753400300A3020840D053CE53CB40AED
:10012E000ED20CC2068008C20C754200753C00202F
:10013E00830D053DE53DB40A0ED206C20C8008C201
:10014E0006752600753D00D007D006D005D004D028
:10015E0003D002D001D000D0D0D082D083D0F0D046
:02016E00E0327D
:03001B000202BA24
:1002BA00C0E0C0F0C083C082C0D075D000C000C00A
:1002CA0001C002C003C004C005C006C00785388D3E
:1002DA00853A8B20910E0541C200E5416450705168
:1002EA00F541804D200039D200E541D394234012D4
:1002FA00E541D39432500BE52525E0F5255325FE3B
:10030A008010E541D394324010E52525E0F52543D8
:10031A0025010533754000800205407541008011B2
:10032A000540E540C3943C4008753300D20075305F
:10033A0000E53364087032F53374292530F8A625B0
:10034A00E530700AE529B4C805753001801BE5302F
:10035A00B4010AE52AB4E005753002800CE530B430
:10036A000204D204800075300030043BC204E52B3D
:10037A00243F7033C202120736D208C2A5C20AC28B
:10038A0006C20CD207752200753B00753100753222
:10039A0000752300C203752700752800752400E53F
:1003AA0036B40103753600D007D006D005D004D084
:1003BA0003D002D001D000D0D0D082D083D0F0D0E8
:0203CA00E0321F
:0406C4008C088D0908
:1006C8007E007C347DBC12028DE47B0CFAF9F812B2
:1006D80001FB8F0D8E0C8D0B8C0AC3E49FFFE49EEB
:1006E800F5378F39AE08AF09EE3395E0FDFCE47BB2
:1006F8000DFAF9F8120170E47B0CFAF9F81201FB13
:100708008F118E108D0F8C0EC3E49FFFE49EF53879
:100718008F3A75891185378C85398A85388D853A60
:0D0728008BD2A9D28CD2ABD28ED2BBD2AF75
:0107350022A1
:100559000203CCE493A3F8E493A34003F68001F2E9
:1005690008DFF48029E493A3F85407240CC8C333A3
:10057900C4540F4420C8834004F456800146F6DF72
:10058900E4800B01020408102040809005D9E47E24
:10059900019360BCA3FF543F30E509541FFEE49367
:1005A900A360010ECF54C025E060A840B8E493A32E
:1005B900FAE493A3F8E493A3C8C582C8CAC583CA59
:1005C900F0A3C8C582C8CAC583CADFE9DEE780BE11
:01064F0000AA
:10017000E88FF0A4CC8BF0A42CFCE98EF0A42CFC2E
:100180008AF0EDA42CFCEA8EF0A4CDA8F08BF0A4AC
:100190002DCC3825F0FDE98FF0A42CCD35F0FCEB0B
:1001A0008EF0A4FEA9F0EB8FF0A4CFC5F02ECD39D0
:0F01B000FEE43CFCEAA42DCE35F0FDE43CFC223D
:1001BF0075F008758200EF2FFFEE33FECD33CDCCF7
:1001CF0033CCC58233C5829BED9AEC99E58298407A
:1001DF000CF582EE9BFEED9AFDEC99FC0FD5F0D657
:1001EF00E4CEFBE4CDFAE4CCF9A88222B800C1B981
:1001FF000059BA002DEC8BF084CFCECDFCE5F0CBBF
:10020F00F97818EF2FFFEE33FEED33FDEC33FCEBF7
:10021F0033FB10D703994004EB99FB0FD8E5E4F9B2
:10022F00FA227818EF2FFFEE33FEED33FDEC33FC9F
:10023F00C933C910D7059BE99A4007EC9BFCE99A93
:10024F00F90FD8E0E4C9FAE4CCFB2275F010EF2FD8
:10025F00FFEE33FEED33FDCC33CCC833C810D707D8
:10026F009BEC9AE899400AED9BFDEC9AFCE899F813
:0E027F000FD5F0DAE4CDFBE4CCFAE4C8F922A6
:10028D00EC8EF0A4CCC5F0CCCDF8EFA4CEC5F02DFE
:10029D00FDE43CFCE8A42EC8C5F03DFDE43CFCEFBC
:0D02AD00A4FFE5F028FEE43DFDE43CFC224A
:00000001FF
