:03000000020555A1
:0C055500787FE4F6D8FD75814E02059C0D
:10065900E4FAEF6405703343F620C2F8C2F9D2FA1E
:1006690043E180C2FCD2FBADF8EDC413135403FD82
:10067900AFE2AB07EB7E007802C333CE33CED8F9B5
:100689007C002DFBEC3EAF03FE22EF640670344381
:10069900F640D2F8C2F9D2FA43E180C2FCD2FBADEE
:1006A900F8EDC413135403FDAFE27A00AB07EB7EF8
:1006B900007802C333CE33CED8F97C002DFBEC3E53
:0306C900FEAF037E
:0106CC00220B
:100ADC0075DCC0751C00751D1DE51CF5D1E51DF5FB
:020AEC00D9220D
:1008A300EF1460191460251460312403703B751C28
:1008B30000751D0DE51CF5D2E51DF5DA22751C0149
:1008C300751D00E51CF5D3E51DF5DB22751C0075D0
:1008D3001D80E51CF5D5E51DF5DD22751C00751D94
:0A08E30040E51CF5D6E51DF5DE2208
:08000300E4FF1208A3020ADC6D
:0209B3008F0AA9
:1009B500C2A07F287E00120A40D2A07F287E0012A6
:1009C5000A40E4F50BE50BC3950A5016D2A17F1E2C
:1009D5007E00120AC4C2A17F1E7E00120AC4050B46
:0209E50080E3AD
:0109E70022ED
:0209E8008F126C
:1009EA00C2A07F287E00120A40D2A07F287E001271
:1009FA000A40E4F513E513C395125016D2A17F1EDF
:100A0A007E00120AC4C2A17F1E7E00120AC4051308
:020A1A0080E377
:010A1C0022B7
:100A7B00C294C2A1C2A07F647E00120AC4D2A07F1E
:090A8B00647E00120AC4D2942218
:100AEE00D2947F121209B37F647E00120A60C29400
:010AFE0022D5
:100AFF00D2947F161209B37F507E00120A60C294FF
:010B0F0022C3
:100B1000D2947F081209B37F507E00120A60C294FB
:010B200022B2
:100A1D00D2947F1B1209B31207987F787E00120AB9
:100A2D00607F1F1209B31207987F3C7E00120A6087
:030A3D00C294223E
:100B2100D2947F151209B37F967E00120A60C29497
:010B310022A1
:100B3200D2947F161209B37F507E00120A60C294CB
:010B42002290
:100B4300D2947F021209E87F3C7E00120A60C294AD
:010B5300227F
:0F05E100C10D014E00014A00014D00024B000008
:1003D1007D647C007F011206CDC2A5120A7B12004A
:1003E10003C294D284D283D290C2A6C20DD205C2D6
:1003F100A7D20A120B5430A41AE54D70167F05FEE0
:10040100120A6030A40D754D01120AEEAF4CAE4BCD
:100411001204C520A426E54DB401217F057E0012FA
:100421000A6020A417AF4CAE4B1204C5C3E54B9430
:10043100035003120B10120AFFE4F54D30090B7F34
:10044100061206598E4B8F4CC209300B0A300D052E
:10045100120B54C20DC20B30070A200D05120B649A
:10046100D20DC20730032AC3E5289404E52794007E
:10047100501F308406308303120A1D0528E52870B9
:10048100020527640445277008F527F528C203C231
:1004910002300811E54EC39401500AC201E4F54A45
:1004A100120B21054E2001030203F7E54AC3940113
:1004B10040030203F7C208E4F54E120B32054AD29B
:0404C100A50203F796
:100A6000EF1FAA0670011E4A60107C137D88ED1DE1
:0A0A7000AA0470011C4A60E880F43B
:010A7A002259
:100A9400E4FDFCC3ED9FEC9E500DE4FB0BBB15FC89
:070AA4000DBD00010C80EC08
:010AAB002228
:100AAC00E4FDFCC3ED9FEC9E500DE4FB0BBB22FC64
:070ABC000DBD00010C80ECF0
:010AC3002210
:100A4000E4FDFCC3ED9FEC9E5015E4FBFA0BBB00EC
:0F0A5000010ABA01F8BBF4F50DBD00010C80E4FA
:010A5F002274
:100AC400E4FDFCC3ED9FEC9E500DE4FB0BBB14FC5A
:070AD4000DBD00010C80ECD8
:010ADB0022F8
:0905F000074300000000000000B8
:1008ED00750CAAE4F50BE4F50AE50CC2907F507E79
:1008FD0000120A94D290E50C25E0F50C7F967E004F
:10090D00120A94050AE50AC3940840DD750CAA7F06
:10091D00507E00120A94050BE50BC3940340C7D219
:01092D009039
:01092E0022A6
:10092F00751BAAE4F51AE4F519E51BC2907F507EFA
:10093F0000120A94D290E51B25E0F51B7F967E00EE
:10094F00120A940519E519C3940840DD751BAA7F97
:10095F00507E00120A94051AE51AC3940340C7D2B9
:01096F0090F7
:010970002264
:100971007516AAE4F515E4F514E516C2907F507ECC
:1009810000120A94D290E51625E0F5167F967E00B6
:10099100120A940514E514C3940840DD7516AA7F64
:1009A100507E00120A940515E515C3940340C7D281
:0109B10090B5
:0109B2002222
:10073F00C2A6D2A77543C87544E07545C112092FEB
:10074F00E4F517E4F51874432517F8E630E706C209
:10075F00907F788004C2907F507E00120AACD290B6
:10076F0074432517F8C000E625E0D000F67F327EEF
:10077F0000120AAC0518E518C3940840C90517E51F
:08078F0017C3940340BDC2A78B
:01079700223F
:10079800D2A6D2A77543C87544E07545C31208EDC3
:1007A800E4F508E4F50974432508F8E630E706C2DD
:1007B800907F788004C2907F507E00120A94D29075
:1007C80074432508F8C000E625E0D000F67F327EA5
:1007D80000120A940509E509C3940840C90508E50B
:0807E80008C3940340BDC2A741
:0107F00022E6
:1007F100C2A6D2A77543C87544E07545C4120971F4
:10080100E4F512E4F51374432512F8E630E706C265
:10081100907F788004C2907F507E00120A94D2901B
:1008210074432512F8C000E625E0D000F67F327E41
:1008310000120A940513E513C3940840C90512E593
:0808410012C3940340BDC2A7DD
:01084900228C
:10084A00C2A6D2A77543C87544E07545C512097199
:10085A00E4F512E4F51374432512F8E630E706C20C
:10086A00907F788004C2907F507E00120A94D290C2
:10087A0074432512F8C000E625E0D000F67F327EE8
:10088A0000120A940513E513C3940840C90512E53A
:08089A0012C3940340BDC2A784
:0108A2002233
:1004C5008E088F09C3E50994A3E50894034006D275
:1004D500947F11806EC3E50994A0E508940350113B
:1004E500C3E509947CE50894034006D2947F0F8008
:1004F50052C3E5099478E50894035011C3E50994BE
:1005050059E50894034006D2947F0E8036C3E50969
:100515009455E50894035011C3E5099427E508941B
:10052500034006D2947F0D801AC3E5099423E5089C
:100535009403501BC3E5099404E50894034010D2C5
:10054500947F0B1209B37F827E00120A60C2942247
:100B5400C2A2D2A37F0D7E00120A60C2A2C2A32247
:100B6400D2A2C2A37F0D7E00120A60C2A2C2A32237
:1005F900C102C103C109C10AC101C10BC107C105BA
:1006090002270000C1080135000122000123000270
:10061900310000013B00014200C10C012600C10666
:10062900023E0000013600012400072900000000F5
:10063900000000C104013000012500013300C18020
:0F064900014000014100013D00013C000134006F
:03000B0002001ED2
:10001E00C0E0C0F0C083C082C0D075D000C000C0A8
:10002E0001C002C003C004C005C006C00785378CDE
:10003E0085398A053FE53F7002053EC394D0E53E03
:10004E009407404A3005210524E52494044019E51F
:10005E0036701575240520A409D20BD201D20A756B
:10006E003601752200753B00753E00753F00D209C2
:10007E0030060CE526C39405500512084A052630B5
:10008E000C0CE542C3940550051207F1054230A54C
:10009E0047208719200216053BE53BC3940240100A
:1000AE00753B0005227535007523018003753B00F5
:1000BE00E523B401230532E53270020531C3947095
:1000CE00E53194174012752200753B0075310075AD
:1000DE003200752300753500E522B40117E535C3EE
:1000EE009401503520033230832F30842C120B4371
:1000FE0005358025C3E532942CE5319401401A2054
:10010E0087140534E5349402400FD2037527007529
:10011E002800D2028000753400300A3020840D058C
:10012E003CE53CB40A0ED20CC2068008C20C7542E5
:10013E0000753C0020830D053DE53DB40A0ED20648
:10014E00C20C8008C206752600753D00D007D00689
:10015E00D005D004D003D002D001D000D0D0D082B0
:07016E00D083D0F0D0E03295
:03001B000202BF1F
:1002BF00C0E0C0F0C083C082C0D075D000C000C005
:1002CF0001C002C003C004C005C006C00785388D39
:1002DF00853A8B20910E0541C200E5416450705163
:1002EF00F541804D200039D200E541D394234012CF
:1002FF00E541D39432500BE52525E0F5255325FE36
:10030F008010E541D394324010E52525E0F52543D3
:10031F0025010533754000800205407541008011AD
:10032F000540E540C3943C4008753300D20075305A
:10033F0000E53364087032F53374292530F8A625AB
:10034F00E530700AE529B4C805753001801BE5302A
:10035F00B4010AE52AB4E005753002800CE530B42B
:10036F000204D204800075300030043BC204E52B38
:10037F00243F7033C20212073FD208C2A5C20AC27D
:10038F0006C20CD207752200753B0075310075321D
:10039F0000752300C203752700752800752400E53A
:1003AF0036B40103753600D007D006D005D004D07F
:1003BF0003D002D001D000D0D0D082D083D0F0D0E3
:0203CF00E0321A
:0406CD008C088D09FF
:1006D1007E007C2B7D33120292E47B0CFAF9F81236
:1006E10002008F0D8E0C8D0B8C0AC3E49FFFE49EDC
:1006F100F5378F39AE08AF09EE3395E0FDFCE47BA9
:100701000BFAF9F8120175E47B0CFAF9F812020000
:100711008F118E108D0F8C0EC3E49FFFE49EF53870
:100721008F3A75891185378C85398A85388D853A57
:0D0731008BD2A9D28CD2ABD28ED2BBD2AF6C
:01073E002298
:100561000203D1E493A3F8E493A34003F68001F2DC
:1005710008DFF48029E493A3F85407240CC8C3339B
:10058100C4540F4420C8834004F456800146F6DF6A
:10059100E4800B01020408102040809005E1E47E14
:1005A100019360BCA3FF543F30E509541FFEE4935F
:1005B100A360010ECF54C025E060A840B8E493A326
:1005C100FAE493A3F8E493A3C8C582C8CAC583CA51
:1005D100F0A3C8C582C8CAC583CADFE9DEE780BE09
:0106580000A1
:10017500E88FF0A4CC8BF0A42CFCE98EF0A42CFC29
:100185008AF0EDA42CFCEA8EF0A4CDA8F08BF0A4A7
:100195002DCC3825F0FDE98FF0A42CCD35F0FCEB06
:1001A5008EF0A4FEA9F0EB8FF0A4CFC5F02ECD39CB
:0F01B500FEE43CFCEAA42DCE35F0FDE43CFC2238
:1001C40075F008758200EF2FFFEE33FECD33CDCCF2
:1001D40033CCC58233C5829BED9AEC99E582984075
:1001E4000CF582EE9BFEED9AFDEC99FC0FD5F0D652
:1001F400E4CEFBE4CDFAE4CCF9A88222B800C1B97C
:100204000059BA002DEC8BF084CFCECDFCE5F0CBB9
:10021400F97818EF2FFFEE33FEED33FDEC33FCEBF2
:1002240033FB10D703994004EB99FB0FD8E5E4F9AD
:10023400FA227818EF2FFFEE33FEED33FDEC33FC9A
:10024400C933C910D7059BE99A4007EC9BFCE99A8E
:10025400F90FD8E0E4C9FAE4CCFB2275F010EF2FD3
:10026400FFEE33FEED33FDCC33CCC833C810D707D3
:100274009BEC9AE899400AED9BFDEC9AFCE899F80E
:0E0284000FD5F0DAE4CDFBE4CCFAE4C8F922A1
:10029200EC8EF0A4CCC5F0CCCDF8EFA4CEC5F02DF9
:1002A200FDE43CFCE8A42EC8C5F03DFDE43CFCEFB7
:0D02B200A4FFE5F028FEE43DFDE43CFC2245
:00000001FF
