:030000000206FEF7
:0C06FE00787FE4F6D8FD75815B020745AB
:10080300E4FAEF6405703343F620C2F8C2F9D2FA72
:1008130043E180C2FCD2FBADF8EDC413135403FDD6
:10082300AFE2AB07EB7E007802C333CE33CED8F909
:100833007C002DFBEC3EAF03FE22EF6406703443D5
:10084300F640D2F8C2F9D2FA43E180C2FCD2FBAD42
:10085300F8EDC413135403FDAFE27A00AB07EB7E4C
:10086300007802C333CE33CED8F97C002DFBEC3EA7
:03087300FEAF03D2
:01087600225F
:100CCA0075DCC0751C00751D1DE51CF5D1E51DF50B
:020CDA00D9221D
:100A4D00EF1460191460251460312403703B751C7C
:100A5D0000751D0DE51CF5D2E51DF5DA22751C019D
:100A6D00751D00E51CF5D3E51DF5DB22751C007524
:100A7D001D80E51CF5D5E51DF5DD22751C00751DE8
:0A0A8D0040E51CF5D6E51DF5DE225C
:08000300E4FF120A4D020CCAD1
:0305BB00011E011D
:040B5D00D2947F0AA5
:020B61008F0AF9
:100B6300C2A07F287E00120C11D2A07F287E001223
:100B73000C11E4F50BE50BC3950A5016D2A17FFACD
:100B83007E00120CB2C2A17FFA7E00120CB2050BDA
:020B930080E3FD
:010B9500223D
:020B96008F12BC
:100B9800C2A07F287E00120C11D2A07F287E0012EE
:100BA8000C11E4F513E513C395125016D2A17FFA80
:100BB8007E00120CB2C2A17FFA7E00120CB205139D
:020BC80080E3C8
:010BCA002208
:100C6900C294C2A1C2A07F647E00120CB2D2A07F3E
:090C7900647E00120CB2D2942238
:10078A00E51E24FE602F1460482402706B120B5D74
:10079A007F147E00120C4E7F0B120B617F147E00B9
:1007AA00120C4E7F06120B617F507E00120C4EC255
:1007BA0094751E0222120B5D7F147E00120C4E7F6E
:1007CA0008120B617F3C7E00120C4EC294751E0308
:1007DA0022120B5D7F147E00120C4E7F0B120B61EE
:1007EA007F147E00120C4E7F07120B617F3C7E0045
:0907FA00120C4EC294751E01227E
:100CDC00D2947F09120B617F3C7E00120C4EC294A1
:010CEC0022E5
:100CED00D2947F05120B617F3C7E00120C4EC29494
:010CFD0022D4
:100CFE00D2947F02120B967F3C7E00120C4EC29451
:010D0E0022C2
:100D0F00D2947F0E120B967F967E00120C4EC294D9
:010D1F0022B1
:100BCB00D2947F0F120B611209427F787E00120CB8
:100BDB004E7F0D120B611209427F3C7E00120C4EB0
:030BEB00C294228F
:100BEE00D2947F03120B611209427F787E00120CA1
:100BFE004E7F0D120B611209427F3C7E00120C4E8D
:030C0E00C294226B
:100D2000D2947F10120B617F327E00120C4EC2945F
:010D300022A0
:100C3100D2947F11120B617F327E00120C4E7F0421
:0D0C4100120B617F3C7E00120C4EC294220B
:0F05BE00C112015B00015700015A0002580000F2
:1004C0007D647C007F01120877C2A5120C691200BE
:1004D00003C294D284D283D290C2A6C212D207C2DF
:1004E000A7D20F120D4130A41AE55A70167F05FEEF
:1004F000120C4E30A40DAF59AE5812065E12078A88
:10050000755A0120A41CE55AB401177F057E00121C
:100510000C4E20A40D120CDCAF59AE5812065EE44E
:10052000F55A300E0B7F061208038E588F59C20EF3
:1005300030100A301205120D31C212C210300A0AF0
:10054000201205120D41D212C20A300B1CE547C31E
:1005500094025015D203120BCB0547E547C3940212
:100560004007E4F547C20BC203300C1CE548C394B6
:10057000025015D203120BEE0548E548C394024021
:1005800007E4F548C20CC203300D11E55BC39401CA
:10059000500AC202E4F557120D20055B2002030247
:1005A00004E6E557C3940140030204E6C20DE4F5F6
:0B05B0005B120C310557D2A50204E6D7
:100C4E00EF1FAA0670011E4A60107C137D88ED1DF1
:0A0C5E00AA0470011C4A60E880F44B
:010C68002269
:100C8200E4FDFCC3ED9FEC9E500DE4FB0BBB15FC99
:070C92000DBD00010C80EC18
:010C99002238
:100C9A00E4FDFCC3ED9FEC9E500DE4FB0BBB22FC74
:070CAA000DBD00010C80EC00
:010CB1002220
:100C1100E4FDFCC3ED9FEC9E5015E4FBFA0BBB0019
:0F0C2100010ABA01F8BBF4F50DBD00010C80E427
:010C300022A1
:100CB200E4FDFCC3ED9FEC9E500DE4FB0BBB14FC6A
:070CC2000DBD00010C80ECE8
:010CC9002208
:0905CD00075000000000000000CE
:100A9700750CAAE4F50BE4F50AE50CC2907F507ECD
:100AA70000120C82D290E50C25E0F50C7F967E00B3
:100AB700120C82050AE50AC3940840DD750CAA7F6B
:100AC700507E00120C82050BE50BC3940340C7D27E
:010AD700908E
:010AD80022FB
:100AD900751BAAE4F51AE4F519E51BC2907F507E4F
:100AE90000120C82D290E51B25E0F51B7F967E0053
:100AF900120C820519E519C3940840DD751BAA7FFC
:100B0900507E00120C82051AE51AC3940340C7D21D
:010B1900904B
:010B1A0022B8
:100B1B007516AAE4F515E4F514E516C2907F507E20
:100B2B0000120C82D290E51625E0F5167F967E001A
:100B3B00120C820514E514C3940840DD7516AA7FC8
:100B4B00507E00120C820515E515C3940340C7D2E5
:010B5B009009
:010B5C002276
:1008E900C2A6D2A77550C87551E07552C1120AD96E
:1008F900E4F517E4F51874502517F8E630E706C251
:10090900907F788004C2907F507E00120C9AD2901A
:1009190074502517F8C000E625E0D000F67F327E36
:1009290000120C9A0518E518C3940840C90517E583
:0809390017C3940340BDC2A7DF
:010941002293
:10094200D2A6D2A77550C87551E07552C3120A9744
:10095200E4F508E4F50974502508F8E630E706C224
:10096200907F788004C2907F507E00120C82D290D9
:1009720074502508F8C000E625E0D000F67F327EEC
:1009820000120C820509E509C3940840C90508E56F
:0809920008C3940340BDC2A795
:01099A00223A
:10099B00C2A6D2A77550C87551E07552C4120B1B75
:1009AB00E4F512E4F51374502512F8E630E706C2AD
:1009BB00907F788004C2907F507E00120C82D29080
:1009CB0074502512F8C000E625E0D000F67F327E89
:1009DB0000120C820513E513C3940840C90512E5F8
:0809EB0012C3940340BDC2A732
:0109F30022E1
:1009F400C2A6D2A77550C87551E07552C5120B1B1B
:100A0400E4F512E4F51374502512F8E630E706C253
:100A1400907F788004C2907F507E00120C82D29026
:100A240074502512F8C000E625E0D000F67F327E2F
:100A340000120C820513E513C3940840C90512E59E
:080A440012C3940340BDC2A7D8
:010A4C002287
:10065E008E088F09C3E50994A3E50894034006D2DA
:10066E00947F11806EC3E50994A0E50894035011A0
:10067E00C3E509947CE50894034006D2947F0F806D
:10068E0052C3E5099478E50894035011C3E5099423
:10069E0059E50894034006D2947F0E8036C3E509CF
:1006AE009455E50894035011C3E5099427E5089481
:1006BE00034006D2947F0D801AC3E5099423E50802
:1006CE009403501CC3E5099404E50894034011D229
:1006DE00947F0B120B617F827E00120C4EC294220D
:1006EE00C3E50894035008E55AB40103120CED2239
:100D3100C2A2D2A37F497E00120C4EC2A2C2A3223C
:100D4100D2A2C2A37F497E00120C4EC2A2C2A3222C
:1005D600C103C104C10EC10FC102C110C10AC107C6
:1005E60002280000C10DC10BC10C014700014800E3
:1005F60001380001230001240002340000014100FB
:10060600014F00C111012700C10902450000013B4D
:1006160000012500072A00000000000000C10501B6
:100626003200012600013600C181014D00014E0055
:10063600014300014200013700013100013E000282
:1006460039000001440001330002490000C106C11F
:0706560008C100024B000087
:03000B0002001ED2
:10001E00C0E0C0F0C083C082C0D075D000C000C0A8
:10002E0001C002C003C004C005C006C007853C8CD9
:10003E00853F8A0546E54670020545C394D0E545E1
:10004E009407404A3007210525E52594044019E51B
:10005E003B701575250520A409D20AD202D20F7560
:10006E003B01752300754100754500754600D20EA3
:10007E0030090CE527C3940550051209F405273005
:10008E00110CE54FC39405500512099B054F20A591
:10009E00030201A2E52314602D14606C2402600398
:1000AE000201A220871A2003170541E541C39402DD
:1000BE0050030201A2754100752301D2060201A26E
:1000CE007541000201A22087160531E531C3940265
:1000DE004010753100752302D208753E00800375FD
:1000EE0031000535E53570020534C394A0E534942E
:1000FE000F50030201A27523007531007541007582
:10010E0034007535000201A2054AE54A7002054920
:10011E00C394BCE5499402401B2087150533E53393
:10012E0094034010753300754900754A00054480EC
:10013E0003753300053AE53A70020539D394A0E50C
:10014E0039940F500CE544C394034005200002D2AD
:10015E000BD3E53A9470E5399417500CE544C394EB
:10016E00044005200002D20CD3E53A9440E53994C0
:10017E001F402175230075410075310075340075DF
:10018E003500753900753A00754903754A20753387
:10019E000075440030061BE538C39401501420004E
:1001AE0003120CFE0538E538C3940140057538007E
:1001BE00C20630081BE53EC3940150142000031202
:1001CE000D0F053EE53EC394014005753E00C20885
:1001DE00300F3820840F0542E542B40A12D211C204
:1001EE0009D200800AC211754F00754200C200206C
:1001FE00830F0543E543B40A12D209C211D200801F
:10020E000AC209752700754300C200300019054C5B
:10021E00E54C7002054BC39488E54B94134008C21D
:10022E0000754B00754C00D007D006D005D004D019
:10023E0003D002D001D000D0D0D082D083D0F0D065
:02024E00E0329C
:03001B0002039A43
:10039A00C0E0C0F0C083C082C0D075D000C000C029
:1003AA0001C002C003C004C005C006C007853D8D58
:1003BA0085408B20910E054EC201E54E6450705166
:1003CA00F54E804D200139D201E54ED394234012D7
:1003DA00E54ED39432500BE52625E0F5265326FE4A
:1003EA008010E54ED394324010E52625E0F52643E9
:1003FA0026010536754D008002054D754E008011A7
:10040A00054DE54DC3943C4008753600D20175325E
:10041A0000E53664087032F536742A2532F8A626C5
:10042A00E532700AE52AB4C805753201801BE53247
:10043A00B4010AE52BB4E005753202800CE532B44A
:10044A000204D205800075320030054FC205E52C42
:10045A00243F70471208E9D20DC2A5C20FC209C2D1
:10046A0011D210752300754100753100753400757D
:10047A003500753900753A00754900754A007533BB
:10048A0000754400C203C20B754700C20C754800D0
:10049A00752500E53BB40103753B00D007D006D0B3
:1004AA0005D004D003D002D001D000D0D0D082D061
:0604BA0083D0F0D0E03217
:040877008C088D0953
:10087B007E007C2B7D3312036DE47B0CFAF9F812AE
:10088B0002DB8F0D8E0C8D0B8C0AC3E49FFFE49E55
:10089B00F53C8F3FAE08AF09EE3395E0FDFCE47BF2
:1008AB000BFAF9F8120250E47B0CFAF9F81202DB9E
:1008BB008F118E108D0F8C0EC3E49FFFE49EF53DC0
:1008CB008F40758911853C8C853F8A853D8D854090
:0D08DB008BD2A9D28CD2ABD28ED2BBD2AFC1
:0108E80022ED
:10070A000204C0E493A3F8E493A34003F68001F241
:10071A0008DFF48029E493A3F85407240CC8C333F0
:10072A00C4540F4420C8834004F456800146F6DFBF
:10073A00E4800B01020408102040809005BBE47E8F
:10074A00019360BCA3FF543F30E509541FFEE493B4
:10075A00A360010ECF54C025E060A840B8E493A37B
:10076A00FAE493A3F8E493A3C8C582C8CAC583CAA6
:10077A00F0A3C8C582C8CAC583CADFE9DEE780BE5E
:01065D00009C
:10025000E88FF0A4CC8BF0A42CFCE98EF0A42CFC4D
:100260008AF0EDA42CFCEA8EF0A4CDA8F08BF0A4CB
:100270002DCC3825F0FDE98FF0A42CCD35F0FCEB2A
:100280008EF0A4FEA9F0EB8FF0A4CFC5F02ECD39EF
:0F029000FEE43CFCEAA42DCE35F0FDE43CFC225C
:10029F0075F008758200EF2FFFEE33FECD33CDCC16
:1002AF0033CCC58233C5829BED9AEC99E582984099
:1002BF000CF582EE9BFEED9AFDEC99FC0FD5F0D676
:1002CF00E4CEFBE4CDFAE4CCF9A88222B800C1B9A0
:1002DF000059BA002DEC8BF084CFCECDFCE5F0CBDE
:1002EF00F97818EF2FFFEE33FEED33FDEC33FCEB17
:1002FF0033FB10D703994004EB99FB0FD8E5E4F9D2
:10030F00FA227818EF2FFFEE33FEED33FDEC33FCBE
:10031F00C933C910D7059BE99A4007EC9BFCE99AB2
:10032F00F90FD8E0E4C9FAE4CCFB2275F010EF2FF7
:10033F00FFEE33FEED33FDCC33CCC833C810D707F7
:10034F009BEC9AE899400AED9BFDEC9AFCE899F832
:0E035F000FD5F0DAE4CDFBE4CCFAE4C8F922C5
:10036D00EC8EF0A4CCC5F0CCCDF8EFA4CEC5F02D1D
:10037D00FDE43CFCE8A42EC8C5F03DFDE43CFCEFDB
:0D038D00A4FFE5F028FEE43DFDE43CFC2269
:00000001FF
