:030000000206A550
:0C06A500787FE4F6D8FD75815A0206EC5F
:10073100E4FAEF6405703343F620C2F8C2F9D2FA45
:1007410043E180C2FCD2FBADF8EDC413135403FDA9
:10075100AFE2AB07EB7E007802C333CE33CED8F9DC
:100761007C002DFBEC3EAF03FE22EF6406703443A8
:10077100F640D2F8C2F9D2FA43E180C2FCD2FBAD15
:10078100F8EDC413135403FDAFE27A00AB07EB7E1F
:10079100007802C333CE33CED8F97C002DFBEC3E7A
:0307A100FEAF03A5
:0107A4002232
:100D850075DCC0751E00751F1DE51EF5D1E51FF547
:020D9500D92261
:100AA300EF1460191460251460312403703B751E24
:100AB30000751F0DE51EF5D2E51FF5DA22751E013F
:100AC300751F00E51EF5D3E51FF5DB22751E0075C6
:100AD3001F80E51EF5D5E51FF5DD22751E00751F88
:0A0AE30040E51EF5D6E51FF5DE2202
:08000300E4FF120AA3020D85BF
:03049200015A010B
:020BEA008F1466
:100BEC00C2A07F647E00120C80D2A07F967E001281
:100BFC000C80E4F515E515C395145016D2A17F149D
:100C0C007E00120D56C2A17F147E00120D560515E2
:020C1C0080E373
:010C1E0022B3
:100CF400C294C2A1C2A07F5E7E01120D56D2A07F13
:090D04005E7E01120D56D294220C
:100A4E00E55A24FE602F04704BD2947F0E120BEAEF
:100A5E007F1E7E00120CD97F12120BEA7F1E7E00C3
:100A6E00120CD97F0B120BEA7F327E00120CD9C208
:100A7E0094755A0222D2947F0E120BEA7F197E00D1
:100A8E00120CD97F0C120BEA7F327E00120CD9C2E7
:050A9E0094755A0122CD
:100D9700D2947F06120BEA7F3C7E00120CD9C294D4
:010DA7002229
:100DA800D2947F02120BEA7F3C7E00120CD9C294C7
:010DB8002218
:100DB900D2947F1B120BEA7F467E00120CD9C29493
:010DC9002207
:100DCA00D2947F03120BEA7FA07E00120CD9C29440
:010DDA0022F6
:100D6E00D2947F16120BEA7FA07E00120CD9C29489
:070D7E007F147E00020CD976
:100DDB00D2947F17120BEA7F327E00120CD9C29489
:010DEB0022E5
:100CA000D2947F18120BEA7F327E00120CD97F0D8E
:0D0CB000120BEA7F327E00120CD9C2942292
:100DEC00D2947F13120BEA7F507E00120CD9C2945E
:010DFC0022D4
:100C1F007D647C007F011207A5C2A5C214120CF4DB
:100C2F00120003C294D284D283D290C20ED287D242
:100C3F0009D2A7C293754F06D2A2D2A3D2A6D2854C
:050C4F0012000E80FB05
:100CD900EF1FAA0670011E4A60107C137D88ED1D66
:0A0CE900AA0470011C4A60E880F4C0
:010CF30022DE
:100D2600E4FDFCC3ED9FEC9E500DE4FB0BBB15FCF4
:070D36000DBD00010C80EC73
:010D3D002293
:100D3E00E4FDFCC3ED9FEC9E500DE4FB0BBB22FCCF
:070D4E000DBD00010C80EC5B
:010D5500227B
:100C8000E4FDFCC3ED9FEC9E5015E4FBFA0BBB00AA
:0F0C9000010AEB64644A70F50DBD00010C80E4AD
:010C9F002232
:100D5600E4FDFCC3ED9FEC9E500DE4FB0BBB04FCD5
:070D66000DBD00010C80EC43
:010D6D002263
:100C5400E4FDE4FEFF0FBF00010EBE1FF8BF40F528
:100C64000DBD32EEE4FD30920EE4FEFF0FBF000135
:0B0C74000EBE46F8BF50F50DBD32EB80
:010C7F002252
:0904950007170000000000000040
:100AED007516AAE4F515E4F514E516C2907F507E4F
:100AFD0000120D26D290E51625E0F5167F967E00A4
:100B0D00120D260514E514C3940840DD7516AA7F51
:100B1D00507E00120D260515E515C3940340C7D26E
:010B2D009037
:010B2E0022A4
:100B2F007516AAE4F515E4F514E516C2907F507E0C
:100B3F0000120D26D290E51625E0F5167F967E0061
:100B4F00120D260514E514C3940840DD7516AA7F0F
:100B5F00507E00120D260515E515C3940340C7D22C
:010B6F0090F5
:010B70002262
:100B71007516AAE4F515E4F514E516C2907F507ECA
:100B810000120D26D290E51625E0F5167F967E001F
:100B9100120D260514E514C3940840DD7516AA7FCD
:100BA100507E00120D260515E515C3940340C7D2EA
:010BB10090B3
:010BB2002220
:10081700D293D2A6C2A77517C87518E07519C11269
:100827000B2FE4F512E4F51374172512F8E630E7F9
:1008370006C2907F788004C2907F507E00120D3EE2
:10084700D29074172512F8C000E625E0D000F67F95
:10085700327E00120D3E0513E513C3940840C90507
:0E08670012E512C3940340BDD2A7C293D2A6DD
:010875002260
:10087600D293D2A6C2A77517C87518E07519C21209
:100886000B2FE4F512E4F51374172512F8E630E79A
:1008960006C2907F788004C2907F507E00120D3E83
:1008A600D29074172512F8C000E625E0D000F67F36
:1008B600327E00120D3E0513E513C3940840C905A8
:0E08C60012E512C3940340BDD2A7D2A6C2937E
:0108D4002201
:1008D500D293D2A6C2A77517C87518E07519C312A9
:1008E5000AEDE4F512E4F51374172512F8E630E77E
:1008F50006C2907F788004C2907F507E00120D3E24
:10090500D29074172512F8C000E625E0D000F67FD6
:10091500327E00120D3E0513E513C3940840C90548
:0E09250012E512C3940340BDD2A7D2A6C2931E
:0109330022A1
:10093400D293D2A6C2A77517C87518E07519C41248
:100944000B71E4F512E4F51374172512F8E630E799
:1009540006C2907F788004C2907F507E00120D3EC4
:10096400D29074172512F8C000E625E0D000F67F77
:10097400327E00120D3E0513E513C3940840C905E9
:0E09840012E512C3940340BDD2A7D2A6C293BF
:010992002242
:10099300D293D2A6C2A77517C87518E07519C512E8
:1009A3000B71E4F512E4F51374172512F8E630E73A
:1009B30006C2907F788004C2907F507E00120D3E65
:1009C300D29074172512F8C000E625E0D000F67F18
:1009D300327E00120D3E0513E513C3940840C9058A
:0E09E30012E512C3940340BDD2A7D2A6C29360
:0109F10022E3
:1009F20020910D0558E558B47803E4F558C2002259
:100A0200200038D200E558D394234012E558D394FD
:100A120050500BE52A25E0F52A532AFE8010E558AE
:100A2200D394504010E52A25E0F52A432A01053DDA
:100A3200E4F55780020557E4F558220557E557C3F8
:0C0A4200943C4007E4F53DD200F535225D
:100BB300E53D64087030F53D742E2535F8A62AE529
:100BC300357009E52EB4C80475350122E535B40145
:100BD30009E52FB4E00475350222E535B40204D2E9
:070BE300078000E4F5352254
:10054C008E128F13C3E5139477E5129403400CD2EB
:10055C00947F1C120BEA7F320205E9C3E5139474F5
:10056C00E51294035016C3E513945BE51294034013
:10057C000BD2947F0A120BEA7F508061C3E513946F
:10058C0058E51294035016C3E5139444E5129403F2
:10059C00400BD2947F09120BEA7F508040C3E513C5
:1005AC009441E51294035016C3E513942AE5129472
:1005BC0003400BD2947F08120BEA7F50801FC3E5D7
:1005CC00139427E5129403501CC3E5139410E51201
:1005DC0094034011D2947F07120BEA7F507E0012D5
:1005EC000CD9C29422C3E513940DE5129403500860
:0905FC00E54BB40103120D972236
:0E0DFD00C2A2D2A3120C54D2A2D2A3C285224B
:0E0E0B00D285D2A2C2A3120C54D2A2D2A3222C
:10049E00C105C106C112C114C102C115C10CC109E9
:1004AE00022C0000C111C10FC110015000015100FA
:1004BE00C10BC18D012900C117013F00013600019A
:1004CE00440002400000014E00013C0002520000B8
:1004DE00C108C10AC101012300023A000001470010
:1004EE00014F00C10E013E00012500015900012BF4
:1004FE0000024C0000072E00000000000000C107A3
:10050E00013500012A00013D00C18001570001584C
:10051E0000014A0001480002550000C104014B00D1
:10052E0001540001280002380000C11601490001E3
:0D053E003700C113012400C1030226000094
:03000B0002001ED2
:10001E00C0E0C0F0C083C082C0D075D000C000C0A8
:10002E0001C002C003C004C005C006C00785428CD3
:10003E0085458A054DE54D7002054CC394D0E54CBF
:10004E00940750030201741208173009330529E58D
:10005E0029C39402402A75290430A412200D0FE5FD
:10006E004FD394064008120E0B754F00D20DD214CA
:10007E00D2A520A506752300754700C21675490046
:10008E00754C00754D007F061207318E388F393052
:10009E000B0CE52BC394055005120993052B301755
:1000AE000CE559C3940550051209340559054FE561
:1000BE004FD394064003754F07E54B6003300D2573
:1000CE0030A4227F057E00120CD930A41530160DF7
:1000DE00E549C394015006120CBD754B01C2137550
:1000EE00240075290020A422E54BB4011D20031A1B
:1000FE007F057E00120CD920A40DAF39AE38120543
:10010E004C754B00120D0D752900300F22E550C3B2
:10011E009404501BD20520A4061208D5120DCA0550
:10012E0050E550C394044007755000C20FC205300D
:10013E001022E551C39404501BD20520A4061208C8
:10014E00D5120D6E0551E551C3940440077551004B
:10015E00C210C20530130FE524C3940250081208D2
:10016E0076120DEC052430010302026E20A5030267
:10017E00026EE523146031146070240260030202E3
:10018E004530800320871B2005180547E547C3949B
:10019E00015003020245754700752301120DA80296
:1001AE000245754700020245308003208717053649
:1001BE00E536C3940140117536007523027544006F
:1001CE00120DB98003753600053BE53B7002053A0A
:1001DE00C394A0E53A940F405E7523007536007502
:1001EE004700753A00753B00804D30800320871222
:1001FE00053CE53CC39401400C753C00D20FD21077
:10020E008003753C000541E54170020540C394A092
:10021E00E540940F40217523007547007536007533
:10022E003A00753B007540007541007552037553D9
:10023E0020753C00754E00208116E537C39433506F
:10024E000F0537E53794324007D20FD2107537338A
:10025E00C3E5399466E5389400500520A402D21304
:10026E0030143E2084120548E548B40A15D217C250
:10027E000B20040ED201800AC21775590075480072
:10028E00C201208312054AE54AB40A15D20BC217E1
:10029E0020040ED201800AC20B752B00754A00C2D3
:1002AE000130013C0556E55670020555C394A0E594
:1002BE0055940F402BC201755500755600D204752A
:1002CE002300754700753600753A00753B00754082
:1002DE0000754100755203755320753C00754E0034
:1002EE00308703208020D3E5279488E52694134099
:1002FE00157F037E00120CD9308703208008D203AD
:10030E007526007527000527E52770020526C3947C
:10031E0088E52694134008752613752789C203D0E5
:10032E0007D006D005D004D003D002D001D000D023
:0A033E00D0D082D083D0F0D0E0329E
:03001B00020605D5
:10060500C0E0C0F0C083C082C0D075D000C000C0BB
:1006150001C002C003C004C005C006C00785438DE4
:1006250085468B1209F2120BB3300759C207E53024
:10063500243F7051E54FD39406500330A405D216DC
:10064500754F00752900C2A5C214C20BC2177523C8
:1006550000754700753600753A00753B007540001A
:10066500754100755200755300753C00754E00C20A
:1006750005C20F755000C210755100C201753700D3
:10068500C213752400D007D006D005D004D003D0FE
:1006950002D001D000D0D0D082D083D0F0D0E032CB
:0407A5008C088D0926
:1007A9007E007C2B7D33120465E47B0CFAF9F81288
:1007B90003D38F0D8E0C8D0B8C0AC3E49FFFE49E2F
:1007C900F5428F45AE08AF09EE3395E0FDFCE47BB9
:1007D9000BFAF9F8120348E47B0CFAF9F81203D37F
:1007E9008F118E108D0F8C0EC3E49FFFE49EF5438D
:1007F9008F4675891185428C85458A85438D854645
:0D0809008BD2A9D28CD2ABD28ED2BBD2AF93
:0108160022BF
:04000E004387012201
:100D0D00200D03120E0B120CA0E4F54FD214D2A538
:090D1D00C216F549F523F5472241
:100CBD00120DFDE54B700D120DDBAF39AE3812057F
:0C0CCD004C120A4EE4F54F0549C20D22FE
:1006B100020C1FE493A3F8E493A34003F68001F234
:1006C10008DFF48029E493A3F85407240CC8C3334A
:1006D100C4540F4420C8834004F456800146F6DF19
:1006E100E4800B0102040810204080900492E47E13
:1006F100019360BCA3FF543F30E509541FFEE4930E
:10070100A360010ECF54C025E060A840B8E493A3D4
:10071100FAE493A3F8E493A3C8C582C8CAC583CAFF
:10072100F0A3C8C582C8CAC583CADFE9DEE780BEB7
:01054B0000AF
:10034800E88FF0A4CC8BF0A42CFCE98EF0A42CFC54
:100358008AF0EDA42CFCEA8EF0A4CDA8F08BF0A4D2
:100368002DCC3825F0FDE98FF0A42CCD35F0FCEB31
:100378008EF0A4FEA9F0EB8FF0A4CFC5F02ECD39F6
:0F038800FEE43CFCEAA42DCE35F0FDE43CFC2263
:1003970075F008758200EF2FFFEE33FECD33CDCC1D
:1003A70033CCC58233C5829BED9AEC99E5829840A0
:1003B7000CF582EE9BFEED9AFDEC99FC0FD5F0D67D
:1003C700E4CEFBE4CDFAE4CCF9A88222B800C1B9A7
:1003D7000059BA002DEC8BF084CFCECDFCE5F0CBE5
:1003E700F97818EF2FFFEE33FEED33FDEC33FCEB1E
:1003F70033FB10D703994004EB99FB0FD8E5E4F9D9
:10040700FA227818EF2FFFEE33FEED33FDEC33FCC5
:10041700C933C910D7059BE99A4007EC9BFCE99AB9
:10042700F90FD8E0E4C9FAE4CCFB2275F010EF2FFE
:10043700FFEE33FEED33FDCC33CCC833C810D707FE
:100447009BEC9AE899400AED9BFDEC9AFCE899F839
:0E0457000FD5F0DAE4CDFBE4CCFAE4C8F922CC
:10046500EC8EF0A4CCC5F0CCCDF8EFA4CEC5F02D24
:10047500FDE43CFCE8A42EC8C5F03DFDE43CFCEFE2
:0D048500A4FFE5F028FEE43DFDE43CFC2270
:00000001FF
