:030000000206A84D
:0C06A800787FE4F6D8FD75815A0206EF59
:10073400E4FAEF6405703343F620C2F8C2F9D2FA42
:1007440043E180C2FCD2FBADF8EDC413135403FDA6
:10075400AFE2AB07EB7E007802C333CE33CED8F9D9
:100764007C002DFBEC3EAF03FE22EF6406703443A5
:10077400F640D2F8C2F9D2FA43E180C2FCD2FBAD12
:10078400F8EDC413135403FDAFE27A00AB07EB7E1C
:10079400007802C333CE33CED8F97C002DFBEC3E77
:0307A400FEAF03A2
:0107A700222F
:100D8D0075DCC0751E00751F1DE51EF5D1E51FF53F
:020D9D00D92259
:100AA600EF1460191460251460312403703B751E21
:100AB60000751F0DE51EF5D2E51FF5DA22751E013C
:100AC600751F00E51EF5D3E51FF5DB22751E0075C3
:100AD6001F80E51EF5D5E51FF5DD22751E00751F85
:0A0AE60040E51EF5D6E51FF5DE22FF
:08000300E4FF120AA6020D8DB4
:03049500015A0108
:020BED008F1463
:100BEF00C2A07F647E00120C83D2A07F967E00127B
:100BFF000C83E4F515E515C395145016D2A17F1497
:100C0F007E00120D5EC2A17F147E00120D5E0515CF
:020C1F0080E370
:010C210022B0
:100D1500C294C2A1C2A07F5E7E01120D5ED2A07FE9
:090D25005E7E01120D5ED29422E3
:100A5100E55A24FE602F04704BD2947F0E120BEDE9
:100A61007F1E7E00120CFA7F12120BED7F1E7E009C
:100A7100120CFA7F0B120BED7F327E00120CFAC2C0
:100A810094755A0222D2947F0E120BED7F197E00CB
:100A9100120CFA7F0C120BED7F327E00120CFAC29F
:050AA10094755A0122CA
:100D9F00D2947F06120BED7F3C7E00120CFAC294A8
:010DAF002221
:100DB000D2947F02120BED7F3C7E00120CFAC2949B
:010DC0002210
:100DC100D2947F1B120BED7F467E00120CFAC29467
:010DD10022FF
:100DD200D2947F03120BED7FA07E00120CFAC29414
:010DE20022EE
:100D7600D2947F16120BED7FA07E00120CFAC2945D
:070D86007F147E00020CFA4D
:100DE300D2947F17120BED7F327E00120CFAC2945D
:010DF30022DD
:100CC100D2947F18120BED7F327E00120CFA7F0D49
:0D0CD100120BED7F327E00120CFAC294224D
:100DF400D2947F13120BED7F507E00120CFAC29432
:010E040022CB
:100C22007D647C007F011207A8C2A5C214120D15B3
:100C3200120003C294D284D283D290C20ED287D23F
:100C420009D2A7C293754F06D2A2D2A3D2A6D28549
:050C520012000E80FB02
:100CFA00EF1FAA0670011E4A60107C137D88ED1D45
:0A0D0A00AA0470011C4A60E880F49E
:010D140022BC
:100D2E00E4FDFCC3ED9FEC9E500DE4FB0BBB15FCEC
:070D3E000DBD00010C80EC6B
:010D4500228B
:100D4600E4FDFCC3ED9FEC9E500DE4FB0BBB1AFCCF
:070D56000DBD00010C80EC53
:010D5D002273
:100C8300E4FDFCC3ED9FEC9E5015E4FBFA0BBB00A7
:0F0C9300010AEB64644A70F50DBD00010C80E4AA
:010CA200222F
:100D5E00E4FDFCC3ED9FEC9E500DE4FB0BBB04FCCD
:070D6E000DBD00010C80EC3B
:010D7500225B
:100C5700E4FDE4FEFF0FBF00010EBE1FF8BF40F525
:100C67000DBD32EEE4FD30920EE4FEFF0FBF000132
:0B0C77000EBE46F8BF50F50DBD32EB7D
:010C8200224F
:090498000717000000000000003D
:100AF0007516AAE4F515E4F514E516C2907F507E4C
:100B000000120D2ED290E51625E0F5167F967E0098
:100B1000120D2E0514E514C3940840DD7516AA7F46
:100B2000507E00120D2E0515E515C3940340C7D263
:010B30009034
:010B310022A1
:100B32007516AAE4F515E4F514E516C2907F507E09
:100B420000120D2ED290E51625E0F5167F967E0056
:100B5200120D2E0514E514C3940840DD7516AA7F04
:100B6200507E00120D2E0515E515C3940340C7D221
:010B720090F2
:010B7300225F
:100B74007516AAE4F515E4F514E516C2907F507EC7
:100B840000120D2ED290E51625E0F5167F967E0014
:100B9400120D2E0514E514C3940840DD7516AA7FC2
:100BA400507E00120D2E0515E515C3940340C7D2DF
:010BB40090B0
:010BB500221D
:10081A00D293D2A6C2A77517C87518E07519C11266
:10082A000B32E4F512E4F51374172512F8E630E7F3
:10083A0006C2907F788004C2907F507E00120D46D7
:10084A00D29074172512F8C000E625E0D000F67F92
:10085A00327E00120D460513E513C3940840C905FC
:0E086A0012E512C3940340BDD2A7C293D2A6DA
:01087800225D
:10087900D293C2A6C2A77517C87518E07519C21216
:100889000B32E4F512E4F51374172512F8E630E794
:1008990006C2907F788004C2907F507E00120D4678
:1008A900D29074172512F8C000E625E0D000F67F33
:1008B900327E00120D460513E513C3940840C9059D
:0E08C90012E512C3940340BDD2A7D2A6C2937B
:0108D70022FE
:1008D800D293C2A6C2A77517C87518E07519C312B6
:1008E8000AF0E4F512E4F51374172512F8E630E778
:1008F80006C2907F788004C2907F507E00120D4619
:10090800D29074172512F8C000E625E0D000F67FD3
:10091800327E00120D460513E513C3940840C9053D
:0E09280012E512C3940340BDD2A7D2A6C2931B
:01093600229E
:10093700D293C2A6C2A77517C87518E07519C41255
:100947000B74E4F512E4F51374172512F8E630E793
:1009570006C2907F788004C2907F507E00120D46B9
:10096700D29074172512F8C000E625E0D000F67F74
:10097700327E00120D460513E513C3940840C905DE
:0E09870012E512C3940340BDD2A7D2A6C293BC
:01099500223F
:10099600D293C2A6C2A77517C87518E07519C512F5
:1009A6000B74E4F512E4F51374172512F8E630E734
:1009B60006C2907F788004C2907F507E00120D465A
:1009C600D29074172512F8C000E625E0D000F67F15
:1009D600327E00120D460513E513C3940840C9057F
:0E09E60012E512C3940340BDD2A7D2A6C2935D
:0109F40022E0
:1009F50020910D0558E558B47803E4F558C2002256
:100A0500200038D200E558D394234012E558D394FA
:100A150050500BE52A25E0F52A532AFE8010E558AB
:100A2500D394504010E52A25E0F52A432A01053DD7
:100A3500E4F55780020557E4F558220557E557C3F5
:0C0A4500943C4007E4F53DD200F535225A
:100BB600E53D64087030F53D742E2535F8A62AE526
:100BC600357009E52EB4C80475350122E535B40142
:100BD60009E52FB4E00475350222E535B40204D2E6
:070BE600078000E4F5352251
:10054F008E128F13C3E5139426E5129403400CD239
:10055F00947F1C120BED7F320205ECC3E51394223E
:10056F00E51294035016C3E513940CE5129403405F
:10057F000BD2947F0A120BED7F508061C3E5139469
:10058F0009E51294035016C3E51394F3E512940290
:10059F00400BD2947F09120BED7F508040C3E513BF
:1005AF0094F0E51294035016C3E51394DAE5129410
:1005BF0002400BD2947F08120BED7F50801FC3E5D2
:1005CF001394D7E5129402501CC3E51394C0E5129F
:1005DF0094024011D2947F07120BED7F507E0012D0
:1005EF000CFAC29422C3E51394BDE512940250088D
:0905FF00E54BB40103120D9F222B
:0E0E0500C2A2D2A3120C57D2A2D2A3C285223F
:0E0E1300D285D2A2C2A3120C57D2A2D2A32221
:1004A100C105C106C112C114C102C115C10CC109E6
:1004B100022C0000C111C10FC110015000015100F7
:1004C100C10BC18D012900C117013F000136000197
:1004D100440002400000014E00013C0002520000B5
:1004E100C108C10AC101012300023A00000147000D
:1004F100014F00C10E013E00012500015900012BF1
:1005010000024C0000072E00000000000000C1079F
:10051100013500012A00013D00C180015700015849
:1005210000014A0001480002550000C104014B00CE
:1005310001540001280002380000C11601490001E0
:0D0541003700C113012400C1030226000091
:03000B0002001ED2
:10001E00C0E0C0F0C083C082C0D075D000C000C0A8
:10002E0001C002C003C004C005C006C00785428CD3
:10003E0085458A054DE54D7002054CC394D0E54CBF
:10004E009407500302017712081A3009330529E587
:10005E0029C39402402A75290430A412200D0FE5FD
:10006E004FD394064008120E13754F00D20DD214C2
:10007E00D2A520A506752300754700C21675490046
:10008E00754C00754D007F061207348E388F39304F
:10009E000B0CE52BC394055005120996052B301752
:1000AE000CE559C3940550051209370559054FE55E
:1000BE004FD394064003754F07E54B6003300D2573
:1000CE0030A4227F057E00120CFA30A41530160DD6
:1000DE00E549C394015006120CDE754B01C213752F
:1000EE00240075290030802530872220A41FE54B7F
:1000FE00B4011A7F057E00120CFA20A40DAF39AEA2
:10010E003812054F754B00120CA3752900300F22C3
:10011E00E550C39404501BD20520A4061208D81231
:10012E000DD20550E550C394044007755000C20F20
:10013E00C205301022E551C39404501BD20520A4F1
:10014E00061208D8120D760551E551C394044007E6
:10015E00755100C210C20530130FE524C39402502E
:10016E0008120879120DF4052430010302027120E1
:10017E00A503020271E5231460311460702402603D
:10018E000302024830800320871B2005180547E52F
:10019E0047C39402500302024875470075230112AB
:1001AE000DB00202487547000202483080032087D6
:1001BE00170536E536C394024011753600752302D5
:1001CE00754400120DC18003753600053BE53B708A
:1001DE0002053AC394A0E53A940F405E752300756C
:1001EE003600754700753A00753B00804D30800330
:1001FE00208712053CE53CC39402400C753C00D2AE
:10020E000FD2108003753C000541E5417002054098
:10021E00C394A0E540940F402175230075470075E7
:10022E003600753A00753B007540007541007552F9
:10023E0003755320753C00754E00208116E537C3BB
:10024E009433500F0537E53794324007D20FD21052
:10025E00753733C3E5399466E5389400500520A40C
:10026E0002D21330143E2084120548E548B40A1514
:10027E00D217C20B20040ED201800AC21775590084
:10028E00754800C201208312054AE54AB40A15D208
:10029E000BC21720040ED201800AC20B752B0075FB
:1002AE004A00C20130013C0556E55670020555C3A1
:1002BE0094A0E555940F402BC2017555007556005C
:1002CE00D204752300754700753600753A00753BEC
:1002DE0000754000754100755203755320753C0042
:1002EE00754E00308703208020D3E5279488E526BD
:1002FE00941340157F037E00120CFA308703208082
:10030E0008D2037526007527000527E5277002051C
:10031E0026C39488E52694134008752613752789FD
:10032E00C203D007D006D005D004D003D002D0012E
:0D033E00D000D0D0D082D083D0F0D0E032FB
:03001B00020608D2
:10060800C0E0C0F0C083C082C0D075D000C000C0B8
:1006180001C002C003C004C005C006C00785438DE1
:1006280085468B1209F5120BB6300759C207E5301B
:10063800243F7051E54FD39406500330A405D216D9
:10064800754F00752900C2A5C214C20BC2177523C5
:1006580000754700753600753A00753B0075400017
:10066800754100755200755300753C00754E00C207
:1006780005C20F755000C210755100C201753700D0
:10068800C213752400D007D006D005D004D003D0FB
:1006980002D001D000D0D0D082D083D0F0D0E032C8
:0407A8008C088D0923
:1007AC007E007C2B7D33120468E47B0CFAF9F81282
:1007BC0003D68F0D8E0C8D0B8C0AC3E49FFFE49E29
:1007CC00F5428F45AE08AF09EE3395E0FDFCE47BB6
:1007DC000BFAF9F812034BE47B0CFAF9F81203D676
:1007EC008F118E108D0F8C0EC3E49FFFE49EF5438A
:1007FC008F4675891185428C85458A85438D854642
:0D080C008BD2A9D28CD2ABD28ED2BBD2AF90
:0108190022BC
:04000E004387012201
:100CA300200D03120E13120CC1E4F54FD214D2A57A
:0E0CB300C216F549F523F5477F14FE020CFA30
:100CDE00120E05E54B700D120DE3AF39AE3812054D
:0C0CEE004F120A51E4F54F0549C20D22D7
:1006B400020C22E493A3F8E493A34003F68001F22E
:1006C40008DFF48029E493A3F85407240CC8C33347
:1006D400C4540F4420C8834004F456800146F6DF16
:1006E400E4800B0102040810204080900495E47E0D
:1006F400019360BCA3FF543F30E509541FFEE4930B
:10070400A360010ECF54C025E060A840B8E493A3D1
:10071400FAE493A3F8E493A3C8C582C8CAC583CAFC
:10072400F0A3C8C582C8CAC583CADFE9DEE780BEB4
:01054E0000AC
:10034B00E88FF0A4CC8BF0A42CFCE98EF0A42CFC51
:10035B008AF0EDA42CFCEA8EF0A4CDA8F08BF0A4CF
:10036B002DCC3825F0FDE98FF0A42CCD35F0FCEB2E
:10037B008EF0A4FEA9F0EB8FF0A4CFC5F02ECD39F3
:0F038B00FEE43CFCEAA42DCE35F0FDE43CFC2260
:10039A0075F008758200EF2FFFEE33FECD33CDCC1A
:1003AA0033CCC58233C5829BED9AEC99E58298409D
:1003BA000CF582EE9BFEED9AFDEC99FC0FD5F0D67A
:1003CA00E4CEFBE4CDFAE4CCF9A88222B800C1B9A4
:1003DA000059BA002DEC8BF084CFCECDFCE5F0CBE2
:1003EA00F97818EF2FFFEE33FEED33FDEC33FCEB1B
:1003FA0033FB10D703994004EB99FB0FD8E5E4F9D6
:10040A00FA227818EF2FFFEE33FEED33FDEC33FCC2
:10041A00C933C910D7059BE99A4007EC9BFCE99AB6
:10042A00F90FD8E0E4C9FAE4CCFB2275F010EF2FFB
:10043A00FFEE33FEED33FDCC33CCC833C810D707FB
:10044A009BEC9AE899400AED9BFDEC9AFCE899F836
:0E045A000FD5F0DAE4CDFBE4CCFAE4C8F922C9
:10046800EC8EF0A4CCC5F0CCCDF8EFA4CEC5F02D21
:10047800FDE43CFCE8A42EC8C5F03DFDE43CFCEFDF
:0D048800A4FFE5F028FEE43DFDE43CFC226D
:00000001FF
